{
  "contractName": "BaseLayerr1155",
  "abi": [
    {
      "inputs": [
        {
          "internalType": "address",
          "name": "operator",
          "type": "address"
        }
      ],
      "name": "OperatorNotAllowed",
      "type": "error"
    },
    {
      "anonymous": false,
      "inputs": [
        {
          "indexed": true,
          "internalType": "address",
          "name": "owner",
          "type": "address"
        },
        {
          "indexed": true,
          "internalType": "address",
          "name": "operator",
          "type": "address"
        },
        {
          "indexed": false,
          "internalType": "bool",
          "name": "approved",
          "type": "bool"
        }
      ],
      "name": "ApprovalForAll",
      "type": "event"
    },
    {
      "anonymous": false,
      "inputs": [
        {
          "indexed": true,
          "internalType": "address",
          "name": "operator",
          "type": "address"
        },
        {
          "indexed": true,
          "internalType": "address",
          "name": "from",
          "type": "address"
        },
        {
          "indexed": true,
          "internalType": "address",
          "name": "to",
          "type": "address"
        },
        {
          "indexed": false,
          "internalType": "uint256[]",
          "name": "ids",
          "type": "uint256[]"
        },
        {
          "indexed": false,
          "internalType": "uint256[]",
          "name": "amounts",
          "type": "uint256[]"
        }
      ],
      "name": "TransferBatch",
      "type": "event"
    },
    {
      "anonymous": false,
      "inputs": [
        {
          "indexed": true,
          "internalType": "address",
          "name": "operator",
          "type": "address"
        },
        {
          "indexed": true,
          "internalType": "address",
          "name": "from",
          "type": "address"
        },
        {
          "indexed": true,
          "internalType": "address",
          "name": "to",
          "type": "address"
        },
        {
          "indexed": false,
          "internalType": "uint256",
          "name": "id",
          "type": "uint256"
        },
        {
          "indexed": false,
          "internalType": "uint256",
          "name": "amount",
          "type": "uint256"
        }
      ],
      "name": "TransferSingle",
      "type": "event"
    },
    {
      "anonymous": false,
      "inputs": [
        {
          "indexed": false,
          "internalType": "string",
          "name": "value",
          "type": "string"
        },
        {
          "indexed": true,
          "internalType": "uint256",
          "name": "id",
          "type": "uint256"
        }
      ],
      "name": "URI",
      "type": "event"
    },
    {
      "inputs": [],
      "name": "LayerrXYZ",
      "outputs": [
        {
          "internalType": "address",
          "name": "",
          "type": "address"
        }
      ],
      "stateMutability": "view",
      "type": "function"
    },
    {
      "inputs": [],
      "name": "OPERATOR_FILTER_REGISTRY",
      "outputs": [
        {
          "internalType": "contract IOperatorFilterRegistry",
          "name": "",
          "type": "address"
        }
      ],
      "stateMutability": "view",
      "type": "function"
    },
    {
      "inputs": [
        {
          "internalType": "uint256",
          "name": "",
          "type": "uint256"
        }
      ],
      "name": "URIs",
      "outputs": [
        {
          "internalType": "string",
          "name": "",
          "type": "string"
        }
      ],
      "stateMutability": "view",
      "type": "function"
    },
    {
      "inputs": [
        {
          "internalType": "address",
          "name": "",
          "type": "address"
        },
        {
          "internalType": "uint256",
          "name": "",
          "type": "uint256"
        }
      ],
      "name": "balanceOf",
      "outputs": [
        {
          "internalType": "uint256",
          "name": "",
          "type": "uint256"
        }
      ],
      "stateMutability": "view",
      "type": "function"
    },
    {
      "inputs": [
        {
          "internalType": "address[]",
          "name": "owners",
          "type": "address[]"
        },
        {
          "internalType": "uint256[]",
          "name": "ids",
          "type": "uint256[]"
        }
      ],
      "name": "balanceOfBatch",
      "outputs": [
        {
          "internalType": "uint256[]",
          "name": "balances",
          "type": "uint256[]"
        }
      ],
      "stateMutability": "view",
      "type": "function"
    },
    {
      "inputs": [],
      "name": "contractURI_",
      "outputs": [
        {
          "internalType": "string",
          "name": "",
          "type": "string"
        }
      ],
      "stateMutability": "view",
      "type": "function"
    },
    {
      "inputs": [
        {
          "internalType": "address",
          "name": "",
          "type": "address"
        },
        {
          "internalType": "address",
          "name": "",
          "type": "address"
        }
      ],
      "name": "isApprovedForAll",
      "outputs": [
        {
          "internalType": "bool",
          "name": "",
          "type": "bool"
        }
      ],
      "stateMutability": "view",
      "type": "function"
    },
    {
      "inputs": [
        {
          "internalType": "uint256",
          "name": "",
          "type": "uint256"
        }
      ],
      "name": "maxMintsPerTx",
      "outputs": [
        {
          "internalType": "uint256",
          "name": "",
          "type": "uint256"
        }
      ],
      "stateMutability": "view",
      "type": "function"
    },
    {
      "inputs": [],
      "name": "name",
      "outputs": [
        {
          "internalType": "string",
          "name": "",
          "type": "string"
        }
      ],
      "stateMutability": "view",
      "type": "function"
    },
    {
      "inputs": [],
      "name": "owner",
      "outputs": [
        {
          "internalType": "address",
          "name": "",
          "type": "address"
        }
      ],
      "stateMutability": "view",
      "type": "function"
    },
    {
      "inputs": [
        {
          "internalType": "uint256",
          "name": "_tokenId",
          "type": "uint256"
        },
        {
          "internalType": "uint256",
          "name": "_salePrice",
          "type": "uint256"
        }
      ],
      "name": "royaltyInfo",
      "outputs": [
        {
          "internalType": "address",
          "name": "",
          "type": "address"
        },
        {
          "internalType": "uint256",
          "name": "",
          "type": "uint256"
        }
      ],
      "stateMutability": "view",
      "type": "function"
    },
    {
      "inputs": [],
      "name": "symbol",
      "outputs": [
        {
          "internalType": "string",
          "name": "",
          "type": "string"
        }
      ],
      "stateMutability": "view",
      "type": "function"
    },
    {
      "inputs": [
        {
          "internalType": "uint256",
          "name": "",
          "type": "uint256"
        }
      ],
      "name": "tokenEditionCounts",
      "outputs": [
        {
          "internalType": "uint256",
          "name": "",
          "type": "uint256"
        }
      ],
      "stateMutability": "view",
      "type": "function"
    },
    {
      "inputs": [
        {
          "internalType": "uint256",
          "name": "",
          "type": "uint256"
        }
      ],
      "name": "tokenEditionMints",
      "outputs": [
        {
          "internalType": "uint256",
          "name": "",
          "type": "uint256"
        }
      ],
      "stateMutability": "view",
      "type": "function"
    },
    {
      "inputs": [
        {
          "internalType": "uint256",
          "name": "",
          "type": "uint256"
        }
      ],
      "name": "tokenPrices",
      "outputs": [
        {
          "internalType": "uint256",
          "name": "",
          "type": "uint256"
        }
      ],
      "stateMutability": "view",
      "type": "function"
    },
    {
      "inputs": [
        {
          "internalType": "uint256",
          "name": "",
          "type": "uint256"
        }
      ],
      "name": "tokenSaleEnds",
      "outputs": [
        {
          "internalType": "uint256",
          "name": "",
          "type": "uint256"
        }
      ],
      "stateMutability": "view",
      "type": "function"
    },
    {
      "inputs": [
        {
          "internalType": "uint256",
          "name": "",
          "type": "uint256"
        }
      ],
      "name": "tokenSaleStarts",
      "outputs": [
        {
          "internalType": "uint256",
          "name": "",
          "type": "uint256"
        }
      ],
      "stateMutability": "view",
      "type": "function"
    },
    {
      "inputs": [
        {
          "internalType": "uint256",
          "name": "id",
          "type": "uint256"
        }
      ],
      "name": "uri",
      "outputs": [
        {
          "internalType": "string",
          "name": "",
          "type": "string"
        }
      ],
      "stateMutability": "view",
      "type": "function"
    },
    {
      "inputs": [],
      "name": "contractURI",
      "outputs": [
        {
          "internalType": "string",
          "name": "",
          "type": "string"
        }
      ],
      "stateMutability": "view",
      "type": "function"
    },
    {
      "inputs": [
        {
          "internalType": "uint256",
          "name": "_id",
          "type": "uint256"
        },
        {
          "internalType": "uint256",
          "name": "_amount",
          "type": "uint256"
        }
      ],
      "name": "mint",
      "outputs": [],
      "stateMutability": "payable",
      "type": "function"
    },
    {
      "inputs": [
        {
          "internalType": "string",
          "name": "_contractURI",
          "type": "string"
        }
      ],
      "name": "setContractURI",
      "outputs": [],
      "stateMutability": "nonpayable",
      "type": "function"
    },
    {
      "inputs": [
        {
          "internalType": "string",
          "name": "_name",
          "type": "string"
        },
        {
          "internalType": "string",
          "name": "_symbol",
          "type": "string"
        },
        {
          "internalType": "string",
          "name": "_contractURI",
          "type": "string"
        },
        {
          "internalType": "address",
          "name": "royaltyAddress",
          "type": "address"
        },
        {
          "internalType": "uint96",
          "name": "pct",
          "type": "uint96"
        }
      ],
      "name": "initialize",
      "outputs": [],
      "stateMutability": "nonpayable",
      "type": "function"
    },
    {
      "inputs": [
        {
          "internalType": "uint256",
          "name": "_id",
          "type": "uint256"
        },
        {
          "internalType": "string",
          "name": "_uri",
          "type": "string"
        },
        {
          "internalType": "uint256",
          "name": "_price",
          "type": "uint256"
        },
        {
          "internalType": "uint256",
          "name": "_saleStart",
          "type": "uint256"
        },
        {
          "internalType": "uint256",
          "name": "_saleEnd",
          "type": "uint256"
        },
        {
          "internalType": "uint256",
          "name": "_editionCount",
          "type": "uint256"
        },
        {
          "internalType": "uint256",
          "name": "_maxMintsPerTx",
          "type": "uint256"
        }
      ],
      "name": "addToken",
      "outputs": [],
      "stateMutability": "nonpayable",
      "type": "function"
    },
    {
      "inputs": [
        {
          "internalType": "bytes4",
          "name": "interfaceId",
          "type": "bytes4"
        }
      ],
      "name": "supportsInterface",
      "outputs": [
        {
          "internalType": "bool",
          "name": "",
          "type": "bool"
        }
      ],
      "stateMutability": "view",
      "type": "function"
    },
    {
      "inputs": [
        {
          "internalType": "address",
          "name": "receiver",
          "type": "address"
        },
        {
          "internalType": "uint96",
          "name": "feeNumerator",
          "type": "uint96"
        }
      ],
      "name": "setDefaultRoyalty",
      "outputs": [],
      "stateMutability": "nonpayable",
      "type": "function"
    },
    {
      "inputs": [
        {
          "internalType": "string",
          "name": "_name",
          "type": "string"
        }
      ],
      "name": "changeName",
      "outputs": [],
      "stateMutability": "nonpayable",
      "type": "function"
    },
    {
      "inputs": [
        {
          "internalType": "string",
          "name": "_symbol",
          "type": "string"
        }
      ],
      "name": "changeSymbol",
      "outputs": [],
      "stateMutability": "nonpayable",
      "type": "function"
    },
    {
      "inputs": [],
      "name": "withdraw",
      "outputs": [],
      "stateMutability": "payable",
      "type": "function"
    },
    {
      "inputs": [
        {
          "internalType": "address",
          "name": "newOwner",
          "type": "address"
        }
      ],
      "name": "transferOwnership",
      "outputs": [
        {
          "internalType": "address",
          "name": "",
          "type": "address"
        }
      ],
      "stateMutability": "nonpayable",
      "type": "function"
    },
    {
      "inputs": [
        {
          "internalType": "address",
          "name": "operator",
          "type": "address"
        },
        {
          "internalType": "bool",
          "name": "approved",
          "type": "bool"
        }
      ],
      "name": "setApprovalForAll",
      "outputs": [],
      "stateMutability": "nonpayable",
      "type": "function"
    },
    {
      "inputs": [
        {
          "internalType": "address",
          "name": "from",
          "type": "address"
        },
        {
          "internalType": "address",
          "name": "to",
          "type": "address"
        },
        {
          "internalType": "uint256",
          "name": "tokenId",
          "type": "uint256"
        },
        {
          "internalType": "uint256",
          "name": "amount",
          "type": "uint256"
        },
        {
          "internalType": "bytes",
          "name": "data",
          "type": "bytes"
        }
      ],
      "name": "safeTransferFrom",
      "outputs": [],
      "stateMutability": "nonpayable",
      "type": "function"
    },
    {
      "inputs": [
        {
          "internalType": "address",
          "name": "from",
          "type": "address"
        },
        {
          "internalType": "address",
          "name": "to",
          "type": "address"
        },
        {
          "internalType": "uint256[]",
          "name": "ids",
          "type": "uint256[]"
        },
        {
          "internalType": "uint256[]",
          "name": "amounts",
          "type": "uint256[]"
        },
        {
          "internalType": "bytes",
          "name": "data",
          "type": "bytes"
        }
      ],
      "name": "safeBatchTransferFrom",
      "outputs": [],
      "stateMutability": "nonpayable",
      "type": "function"
    }
  ],
  "bytecode": "0x60806040526040518060400160405280600a81526020017f4c61796572723131353500000000000000000000000000000000000000000000815250600d908051906020019062000051929190620002ea565b5060405180602001604052806000815250600e908051906020019062000079929190620002ea565b506040518060400160405280600581526020017f4c31313535000000000000000000000000000000000000000000000000000000815250600f9080519060200190620000c7929190620002ea565b50348015620000d557600080fd5b50733cc6cdda760b79bafa08df41ecfa224f810dceb6600160006daaeb6d7670e522a718067333cd4e73ffffffffffffffffffffffffffffffffffffffff163b1115620002e2578015620001a8576daaeb6d7670e522a718067333cd4e73ffffffffffffffffffffffffffffffffffffffff16637d3e3dbe30846040518363ffffffff1660e01b81526004016200016e929190620003df565b600060405180830381600087803b1580156200018957600080fd5b505af11580156200019e573d6000803e3d6000fd5b50505050620002e1565b600073ffffffffffffffffffffffffffffffffffffffff168273ffffffffffffffffffffffffffffffffffffffff161462000262576daaeb6d7670e522a718067333cd4e73ffffffffffffffffffffffffffffffffffffffff1663a0af290330846040518363ffffffff1660e01b815260040162000228929190620003df565b600060405180830381600087803b1580156200024357600080fd5b505af115801562000258573d6000803e3d6000fd5b50505050620002e0565b6daaeb6d7670e522a718067333cd4e73ffffffffffffffffffffffffffffffffffffffff16634420e486306040518263ffffffff1660e01b8152600401620002ab91906200040c565b600060405180830381600087803b158015620002c657600080fd5b505af1158015620002db573d6000803e3d6000fd5b505050505b5b5b50506200048d565b828054620002f89062000458565b90600052602060002090601f0160209004810192826200031c576000855562000368565b82601f106200033757805160ff191683800117855562000368565b8280016001018555821562000368579182015b82811115620003675782518255916020019190600101906200034a565b5b5090506200037791906200037b565b5090565b5b80821115620003965760008160009055506001016200037c565b5090565b600073ffffffffffffffffffffffffffffffffffffffff82169050919050565b6000620003c7826200039a565b9050919050565b620003d981620003ba565b82525050565b6000604082019050620003f66000830185620003ce565b620004056020830184620003ce565b9392505050565b6000602082019050620004236000830184620003ce565b92915050565b7f4e487b7100000000000000000000000000000000000000000000000000000000600052602260045260246000fd5b600060028204905060018216806200047157607f821691505b60208210810362000487576200048662000429565b5b50919050565b61444c806200049d6000396000f3fe6080604052600436106101e25760003560e01c80635710f6fa11610102578063a3895fff11610095578063e8a3d48511610064578063e8a3d48514610734578063e985e9c51461075f578063f242432a1461079c578063f2fde38b146107c5576101e2565b8063a3895fff1461067c578063b8a6b12e146106a5578063e33a06af146106ce578063e5afe3e6146106f7576101e2565b8063938e3d7b116100d1578063938e3d7b146105c2578063953f97aa146105eb57806395d89b4114610628578063a22cb46514610653576101e2565b80635710f6fa146104e0578063604024191461051d5780637d2f85d11461055a5780638da5cb5b14610597576101e2565b80632eb2c2d61161017a5780633ccfd60b116101495780633ccfd60b1461044557806341f434341461044f5780634e1273f41461047a5780635353a2d8146104b7576101e2565b80632eb2c2d61461038957806332e350c7146103b257806335a6907a146103dd5780633adef28d14610408576101e2565b80630e89341c116101b65780630e89341c146102b5578063151eed91146102f25780631b2ef1ca1461032f5780632a55205a1461034b576101e2565b8062fdd58e146101e757806301ffc9a71461022457806304634d8d1461026157806306fdde031461028a575b600080fd5b3480156101f357600080fd5b5061020e60048036038101906102099190612cb1565b610802565b60405161021b9190612d00565b60405180910390f35b34801561023057600080fd5b5061024b60048036038101906102469190612d73565b610827565b6040516102589190612dbb565b60405180910390f35b34801561026d57600080fd5b5061028860048036038101906102839190612e1a565b610849565b005b34801561029657600080fd5b5061029f6108e7565b6040516102ac9190612ef3565b60405180910390f35b3480156102c157600080fd5b506102dc60048036038101906102d79190612f15565b610975565b6040516102e99190612ef3565b60405180910390f35b3480156102fe57600080fd5b5061031960048036038101906103149190612f15565b610a1a565b6040516103269190612d00565b60405180910390f35b61034960048036038101906103449190612f42565b610a32565b005b34801561035757600080fd5b50610372600480360381019061036d9190612f42565b610c52565b604051610380929190612f91565b60405180910390f35b34801561039557600080fd5b506103b060048036038101906103ab9190613075565b610e3c565b005b3480156103be57600080fd5b506103c7610e95565b6040516103d49190613151565b60405180910390f35b3480156103e957600080fd5b506103f2610ebb565b6040516103ff9190612ef3565b60405180910390f35b34801561041457600080fd5b5061042f600480360381019061042a9190612f15565b610f49565b60405161043c9190612d00565b60405180910390f35b61044d610f61565b005b34801561045b57600080fd5b50610464611215565b60405161047191906131cb565b60405180910390f35b34801561048657600080fd5b506104a1600480360381019061049c919061323c565b611227565b6040516104ae919061337b565b60405180910390f35b3480156104c357600080fd5b506104de60048036038101906104d991906134cd565b611390565b005b3480156104ec57600080fd5b5061050760048036038101906105029190612f15565b61143a565b6040516105149190612d00565b60405180910390f35b34801561052957600080fd5b50610544600480360381019061053f9190612f15565b611452565b6040516105519190612d00565b60405180910390f35b34801561056657600080fd5b50610581600480360381019061057c9190612f15565b61146a565b60405161058e9190612d00565b60405180910390f35b3480156105a357600080fd5b506105ac611482565b6040516105b99190613151565b60405180910390f35b3480156105ce57600080fd5b506105e960048036038101906105e491906134cd565b6114a8565b005b3480156105f757600080fd5b50610612600480360381019061060d9190612f15565b611552565b60405161061f9190612ef3565b60405180910390f35b34801561063457600080fd5b5061063d6115f2565b60405161064a9190612ef3565b60405180910390f35b34801561065f57600080fd5b5061067a60048036038101906106759190613542565b611680565b005b34801561068857600080fd5b506106a3600480360381019061069e91906134cd565b611699565b005b3480156106b157600080fd5b506106cc60048036038101906106c79190613582565b611743565b005b3480156106da57600080fd5b506106f560048036038101906106f09190613651565b611829565b005b34801561070357600080fd5b5061071e60048036038101906107199190612f15565b611962565b60405161072b9190612d00565b60405180910390f35b34801561074057600080fd5b5061074961197a565b6040516107569190612ef3565b60405180910390f35b34801561076b57600080fd5b506107866004803603810190610781919061370f565b611a0c565b6040516107939190612dbb565b60405180910390f35b3480156107a857600080fd5b506107c360048036038101906107be919061374f565b611a3b565b005b3480156107d157600080fd5b506107ec60048036038101906107e791906137e9565b611a90565b6040516107f99190613151565b60405180910390f35b6000602052816000526040600020602052806000526040600020600091509150505481565b600061083282611bfc565b80610842575061084182611c8e565b5b9050919050565b600b60009054906101000a900473ffffffffffffffffffffffffffffffffffffffff1673ffffffffffffffffffffffffffffffffffffffff163373ffffffffffffffffffffffffffffffffffffffff16146108d9576040517f08c379a00000000000000000000000000000000000000000000000000000000081526004016108d090613862565b60405180910390fd5b6108e38282611d08565b5050565b600d80546108f4906138b1565b80601f0160208091040260200160405190810160405280929190818152602001828054610920906138b1565b801561096d5780601f106109425761010080835404028352916020019161096d565b820191906000526020600020905b81548152906001019060200180831161095057829003601f168201915b505050505081565b6060600460008381526020019081526020016000208054610995906138b1565b80601f01602080910402602001604051908101604052809291908181526020018280546109c1906138b1565b8015610a0e5780601f106109e357610100808354040283529160200191610a0e565b820191906000526020600020905b8154815290600101906020018083116109f157829003601f168201915b50505050509050919050565b60086020528060005260406000206000915090505481565b6006600083815260200190815260200160002054421015610a88576040517f08c379a0000000000000000000000000000000000000000000000000000000008152600401610a7f9061392e565b60405180910390fd5b6007600083815260200190815260200160002054421115610ade576040517f08c379a0000000000000000000000000000000000000000000000000000000008152600401610ad59061399a565b60405180910390fd5b6008600083815260200190815260200160002054816009600085815260200190815260200160002054610b1191906139e9565b1115610b52576040517f08c379a0000000000000000000000000000000000000000000000000000000008152600401610b4990613a8b565b60405180910390fd5b34816005600085815260200190815260200160002054610b729190613aab565b1115610bb3576040517f08c379a0000000000000000000000000000000000000000000000000000000008152600401610baa90613b51565b60405180910390fd5b600a600083815260200190815260200160002054811115610c09576040517f08c379a0000000000000000000000000000000000000000000000000000000008152600401610c0090613bbd565b60405180910390fd5b80600960008481526020019081526020016000206000828254610c2c91906139e9565b92505081905550610c4e33838360405180602001604052806000815250611e9d565b5050565b6000806000600360008681526020019081526020016000206040518060400160405290816000820160009054906101000a900473ffffffffffffffffffffffffffffffffffffffff1673ffffffffffffffffffffffffffffffffffffffff1673ffffffffffffffffffffffffffffffffffffffff1681526020016000820160149054906101000a90046bffffffffffffffffffffffff166bffffffffffffffffffffffff166bffffffffffffffffffffffff16815250509050600073ffffffffffffffffffffffffffffffffffffffff16816000015173ffffffffffffffffffffffffffffffffffffffff1603610de75760026040518060400160405290816000820160009054906101000a900473ffffffffffffffffffffffffffffffffffffffff1673ffffffffffffffffffffffffffffffffffffffff1673ffffffffffffffffffffffffffffffffffffffff1681526020016000820160149054906101000a90046bffffffffffffffffffffffff166bffffffffffffffffffffffff166bffffffffffffffffffffffff168152505090505b6000610df16120e9565b6bffffffffffffffffffffffff1682602001516bffffffffffffffffffffffff1686610e1d9190613aab565b610e279190613c0c565b90508160000151819350935050509250929050565b873373ffffffffffffffffffffffffffffffffffffffff168173ffffffffffffffffffffffffffffffffffffffff1614610e7a57610e79336120f3565b5b610e8a89898989898989896121f0565b505050505050505050565b600c60009054906101000a900473ffffffffffffffffffffffffffffffffffffffff1681565b600e8054610ec8906138b1565b80601f0160208091040260200160405190810160405280929190818152602001828054610ef4906138b1565b8015610f415780601f10610f1657610100808354040283529160200191610f41565b820191906000526020600020905b815481529060010190602001808311610f2457829003601f168201915b505050505081565b60076020528060005260406000206000915090505481565b600b60009054906101000a900473ffffffffffffffffffffffffffffffffffffffff1673ffffffffffffffffffffffffffffffffffffffff163373ffffffffffffffffffffffffffffffffffffffff16148061100a5750600c60009054906101000a900473ffffffffffffffffffffffffffffffffffffffff1673ffffffffffffffffffffffffffffffffffffffff163373ffffffffffffffffffffffffffffffffffffffff16145b611049576040517f08c379a000000000000000000000000000000000000000000000000000000000815260040161104090613c89565b60405180910390fd5b3273ffffffffffffffffffffffffffffffffffffffff163373ffffffffffffffffffffffffffffffffffffffff16146110b7576040517f08c379a00000000000000000000000000000000000000000000000000000000081526004016110ae90613cf5565b60405180910390fd5b60004790506000600c60009054906101000a900473ffffffffffffffffffffffffffffffffffffffff1673ffffffffffffffffffffffffffffffffffffffff1660646005846111069190613aab565b6111109190613c0c565b60405161111c90613d46565b60006040518083038185875af1925050503d8060008114611159576040519150601f19603f3d011682016040523d82523d6000602084013e61115e565b606091505b50509050806111a2576040517f08c379a000000000000000000000000000000000000000000000000000000000815260040161119990613da7565b60405180910390fd5b6000479050600b60009054906101000a900473ffffffffffffffffffffffffffffffffffffffff1673ffffffffffffffffffffffffffffffffffffffff166108fc829081150290604051600060405180830381858888f1935050505015801561120f573d6000803e3d6000fd5b50505050565b6daaeb6d7670e522a718067333cd4e81565b6060828290508585905014611271576040517f08c379a000000000000000000000000000000000000000000000000000000000815260040161126890613e13565b60405180910390fd5b8484905067ffffffffffffffff81111561128e5761128d6133a2565b5b6040519080825280602002602001820160405280156112bc5781602001602082028036833780820191505090505b50905060005b85859050811015611387576000808787848181106112e3576112e2613e33565b5b90506020020160208101906112f891906137e9565b73ffffffffffffffffffffffffffffffffffffffff1673ffffffffffffffffffffffffffffffffffffffff168152602001908152602001600020600085858481811061134757611346613e33565b5b905060200201358152602001908152602001600020548282815181106113705761136f613e33565b5b6020026020010181815250508060010190506112c2565b50949350505050565b600b60009054906101000a900473ffffffffffffffffffffffffffffffffffffffff1673ffffffffffffffffffffffffffffffffffffffff163373ffffffffffffffffffffffffffffffffffffffff1614611420576040517f08c379a000000000000000000000000000000000000000000000000000000000815260040161141790613862565b60405180910390fd5b80600d9080519060200190611436929190612b66565b5050565b60066020528060005260406000206000915090505481565b600a6020528060005260406000206000915090505481565b60096020528060005260406000206000915090505481565b600b60009054906101000a900473ffffffffffffffffffffffffffffffffffffffff1681565b600b60009054906101000a900473ffffffffffffffffffffffffffffffffffffffff1673ffffffffffffffffffffffffffffffffffffffff163373ffffffffffffffffffffffffffffffffffffffff1614611538576040517f08c379a000000000000000000000000000000000000000000000000000000000815260040161152f90613862565b60405180910390fd5b80600e908051906020019061154e929190612b66565b5050565b60046020528060005260406000206000915090508054611571906138b1565b80601f016020809104026020016040519081016040528092919081815260200182805461159d906138b1565b80156115ea5780601f106115bf576101008083540402835291602001916115ea565b820191906000526020600020905b8154815290600101906020018083116115cd57829003601f168201915b505050505081565b600f80546115ff906138b1565b80601f016020809104026020016040519081016040528092919081815260200182805461162b906138b1565b80156116785780601f1061164d57610100808354040283529160200191611678565b820191906000526020600020905b81548152906001019060200180831161165b57829003601f168201915b505050505081565b8161168a816120f3565b611694838361264c565b505050565b600b60009054906101000a900473ffffffffffffffffffffffffffffffffffffffff1673ffffffffffffffffffffffffffffffffffffffff163373ffffffffffffffffffffffffffffffffffffffff1614611729576040517f08c379a000000000000000000000000000000000000000000000000000000000815260040161172090613862565b60405180910390fd5b80600f908051906020019061173f929190612b66565b5050565b600b60009054906101000a900473ffffffffffffffffffffffffffffffffffffffff1673ffffffffffffffffffffffffffffffffffffffff163373ffffffffffffffffffffffffffffffffffffffff16146117d3576040517f08c379a00000000000000000000000000000000000000000000000000000000081526004016117ca90613862565b60405180910390fd5b84600d90805190602001906117e9929190612b66565b5083600f9080519060200190611800929190612b66565b5082600e9080519060200190611817929190612b66565b506118228282610849565b5050505050565b600b60009054906101000a900473ffffffffffffffffffffffffffffffffffffffff1673ffffffffffffffffffffffffffffffffffffffff163373ffffffffffffffffffffffffffffffffffffffff16146118b9576040517f08c379a00000000000000000000000000000000000000000000000000000000081526004016118b090613862565b60405180910390fd5b856004600089815260200190815260200160002090805190602001906118e0929190612b66565b5084600560008981526020019081526020016000208190555083600660008981526020019081526020016000208190555082600760008981526020019081526020016000208190555081600860008981526020019081526020016000208190555080600a60008981526020019081526020016000208190555050505050505050565b60056020528060005260406000206000915090505481565b6060600e8054611989906138b1565b80601f01602080910402602001604051908101604052809291908181526020018280546119b5906138b1565b8015611a025780601f106119d757610100808354040283529160200191611a02565b820191906000526020600020905b8154815290600101906020018083116119e557829003601f168201915b5050505050905090565b60016020528160005260406000206020528060005260406000206000915091509054906101000a900460ff1681565b853373ffffffffffffffffffffffffffffffffffffffff168173ffffffffffffffffffffffffffffffffffffffff1614611a7957611a78336120f3565b5b611a87878787878787612749565b50505050505050565b6000600b60009054906101000a900473ffffffffffffffffffffffffffffffffffffffff1673ffffffffffffffffffffffffffffffffffffffff163373ffffffffffffffffffffffffffffffffffffffff1614611b22576040517f08c379a0000000000000000000000000000000000000000000000000000000008152600401611b1990613862565b60405180910390fd5b600073ffffffffffffffffffffffffffffffffffffffff168273ffffffffffffffffffffffffffffffffffffffff1603611b91576040517f08c379a0000000000000000000000000000000000000000000000000000000008152600401611b8890613ed4565b60405180910390fd5b81600b60006101000a81548173ffffffffffffffffffffffffffffffffffffffff021916908373ffffffffffffffffffffffffffffffffffffffff160217905550600b60009054906101000a900473ffffffffffffffffffffffffffffffffffffffff169050919050565b60006301ffc9a760e01b827bffffffffffffffffffffffffffffffffffffffffffffffffffffffff19161480611c57575063d9b67a2660e01b827bffffffffffffffffffffffffffffffffffffffffffffffffffffffff1916145b80611c875750630e89341c60e01b827bffffffffffffffffffffffffffffffffffffffffffffffffffffffff1916145b9050919050565b60007f2a55205a000000000000000000000000000000000000000000000000000000007bffffffffffffffffffffffffffffffffffffffffffffffffffffffff1916827bffffffffffffffffffffffffffffffffffffffffffffffffffffffff19161480611d015750611d0082612afc565b5b9050919050565b611d106120e9565b6bffffffffffffffffffffffff16816bffffffffffffffffffffffff161115611d6e576040517f08c379a0000000000000000000000000000000000000000000000000000000008152600401611d6590613f66565b60405180910390fd5b600073ffffffffffffffffffffffffffffffffffffffff168273ffffffffffffffffffffffffffffffffffffffff1603611ddd576040517f08c379a0000000000000000000000000000000000000000000000000000000008152600401611dd490613fd2565b60405180910390fd5b60405180604001604052808373ffffffffffffffffffffffffffffffffffffffff168152602001826bffffffffffffffffffffffff16815250600260008201518160000160006101000a81548173ffffffffffffffffffffffffffffffffffffffff021916908373ffffffffffffffffffffffffffffffffffffffff16021790555060208201518160000160146101000a8154816bffffffffffffffffffffffff02191690836bffffffffffffffffffffffff1602179055509050505050565b816000808673ffffffffffffffffffffffffffffffffffffffff1673ffffffffffffffffffffffffffffffffffffffff16815260200190815260200160002060008581526020019081526020016000206000828254611efc91906139e9565b925050819055508373ffffffffffffffffffffffffffffffffffffffff16600073ffffffffffffffffffffffffffffffffffffffff163373ffffffffffffffffffffffffffffffffffffffff167fc3d58168c5ae7397731d063d5bbf3d657854427343f4c083240f7aacaa2d0f628686604051611f7a929190613ff2565b60405180910390a460008473ffffffffffffffffffffffffffffffffffffffff163b146120725763f23a6e6160e01b7bffffffffffffffffffffffffffffffffffffffffffffffffffffffff19168473ffffffffffffffffffffffffffffffffffffffff1663f23a6e613360008787876040518663ffffffff1660e01b815260040161200a959493929190614070565b6020604051808303816000875af1158015612029573d6000803e3d6000fd5b505050506040513d601f19601f8201168201806040525081019061204d91906140df565b7bffffffffffffffffffffffffffffffffffffffffffffffffffffffff1916146120a4565b600073ffffffffffffffffffffffffffffffffffffffff168473ffffffffffffffffffffffffffffffffffffffff1614155b6120e3576040517f08c379a00000000000000000000000000000000000000000000000000000000081526004016120da90614158565b60405180910390fd5b50505050565b6000612710905090565b60006daaeb6d7670e522a718067333cd4e73ffffffffffffffffffffffffffffffffffffffff163b11156121ed576daaeb6d7670e522a718067333cd4e73ffffffffffffffffffffffffffffffffffffffff1663c617113430836040518363ffffffff1660e01b815260040161216a929190614178565b602060405180830381865afa158015612187573d6000803e3d6000fd5b505050506040513d601f19601f820116820180604052508101906121ab91906141b6565b6121ec57806040517fede71dcc0000000000000000000000000000000000000000000000000000000081526004016121e39190613151565b60405180910390fd5b5b50565b838390508686905014612238576040517f08c379a000000000000000000000000000000000000000000000000000000000815260040161222f90613e13565b60405180910390fd5b8773ffffffffffffffffffffffffffffffffffffffff163373ffffffffffffffffffffffffffffffffffffffff1614806122f85750600160008973ffffffffffffffffffffffffffffffffffffffff1673ffffffffffffffffffffffffffffffffffffffff16815260200190815260200160002060003373ffffffffffffffffffffffffffffffffffffffff1673ffffffffffffffffffffffffffffffffffffffff16815260200190815260200160002060009054906101000a900460ff165b612337576040517f08c379a000000000000000000000000000000000000000000000000000000000815260040161232e9061422f565b60405180910390fd5b60008060005b888890508110156124575788888281811061235b5761235a613e33565b5b90506020020135925086868281811061237757612376613e33565b5b905060200201359150816000808d73ffffffffffffffffffffffffffffffffffffffff1673ffffffffffffffffffffffffffffffffffffffff168152602001908152602001600020600085815260200190815260200160002060008282546123df919061424f565b92505081905550816000808c73ffffffffffffffffffffffffffffffffffffffff1673ffffffffffffffffffffffffffffffffffffffff1681526020019081526020016000206000858152602001908152602001600020600082825461244591906139e9565b9250508190555080600101905061233d565b508873ffffffffffffffffffffffffffffffffffffffff168a73ffffffffffffffffffffffffffffffffffffffff163373ffffffffffffffffffffffffffffffffffffffff167f4a39dc06d4c0dbc64b70af90fd698a233a518aa5d07e595d983b8c0526c8f7fb8b8b8b8b6040516124d294939291906142e4565b60405180910390a460008973ffffffffffffffffffffffffffffffffffffffff163b146125cf5763bc197c8160e01b7bffffffffffffffffffffffffffffffffffffffffffffffffffffffff19168973ffffffffffffffffffffffffffffffffffffffff1663bc197c81338d8c8c8c8c8c8c6040518963ffffffff1660e01b815260040161256798979695949392919061434c565b6020604051808303816000875af1158015612586573d6000803e3d6000fd5b505050506040513d601f19601f820116820180604052508101906125aa91906140df565b7bffffffffffffffffffffffffffffffffffffffffffffffffffffffff191614612601565b600073ffffffffffffffffffffffffffffffffffffffff168973ffffffffffffffffffffffffffffffffffffffff1614155b612640576040517f08c379a000000000000000000000000000000000000000000000000000000000815260040161263790614158565b60405180910390fd5b50505050505050505050565b80600160003373ffffffffffffffffffffffffffffffffffffffff1673ffffffffffffffffffffffffffffffffffffffff16815260200190815260200160002060008473ffffffffffffffffffffffffffffffffffffffff1673ffffffffffffffffffffffffffffffffffffffff16815260200190815260200160002060006101000a81548160ff0219169083151502179055508173ffffffffffffffffffffffffffffffffffffffff163373ffffffffffffffffffffffffffffffffffffffff167f17307eab39ab6107e8899845ad3d59bd9653f200f220920489ca2b5937696c318360405161273d9190612dbb565b60405180910390a35050565b8573ffffffffffffffffffffffffffffffffffffffff163373ffffffffffffffffffffffffffffffffffffffff1614806128095750600160008773ffffffffffffffffffffffffffffffffffffffff1673ffffffffffffffffffffffffffffffffffffffff16815260200190815260200160002060003373ffffffffffffffffffffffffffffffffffffffff1673ffffffffffffffffffffffffffffffffffffffff16815260200190815260200160002060009054906101000a900460ff165b612848576040517f08c379a000000000000000000000000000000000000000000000000000000000815260040161283f9061422f565b60405180910390fd5b826000808873ffffffffffffffffffffffffffffffffffffffff1673ffffffffffffffffffffffffffffffffffffffff168152602001908152602001600020600086815260200190815260200160002060008282546128a7919061424f565b92505081905550826000808773ffffffffffffffffffffffffffffffffffffffff1673ffffffffffffffffffffffffffffffffffffffff1681526020019081526020016000206000868152602001908152602001600020600082825461290d91906139e9565b925050819055508473ffffffffffffffffffffffffffffffffffffffff168673ffffffffffffffffffffffffffffffffffffffff163373ffffffffffffffffffffffffffffffffffffffff167fc3d58168c5ae7397731d063d5bbf3d657854427343f4c083240f7aacaa2d0f62878760405161298a929190613ff2565b60405180910390a460008573ffffffffffffffffffffffffffffffffffffffff163b14612a835763f23a6e6160e01b7bffffffffffffffffffffffffffffffffffffffffffffffffffffffff19168573ffffffffffffffffffffffffffffffffffffffff1663f23a6e613389888888886040518763ffffffff1660e01b8152600401612a1b969594939291906143ba565b6020604051808303816000875af1158015612a3a573d6000803e3d6000fd5b505050506040513d601f19601f82011682018060405250810190612a5e91906140df565b7bffffffffffffffffffffffffffffffffffffffffffffffffffffffff191614612ab5565b600073ffffffffffffffffffffffffffffffffffffffff168573ffffffffffffffffffffffffffffffffffffffff1614155b612af4576040517f08c379a0000000000000000000000000000000000000000000000000000000008152600401612aeb90614158565b60405180910390fd5b505050505050565b60007f01ffc9a7000000000000000000000000000000000000000000000000000000007bffffffffffffffffffffffffffffffffffffffffffffffffffffffff1916827bffffffffffffffffffffffffffffffffffffffffffffffffffffffff1916149050919050565b828054612b72906138b1565b90600052602060002090601f016020900481019282612b945760008555612bdb565b82601f10612bad57805160ff1916838001178555612bdb565b82800160010185558215612bdb579182015b82811115612bda578251825591602001919060010190612bbf565b5b509050612be89190612bec565b5090565b5b80821115612c05576000816000905550600101612bed565b5090565b6000604051905090565b600080fd5b600080fd5b600073ffffffffffffffffffffffffffffffffffffffff82169050919050565b6000612c4882612c1d565b9050919050565b612c5881612c3d565b8114612c6357600080fd5b50565b600081359050612c7581612c4f565b92915050565b6000819050919050565b612c8e81612c7b565b8114612c9957600080fd5b50565b600081359050612cab81612c85565b92915050565b60008060408385031215612cc857612cc7612c13565b5b6000612cd685828601612c66565b9250506020612ce785828601612c9c565b9150509250929050565b612cfa81612c7b565b82525050565b6000602082019050612d156000830184612cf1565b92915050565b60007fffffffff0000000000000000000000000000000000000000000000000000000082169050919050565b612d5081612d1b565b8114612d5b57600080fd5b50565b600081359050612d6d81612d47565b92915050565b600060208284031215612d8957612d88612c13565b5b6000612d9784828501612d5e565b91505092915050565b60008115159050919050565b612db581612da0565b82525050565b6000602082019050612dd06000830184612dac565b92915050565b60006bffffffffffffffffffffffff82169050919050565b612df781612dd6565b8114612e0257600080fd5b50565b600081359050612e1481612dee565b92915050565b60008060408385031215612e3157612e30612c13565b5b6000612e3f85828601612c66565b9250506020612e5085828601612e05565b9150509250929050565b600081519050919050565b600082825260208201905092915050565b60005b83811015612e94578082015181840152602081019050612e79565b83811115612ea3576000848401525b50505050565b6000601f19601f8301169050919050565b6000612ec582612e5a565b612ecf8185612e65565b9350612edf818560208601612e76565b612ee881612ea9565b840191505092915050565b60006020820190508181036000830152612f0d8184612eba565b905092915050565b600060208284031215612f2b57612f2a612c13565b5b6000612f3984828501612c9c565b91505092915050565b60008060408385031215612f5957612f58612c13565b5b6000612f6785828601612c9c565b9250506020612f7885828601612c9c565b9150509250929050565b612f8b81612c3d565b82525050565b6000604082019050612fa66000830185612f82565b612fb36020830184612cf1565b9392505050565b600080fd5b600080fd5b600080fd5b60008083601f840112612fdf57612fde612fba565b5b8235905067ffffffffffffffff811115612ffc57612ffb612fbf565b5b60208301915083602082028301111561301857613017612fc4565b5b9250929050565b60008083601f84011261303557613034612fba565b5b8235905067ffffffffffffffff81111561305257613051612fbf565b5b60208301915083600182028301111561306e5761306d612fc4565b5b9250929050565b60008060008060008060008060a0898b03121561309557613094612c13565b5b60006130a38b828c01612c66565b98505060206130b48b828c01612c66565b975050604089013567ffffffffffffffff8111156130d5576130d4612c18565b5b6130e18b828c01612fc9565b9650965050606089013567ffffffffffffffff81111561310457613103612c18565b5b6131108b828c01612fc9565b9450945050608089013567ffffffffffffffff81111561313357613132612c18565b5b61313f8b828c0161301f565b92509250509295985092959890939650565b60006020820190506131666000830184612f82565b92915050565b6000819050919050565b600061319161318c61318784612c1d565b61316c565b612c1d565b9050919050565b60006131a382613176565b9050919050565b60006131b582613198565b9050919050565b6131c5816131aa565b82525050565b60006020820190506131e060008301846131bc565b92915050565b60008083601f8401126131fc576131fb612fba565b5b8235905067ffffffffffffffff81111561321957613218612fbf565b5b60208301915083602082028301111561323557613234612fc4565b5b9250929050565b6000806000806040858703121561325657613255612c13565b5b600085013567ffffffffffffffff81111561327457613273612c18565b5b613280878288016131e6565b9450945050602085013567ffffffffffffffff8111156132a3576132a2612c18565b5b6132af87828801612fc9565b925092505092959194509250565b600081519050919050565b600082825260208201905092915050565b6000819050602082019050919050565b6132f281612c7b565b82525050565b600061330483836132e9565b60208301905092915050565b6000602082019050919050565b6000613328826132bd565b61333281856132c8565b935061333d836132d9565b8060005b8381101561336e57815161335588826132f8565b975061336083613310565b925050600181019050613341565b5085935050505092915050565b60006020820190508181036000830152613395818461331d565b905092915050565b600080fd5b7f4e487b7100000000000000000000000000000000000000000000000000000000600052604160045260246000fd5b6133da82612ea9565b810181811067ffffffffffffffff821117156133f9576133f86133a2565b5b80604052505050565b600061340c612c09565b905061341882826133d1565b919050565b600067ffffffffffffffff821115613438576134376133a2565b5b61344182612ea9565b9050602081019050919050565b82818337600083830152505050565b600061347061346b8461341d565b613402565b90508281526020810184848401111561348c5761348b61339d565b5b61349784828561344e565b509392505050565b600082601f8301126134b4576134b3612fba565b5b81356134c484826020860161345d565b91505092915050565b6000602082840312156134e3576134e2612c13565b5b600082013567ffffffffffffffff81111561350157613500612c18565b5b61350d8482850161349f565b91505092915050565b61351f81612da0565b811461352a57600080fd5b50565b60008135905061353c81613516565b92915050565b6000806040838503121561355957613558612c13565b5b600061356785828601612c66565b92505060206135788582860161352d565b9150509250929050565b600080600080600060a0868803121561359e5761359d612c13565b5b600086013567ffffffffffffffff8111156135bc576135bb612c18565b5b6135c88882890161349f565b955050602086013567ffffffffffffffff8111156135e9576135e8612c18565b5b6135f58882890161349f565b945050604086013567ffffffffffffffff81111561361657613615612c18565b5b6136228882890161349f565b935050606061363388828901612c66565b925050608061364488828901612e05565b9150509295509295909350565b600080600080600080600060e0888a0312156136705761366f612c13565b5b600061367e8a828b01612c9c565b975050602088013567ffffffffffffffff81111561369f5761369e612c18565b5b6136ab8a828b0161349f565b96505060406136bc8a828b01612c9c565b95505060606136cd8a828b01612c9c565b94505060806136de8a828b01612c9c565b93505060a06136ef8a828b01612c9c565b92505060c06137008a828b01612c9c565b91505092959891949750929550565b6000806040838503121561372657613725612c13565b5b600061373485828601612c66565b925050602061374585828601612c66565b9150509250929050565b60008060008060008060a0878903121561376c5761376b612c13565b5b600061377a89828a01612c66565b965050602061378b89828a01612c66565b955050604061379c89828a01612c9c565b94505060606137ad89828a01612c9c565b935050608087013567ffffffffffffffff8111156137ce576137cd612c18565b5b6137da89828a0161301f565b92509250509295509295509295565b6000602082840312156137ff576137fe612c13565b5b600061380d84828501612c66565b91505092915050565b7f4552524f52000000000000000000000000000000000000000000000000000000600082015250565b600061384c600583612e65565b915061385782613816565b602082019050919050565b6000602082019050818103600083015261387b8161383f565b9050919050565b7f4e487b7100000000000000000000000000000000000000000000000000000000600052602260045260246000fd5b600060028204905060018216806138c957607f821691505b6020821081036138dc576138db613882565b5b50919050565b7f53616c6520686173206e6f742073746172746564000000000000000000000000600082015250565b6000613918601483612e65565b9150613923826138e2565b602082019050919050565b600060208201905081810360008301526139478161390b565b9050919050565b7f53616c652068617320656e646564000000000000000000000000000000000000600082015250565b6000613984600e83612e65565b915061398f8261394e565b602082019050919050565b600060208201905081810360008301526139b381613977565b9050919050565b7f4e487b7100000000000000000000000000000000000000000000000000000000600052601160045260246000fd5b60006139f482612c7b565b91506139ff83612c7b565b9250827fffffffffffffffffffffffffffffffffffffffffffffffffffffffffffffffff03821115613a3457613a336139ba565b5b828201905092915050565b7f4e6f7420656e6f7567682065646974696f6e73206c6566740000000000000000600082015250565b6000613a75601883612e65565b9150613a8082613a3f565b602082019050919050565b60006020820190508181036000830152613aa481613a68565b9050919050565b6000613ab682612c7b565b9150613ac183612c7b565b9250817fffffffffffffffffffffffffffffffffffffffffffffffffffffffffffffffff0483118215151615613afa57613af96139ba565b5b828202905092915050565b7f496e636f727265637420616d6f756e742073656e740000000000000000000000600082015250565b6000613b3b601583612e65565b9150613b4682613b05565b602082019050919050565b60006020820190508181036000830152613b6a81613b2e565b9050919050565b7f45786365656473206d6178206d696e7473207065722074780000000000000000600082015250565b6000613ba7601883612e65565b9150613bb282613b71565b602082019050919050565b60006020820190508181036000830152613bd681613b9a565b9050919050565b7f4e487b7100000000000000000000000000000000000000000000000000000000600052601260045260246000fd5b6000613c1782612c7b565b9150613c2283612c7b565b925082613c3257613c31613bdd565b5b828204905092915050565b7f4e6f74206f776e6572206f72204c617965727200000000000000000000000000600082015250565b6000613c73601383612e65565b9150613c7e82613c3d565b602082019050919050565b60006020820190508181036000830152613ca281613c66565b9050919050565b7f43616e6e6f742077697468647261772066726f6d206120636f6e747261637400600082015250565b6000613cdf601f83612e65565b9150613cea82613ca9565b602082019050919050565b60006020820190508181036000830152613d0e81613cd2565b9050919050565b600081905092915050565b50565b6000613d30600083613d15565b9150613d3b82613d20565b600082019050919050565b6000613d5182613d23565b9150819050919050565b7f4661696c656420746f2073656e64204574686572000000000000000000000000600082015250565b6000613d91601483612e65565b9150613d9c82613d5b565b602082019050919050565b60006020820190508181036000830152613dc081613d84565b9050919050565b7f4c454e4754485f4d49534d415443480000000000000000000000000000000000600082015250565b6000613dfd600f83612e65565b9150613e0882613dc7565b602082019050919050565b60006020820190508181036000830152613e2c81613df0565b9050919050565b7f4e487b7100000000000000000000000000000000000000000000000000000000600052603260045260246000fd5b7f43616e6e6f7420736574207a65726f2061646472657373206173206f776e657260008201527f2100000000000000000000000000000000000000000000000000000000000000602082015250565b6000613ebe602183612e65565b9150613ec982613e62565b604082019050919050565b60006020820190508181036000830152613eed81613eb1565b9050919050565b7f455243323938313a20726f79616c7479206665652077696c6c2065786365656460008201527f2073616c65507269636500000000000000000000000000000000000000000000602082015250565b6000613f50602a83612e65565b9150613f5b82613ef4565b604082019050919050565b60006020820190508181036000830152613f7f81613f43565b9050919050565b7f455243323938313a20696e76616c696420726563656976657200000000000000600082015250565b6000613fbc601983612e65565b9150613fc782613f86565b602082019050919050565b60006020820190508181036000830152613feb81613faf565b9050919050565b60006040820190506140076000830185612cf1565b6140146020830184612cf1565b9392505050565b600081519050919050565b600082825260208201905092915050565b60006140428261401b565b61404c8185614026565b935061405c818560208601612e76565b61406581612ea9565b840191505092915050565b600060a0820190506140856000830188612f82565b6140926020830187612f82565b61409f6040830186612cf1565b6140ac6060830185612cf1565b81810360808301526140be8184614037565b90509695505050505050565b6000815190506140d981612d47565b92915050565b6000602082840312156140f5576140f4612c13565b5b6000614103848285016140ca565b91505092915050565b7f554e534146455f524543495049454e5400000000000000000000000000000000600082015250565b6000614142601083612e65565b915061414d8261410c565b602082019050919050565b6000602082019050818103600083015261417181614135565b9050919050565b600060408201905061418d6000830185612f82565b61419a6020830184612f82565b9392505050565b6000815190506141b081613516565b92915050565b6000602082840312156141cc576141cb612c13565b5b60006141da848285016141a1565b91505092915050565b7f4e4f545f415554484f52495a4544000000000000000000000000000000000000600082015250565b6000614219600e83612e65565b9150614224826141e3565b602082019050919050565b600060208201905081810360008301526142488161420c565b9050919050565b600061425a82612c7b565b915061426583612c7b565b925082821015614278576142776139ba565b5b828203905092915050565b600080fd5b600061429483856132c8565b93507f07ffffffffffffffffffffffffffffffffffffffffffffffffffffffffffffff8311156142c7576142c6614283565b5b6020830292506142d883858461344e565b82840190509392505050565b600060408201905081810360008301526142ff818688614288565b90508181036020830152614314818486614288565b905095945050505050565b600061432b8385614026565b935061433883858461344e565b61434183612ea9565b840190509392505050565b600060a082019050614361600083018b612f82565b61436e602083018a612f82565b818103604083015261438181888a614288565b90508181036060830152614396818688614288565b905081810360808301526143ab81848661431f565b90509998505050505050505050565b600060a0820190506143cf6000830189612f82565b6143dc6020830188612f82565b6143e96040830187612cf1565b6143f66060830186612cf1565b818103608083015261440981848661431f565b905097965050505050505056fea2646970667358221220ddabf7f0891fd5a31e97276eda01f779abedf38704f302321e3a0ec1cd3441f964736f6c634300080d0033",
  "immutableReferences": {},
  "source": "// SPDX-License-Identifier: MIT\npragma solidity >=0.8.0 <0.9.0;\n\nimport { ERC1155 } from \"./ERC1155.sol\";\nimport \"@openzeppelin/contracts/token/common/ERC2981.sol\";\nimport \"operator-filter-registry/src/DefaultOperatorFilterer.sol\";\n\ncontract BaseLayerr1155 is DefaultOperatorFilterer, ERC1155, ERC2981 {\n\n  mapping(uint => string) public URIs;\n  mapping(uint => uint) public tokenPrices;\n  mapping(uint => uint) public tokenSaleStarts;\n  mapping(uint => uint) public tokenSaleEnds;\n  mapping(uint => uint) public tokenEditionCounts;\n  mapping(uint => uint) public tokenEditionMints;\n  mapping(uint => uint) public maxMintsPerTx;\n\n  address public owner;\n  address public LayerrXYZ;\n\n  string public name = \"Layerr1155\";\n  string public contractURI_ = \"\";\n  string public symbol = \"L1155\";\n\n  modifier onlyOwner() {\n    require(msg.sender == owner, \"ERROR\");\n    _;\n  }\n\n  function uri(uint256 id) public view virtual override returns (string memory) {\n    return URIs[id];\n  }\n\n  function contractURI() public view returns (string memory) {\n    return contractURI_;\n  }\n\n\n  function mint(uint _id, uint _amount) public payable {\n    require(block.timestamp >= tokenSaleStarts[_id], \"Sale has not started\");\n    require(block.timestamp <= tokenSaleEnds[_id], \"Sale has ended\");\n    require(tokenEditionMints[_id] + _amount <= tokenEditionCounts[_id], \"Not enough editions left\");\n    require(tokenPrices[_id] * _amount <= msg.value, \"Incorrect amount sent\");\n    require(_amount <= maxMintsPerTx[_id], \"Exceeds max mints per tx\");\n\n    tokenEditionMints[_id] += _amount;\n    _mint(msg.sender, _id, _amount, \"\");\n  }\n\n  /*\n  * OWNER FUNCTIONS\n  */\n  function setContractURI(string memory _contractURI) public onlyOwner {\n    contractURI_ = _contractURI;\n  }\n\n  function initialize (\n    string memory _name,\n    string memory _symbol,\n    string memory _contractURI,\n    address royaltyAddress,\n    uint96 pct\n  ) public onlyOwner {\n    name = _name;\n    symbol = _symbol;\n    contractURI_ = _contractURI;\n    setDefaultRoyalty(royaltyAddress, pct);\n  }\n\n  function addToken(\n    uint _id,\n    string memory _uri,\n    uint _price,\n    uint _saleStart,\n    uint _saleEnd,\n    uint _editionCount,\n    uint _maxMintsPerTx\n  ) public onlyOwner {\n    URIs[_id] = _uri;\n    tokenPrices[_id] = _price;\n    tokenSaleStarts[_id] = _saleStart;\n    tokenSaleEnds[_id] = _saleEnd;\n    tokenEditionCounts[_id] = _editionCount;\n    maxMintsPerTx[_id] = _maxMintsPerTx;\n  }\n\n  function supportsInterface(bytes4 interfaceId) public view virtual override(ERC1155, ERC2981) returns (bool) {\n    return \n      ERC1155.supportsInterface(interfaceId) ||\n      ERC2981.supportsInterface(interfaceId);\n  }\n\n  function setDefaultRoyalty(address receiver, uint96 feeNumerator) public onlyOwner {\n    _setDefaultRoyalty(receiver, feeNumerator);\n  }\n\n  function changeName(string memory _name) external onlyOwner {\n    name = _name;\n  }\n\n  function changeSymbol(string memory _symbol) external onlyOwner {\n    symbol = _symbol;\n  }\n\n  function withdraw() public payable {\n    require(msg.sender == owner || msg.sender == LayerrXYZ, \"Not owner or Layerr\");\n    require(msg.sender == tx.origin, \"Cannot withdraw from a contract\");\n    uint256 contractBalance = address(this).balance;\n\n    (bool sent, ) = LayerrXYZ.call{value: contractBalance*5/100}(\"\");\n    require(sent, \"Failed to send Ether\");\n\n    uint256 remainingContractBalance = address(this).balance;\n    payable(owner).transfer(remainingContractBalance);\n  }\n\n  function transferOwnership(address newOwner) onlyOwner external returns(address) {\n    require(newOwner != address(0), \"Cannot set zero address as owner!\");\n    owner = newOwner;\n    return(owner);\n  }\n\n  /*\n  * OPENSEA OVERRIDES\n  */\n\n  function setApprovalForAll(address operator, bool approved) public override onlyAllowedOperatorApproval(operator) {\n    super.setApprovalForAll(operator, approved);\n  }\n\n  function safeTransferFrom(address from, address to, uint256 tokenId, uint256 amount, bytes calldata data)\n    public\n    override\n    onlyAllowedOperator(from)\n  {\n    super.safeTransferFrom(from, to, tokenId, amount, data);\n  }\n\n  function safeBatchTransferFrom(\n    address from,\n    address to,\n    uint256[] calldata ids,\n    uint256[] calldata amounts,\n    bytes calldata data\n  ) public virtual override onlyAllowedOperator(from) {\n    super.safeBatchTransferFrom(from, to, ids, amounts, data);\n  }\n\n}\n",
  "sourcePath": "/Users/jack/cryptotech/nimany-1155/contracts/BaseLayerr1155.sol",
  "compiler": {
    "name": "solc",
    "version": "0.8.13+commit.abaa5c0e.Emscripten.clang"
  },
  "schemaVersion": "3.4.10",
  "updatedAt": "2022-12-21T19:42:47.490Z",
  "devdoc": {
    "kind": "dev",
    "methods": {
      "royaltyInfo(uint256,uint256)": {
        "details": "Returns how much royalty is owed and to whom, based on a sale price that may be denominated in any unit of exchange. The royalty amount is denominated and should be paid in that same unit of exchange."
      }
    },
    "version": 1
  },
  "userdoc": {
    "kind": "user",
    "methods": {},
    "version": 1
  }
}