{
  "contractName": "LayerrFactory",
  "abi": [
    {
      "anonymous": false,
      "inputs": [
        {
          "indexed": true,
          "internalType": "address",
          "name": "previousOwner",
          "type": "address"
        },
        {
          "indexed": true,
          "internalType": "address",
          "name": "newOwner",
          "type": "address"
        }
      ],
      "name": "OwnershipTransferred",
      "type": "event"
    },
    {
      "inputs": [],
      "name": "LayerrXYZ",
      "outputs": [
        {
          "internalType": "address",
          "name": "",
          "type": "address"
        }
      ],
      "stateMutability": "view",
      "type": "function",
      "constant": true
    },
    {
      "inputs": [
        {
          "internalType": "address",
          "name": "",
          "type": "address"
        },
        {
          "internalType": "uint256",
          "name": "",
          "type": "uint256"
        }
      ],
      "name": "allClones",
      "outputs": [
        {
          "internalType": "address",
          "name": "",
          "type": "address"
        }
      ],
      "stateMutability": "view",
      "type": "function",
      "constant": true
    },
    {
      "inputs": [],
      "name": "implementation1155",
      "outputs": [
        {
          "internalType": "address",
          "name": "",
          "type": "address"
        }
      ],
      "stateMutability": "view",
      "type": "function",
      "constant": true
    },
    {
      "inputs": [],
      "name": "implementation721",
      "outputs": [
        {
          "internalType": "address",
          "name": "",
          "type": "address"
        }
      ],
      "stateMutability": "view",
      "type": "function",
      "constant": true
    },
    {
      "inputs": [],
      "name": "owner",
      "outputs": [
        {
          "internalType": "address",
          "name": "",
          "type": "address"
        }
      ],
      "stateMutability": "view",
      "type": "function",
      "constant": true
    },
    {
      "inputs": [
        {
          "internalType": "string",
          "name": "",
          "type": "string"
        }
      ],
      "name": "projectIdToAddress",
      "outputs": [
        {
          "internalType": "address",
          "name": "",
          "type": "address"
        }
      ],
      "stateMutability": "view",
      "type": "function",
      "constant": true
    },
    {
      "inputs": [],
      "name": "renounceOwnership",
      "outputs": [],
      "stateMutability": "nonpayable",
      "type": "function"
    },
    {
      "inputs": [
        {
          "internalType": "address",
          "name": "newOwner",
          "type": "address"
        }
      ],
      "name": "transferOwnership",
      "outputs": [],
      "stateMutability": "nonpayable",
      "type": "function"
    },
    {
      "inputs": [
        {
          "internalType": "address",
          "name": "_implementation",
          "type": "address"
        },
        {
          "internalType": "uint256",
          "name": "contractType",
          "type": "uint256"
        }
      ],
      "name": "setImplementation",
      "outputs": [],
      "stateMutability": "nonpayable",
      "type": "function"
    },
    {
      "inputs": [
        {
          "internalType": "string",
          "name": "_name",
          "type": "string"
        },
        {
          "internalType": "string",
          "name": "_symbol",
          "type": "string"
        },
        {
          "internalType": "string",
          "name": "_contractURI",
          "type": "string"
        },
        {
          "internalType": "uint96",
          "name": "pct",
          "type": "uint96"
        },
        {
          "internalType": "address",
          "name": "royaltyReciever",
          "type": "address"
        },
        {
          "internalType": "string",
          "name": "projectId",
          "type": "string"
        },
        {
          "internalType": "bool",
          "name": "subscribeOpensea",
          "type": "bool"
        }
      ],
      "name": "_clone1155",
      "outputs": [],
      "stateMutability": "nonpayable",
      "type": "function"
    },
    {
      "inputs": [
        {
          "internalType": "string",
          "name": "_name",
          "type": "string"
        },
        {
          "internalType": "string",
          "name": "_symbol",
          "type": "string"
        },
        {
          "internalType": "string",
          "name": "_contractURI",
          "type": "string"
        },
        {
          "internalType": "uint96",
          "name": "pct",
          "type": "uint96"
        },
        {
          "internalType": "address",
          "name": "royaltyReciever",
          "type": "address"
        },
        {
          "internalType": "string",
          "name": "projectId",
          "type": "string"
        },
        {
          "internalType": "bool",
          "name": "subscribeOpensea",
          "type": "bool"
        }
      ],
      "name": "_clone721",
      "outputs": [],
      "stateMutability": "nonpayable",
      "type": "function"
    },
    {
      "inputs": [
        {
          "internalType": "address",
          "name": "_owner",
          "type": "address"
        }
      ],
      "name": "returnClones",
      "outputs": [
        {
          "internalType": "address[]",
          "name": "",
          "type": "address[]"
        }
      ],
      "stateMutability": "view",
      "type": "function",
      "constant": true
    }
  ],
  "bytecode": "0x6080604052600380546001600160a01b031916731602b3707a9213a313bc21337ae93c947b4929b417905534801561003657600080fd5b5061004033610045565b610095565b600080546001600160a01b038381166001600160a01b0319831681178455604051919092169283917f8be0079c531659141344cd1fd0a4f28419497f9722a3daafe3b4186f6b6457e09190a35050565b610a64806100a46000396000f3fe608060405234801561001057600080fd5b50600436106100d45760003560e01c80637f3d5a341161008157806397202fb11161005b57806397202fb1146101c8578063e86636d2146101db578063f2fde38b146101ee57600080fd5b80637f3d5a3414610191578063848fd1a3146101a45780638da5cb5b146101b757600080fd5b806332e350c7116100b257806332e350c71461012a578063613401ad14610155578063715018a61461018957600080fd5b80630eb84efd146100d9578063204a8463146101025780633033a4e514610117575b600080fd5b6100ec6100e736600461069f565b610201565b6040516100f991906106c1565b60405180910390f35b6101156101103660046107f6565b610277565b005b6101156101253660046108d5565b6103aa565b60035461013d906001600160a01b031681565b6040516001600160a01b0390911681526020016100f9565b61013d6101633660046108ff565b80516020818301810180516005825292820191909301209152546001600160a01b031681565b61011561041d565b61013d61019f3660046108d5565b610431565b60025461013d906001600160a01b031681565b6000546001600160a01b031661013d565b60015461013d906001600160a01b031681565b6101156101e93660046107f6565b610469565b6101156101fc36600461069f565b610481565b6001600160a01b03811660009081526004602090815260409182902080548351818402810184019094528084526060939283018282801561026b57602002820191906000526020600020905b81546001600160a01b0316815260019091019060200180831161024d575b50505050509050919050565b60025460009061028f906001600160a01b0316610516565b33600090815260046020908152604080832080546001810182559084529190922001805473ffffffffffffffffffffffffffffffffffffffff19166001600160a01b0384161790555190915081906005906102eb90869061096c565b90815260405190819003602001812080546001600160a01b0393841673ffffffffffffffffffffffffffffffffffffffff199091161790556003547fcdaff2830000000000000000000000000000000000000000000000000000000082528383169263cdaff2839261036e928d928d928d928d928d929116908b906004016109b4565b600060405180830381600087803b15801561038857600080fd5b505af115801561039c573d6000803e3d6000fd5b505050505050505050505050565b6103b26105d1565b80610483036103e7576001805473ffffffffffffffffffffffffffffffffffffffff19166001600160a01b0384161790555050565b806102d103610419576002805473ffffffffffffffffffffffffffffffffffffffff19166001600160a01b0384161790555b5050565b6104256105d1565b61042f600061062b565b565b6004602052816000526040600020818154811061044d57600080fd5b6000918252602090912001546001600160a01b03169150829050565b60015460009061028f906001600160a01b0316610516565b6104896105d1565b6001600160a01b03811661050a5760405162461bcd60e51b815260206004820152602660248201527f4f776e61626c653a206e6577206f776e657220697320746865207a65726f206160448201527f646472657373000000000000000000000000000000000000000000000000000060648201526084015b60405180910390fd5b6105138161062b565b50565b60006040517f3d602d80600a3d3981f3363d3d373d3d3d363d7300000000000000000000000081528260601b60148201527f5af43d82803e903d91602b57fd5bf3000000000000000000000000000000000060288201526037816000f09150506001600160a01b0381166105cc5760405162461bcd60e51b815260206004820152601660248201527f455243313136373a20637265617465206661696c6564000000000000000000006044820152606401610501565b919050565b6000546001600160a01b0316331461042f5760405162461bcd60e51b815260206004820181905260248201527f4f776e61626c653a2063616c6c6572206973206e6f7420746865206f776e65726044820152606401610501565b600080546001600160a01b0383811673ffffffffffffffffffffffffffffffffffffffff19831681178455604051919092169283917f8be0079c531659141344cd1fd0a4f28419497f9722a3daafe3b4186f6b6457e09190a35050565b80356001600160a01b03811681146105cc57600080fd5b6000602082840312156106b157600080fd5b6106ba82610688565b9392505050565b6020808252825182820181905260009190848201906040850190845b818110156107025783516001600160a01b0316835292840192918401916001016106dd565b50909695505050505050565b7f4e487b7100000000000000000000000000000000000000000000000000000000600052604160045260246000fd5b600082601f83011261074e57600080fd5b813567ffffffffffffffff808211156107695761076961070e565b604051601f8301601f19908116603f011681019082821181831017156107915761079161070e565b816040528381528660208588010111156107aa57600080fd5b836020870160208301376000602085830101528094505050505092915050565b80356bffffffffffffffffffffffff811681146105cc57600080fd5b803580151581146105cc57600080fd5b600080600080600080600060e0888a03121561081157600080fd5b873567ffffffffffffffff8082111561082957600080fd5b6108358b838c0161073d565b985060208a013591508082111561084b57600080fd5b6108578b838c0161073d565b975060408a013591508082111561086d57600080fd5b6108798b838c0161073d565b965061088760608b016107ca565b955061089560808b01610688565b945060a08a01359150808211156108ab57600080fd5b506108b88a828b0161073d565b9250506108c760c089016107e6565b905092959891949750929550565b600080604083850312156108e857600080fd5b6108f183610688565b946020939093013593505050565b60006020828403121561091157600080fd5b813567ffffffffffffffff81111561092857600080fd5b6109348482850161073d565b949350505050565b60005b8381101561095757818101518382015260200161093f565b83811115610966576000848401525b50505050565b6000825161097e81846020870161093c565b9190910192915050565b600081518084526109a081602086016020860161093c565b601f01601f19169290920160200192915050565b60e0815260006109c760e083018a610988565b82810360208401526109d9818a610988565b905082810360408401526109ed8189610988565b6bffffffffffffffffffffffff97909716606084015250506001600160a01b0393841660808201529190921660a082015290151560c090910152939250505056fea2646970667358221220f52f4a3e24e2752e12fe025a6ed60a50d4136a8b4ede0e5036f36bb623d3070d64736f6c634300080d0033",
  "immutableReferences": {},
  "source": "// SPDX-License-Identifier: MIT\npragma solidity >=0.8.0 <0.9.0;\n\nimport \"@openzeppelin/contracts/access/Ownable.sol\";\n\ninterface ILayerr1155 {\n  function initialize(\n    string memory _name,\n    string memory _symbol,\n    string memory _contractURI,\n    uint96 pct,\n    address royaltyReciever,\n    address _LayerrXYZ,\n    bool subscribeOpensea\n  ) external;\n}\n\ninterface ILayerr721 {\n  function initialize(\n    string memory _name,\n    string memory _symbol,\n    string memory _contractURI,\n    uint96 pct,\n    address royaltyReciever,\n    address _LayerrXYZ,\n    bool subscribeOpensea\n  ) external;\n}\n\ncontract LayerrFactory is Ownable {\n\n  address public implementation1155;\n  address public implementation721;\n\n  address public LayerrXYZ = 0x1602B3707A9213A313bc21337Ae93c947b4929B4;\n\n  mapping(address => address[]) public allClones;\n  mapping(string => address) public projectIdToAddress;\n\n  function setImplementation(address _implementation, uint contractType) external onlyOwner {\n    if (contractType == 1155) {\n      implementation1155 = _implementation;\n    } else if (contractType == 721) {\n      implementation721 = _implementation;\n    }\n  }\n\n  /**\n    * @dev Deploys and returns the address of a clone that mimics the behaviour of `implementation`.\n    *\n    * This function uses the create opcode, which should never revert.\n    */\n  function clone(address _implementation) internal returns (address instance) {\n    assembly {\n      let ptr := mload(0x40)\n      mstore(ptr, 0x3d602d80600a3d3981f3363d3d373d3d3d363d73000000000000000000000000)\n      mstore(add(ptr, 0x14), shl(0x60, _implementation))\n      mstore(add(ptr, 0x28), 0x5af43d82803e903d91602b57fd5bf30000000000000000000000000000000000)\n      instance := create(0, ptr, 0x37)\n    }\n    require(instance != address(0), \"ERC1167: create failed\");\n  }\n\n  function _clone1155(\n    string memory _name,\n    string memory _symbol,\n    string memory _contractURI,\n    uint96 pct,\n    address royaltyReciever,\n    string memory projectId,\n    bool subscribeOpensea\n  ) external {\n\n    address identicalChild = clone(implementation1155);\n    allClones[msg.sender].push(identicalChild);\n    projectIdToAddress[projectId] = identicalChild;\n    ILayerr1155(identicalChild).initialize(\n      _name,\n      _symbol,\n      _contractURI,\n      pct,\n      royaltyReciever,\n      LayerrXYZ,\n      subscribeOpensea\n    );\n  }\n\n  function _clone721(\n    string memory _name,\n    string memory _symbol,\n    string memory _contractURI,\n    uint96 pct,\n    address royaltyReciever,\n    string memory projectId,\n    bool subscribeOpensea\n  ) external {\n\n    address identicalChild = clone(implementation721);\n    allClones[msg.sender].push(identicalChild);\n    projectIdToAddress[projectId] = identicalChild;\n    ILayerr721(identicalChild).initialize(\n      _name,\n      _symbol,\n      _contractURI,\n      pct,\n      royaltyReciever,\n      LayerrXYZ,\n      subscribeOpensea\n    );\n  }\n\n  function returnClones(address _owner) external view returns (address[] memory){\n      return allClones[_owner];\n  }\n\n}",
  "sourcePath": "/Users/jack/cryptotech/nimany-1155/contracts/LayerrFactory.sol",
  "compiler": {
    "name": "solc",
    "version": "0.8.13+commit.abaa5c0e.Emscripten.clang"
  },
  "schemaVersion": "3.4.10",
  "updatedAt": "2023-02-16T21:18:27.458Z",
  "networkType": "ethereum",
  "devdoc": {
    "kind": "dev",
    "methods": {
      "owner()": {
        "details": "Returns the address of the current owner."
      },
      "renounceOwnership()": {
        "details": "Leaves the contract without owner. It will not be possible to call `onlyOwner` functions anymore. Can only be called by the current owner. NOTE: Renouncing ownership will leave the contract without an owner, thereby removing any functionality that is only available to the owner."
      },
      "transferOwnership(address)": {
        "details": "Transfers ownership of the contract to a new account (`newOwner`). Can only be called by the current owner."
      }
    },
    "version": 1
  },
  "userdoc": {
    "kind": "user",
    "methods": {},
    "version": 1
  }
}