{
  "contractName": "Layerr1155",
  "abi": [
    {
      "inputs": [
        {
          "internalType": "address",
          "name": "operator",
          "type": "address"
        }
      ],
      "name": "OperatorNotAllowed",
      "type": "error"
    },
    {
      "anonymous": false,
      "inputs": [
        {
          "indexed": true,
          "internalType": "address",
          "name": "owner",
          "type": "address"
        },
        {
          "indexed": true,
          "internalType": "address",
          "name": "operator",
          "type": "address"
        },
        {
          "indexed": false,
          "internalType": "bool",
          "name": "approved",
          "type": "bool"
        }
      ],
      "name": "ApprovalForAll",
      "type": "event"
    },
    {
      "anonymous": false,
      "inputs": [
        {
          "indexed": false,
          "internalType": "uint8",
          "name": "version",
          "type": "uint8"
        }
      ],
      "name": "Initialized",
      "type": "event"
    },
    {
      "anonymous": false,
      "inputs": [
        {
          "indexed": true,
          "internalType": "address",
          "name": "operator",
          "type": "address"
        },
        {
          "indexed": true,
          "internalType": "address",
          "name": "from",
          "type": "address"
        },
        {
          "indexed": true,
          "internalType": "address",
          "name": "to",
          "type": "address"
        },
        {
          "indexed": false,
          "internalType": "uint256[]",
          "name": "ids",
          "type": "uint256[]"
        },
        {
          "indexed": false,
          "internalType": "uint256[]",
          "name": "amounts",
          "type": "uint256[]"
        }
      ],
      "name": "TransferBatch",
      "type": "event"
    },
    {
      "anonymous": false,
      "inputs": [
        {
          "indexed": true,
          "internalType": "address",
          "name": "operator",
          "type": "address"
        },
        {
          "indexed": true,
          "internalType": "address",
          "name": "from",
          "type": "address"
        },
        {
          "indexed": true,
          "internalType": "address",
          "name": "to",
          "type": "address"
        },
        {
          "indexed": false,
          "internalType": "uint256",
          "name": "id",
          "type": "uint256"
        },
        {
          "indexed": false,
          "internalType": "uint256",
          "name": "amount",
          "type": "uint256"
        }
      ],
      "name": "TransferSingle",
      "type": "event"
    },
    {
      "anonymous": false,
      "inputs": [
        {
          "indexed": false,
          "internalType": "string",
          "name": "value",
          "type": "string"
        },
        {
          "indexed": true,
          "internalType": "uint256",
          "name": "id",
          "type": "uint256"
        }
      ],
      "name": "URI",
      "type": "event"
    },
    {
      "inputs": [],
      "name": "LayerrXYZ",
      "outputs": [
        {
          "internalType": "address",
          "name": "",
          "type": "address"
        }
      ],
      "stateMutability": "view",
      "type": "function",
      "constant": true
    },
    {
      "inputs": [],
      "name": "OPERATOR_FILTER_REGISTRY",
      "outputs": [
        {
          "internalType": "contract IOperatorFilterRegistry",
          "name": "",
          "type": "address"
        }
      ],
      "stateMutability": "view",
      "type": "function",
      "constant": true
    },
    {
      "inputs": [
        {
          "internalType": "uint256",
          "name": "",
          "type": "uint256"
        }
      ],
      "name": "URIs",
      "outputs": [
        {
          "internalType": "string",
          "name": "",
          "type": "string"
        }
      ],
      "stateMutability": "view",
      "type": "function",
      "constant": true
    },
    {
      "inputs": [
        {
          "internalType": "address",
          "name": "",
          "type": "address"
        },
        {
          "internalType": "uint256",
          "name": "",
          "type": "uint256"
        }
      ],
      "name": "balanceOf",
      "outputs": [
        {
          "internalType": "uint256",
          "name": "",
          "type": "uint256"
        }
      ],
      "stateMutability": "view",
      "type": "function",
      "constant": true
    },
    {
      "inputs": [
        {
          "internalType": "address[]",
          "name": "owners",
          "type": "address[]"
        },
        {
          "internalType": "uint256[]",
          "name": "ids",
          "type": "uint256[]"
        }
      ],
      "name": "balanceOfBatch",
      "outputs": [
        {
          "internalType": "uint256[]",
          "name": "balances",
          "type": "uint256[]"
        }
      ],
      "stateMutability": "view",
      "type": "function",
      "constant": true
    },
    {
      "inputs": [],
      "name": "contractURI_",
      "outputs": [
        {
          "internalType": "string",
          "name": "",
          "type": "string"
        }
      ],
      "stateMutability": "view",
      "type": "function",
      "constant": true
    },
    {
      "inputs": [
        {
          "internalType": "address",
          "name": "",
          "type": "address"
        },
        {
          "internalType": "address",
          "name": "",
          "type": "address"
        }
      ],
      "name": "isApprovedForAll",
      "outputs": [
        {
          "internalType": "bool",
          "name": "",
          "type": "bool"
        }
      ],
      "stateMutability": "view",
      "type": "function",
      "constant": true
    },
    {
      "inputs": [
        {
          "internalType": "uint256",
          "name": "",
          "type": "uint256"
        }
      ],
      "name": "isClaim",
      "outputs": [
        {
          "internalType": "bool",
          "name": "",
          "type": "bool"
        }
      ],
      "stateMutability": "view",
      "type": "function",
      "constant": true
    },
    {
      "inputs": [
        {
          "internalType": "uint256",
          "name": "",
          "type": "uint256"
        }
      ],
      "name": "maxMintsPerTx",
      "outputs": [
        {
          "internalType": "uint256",
          "name": "",
          "type": "uint256"
        }
      ],
      "stateMutability": "view",
      "type": "function",
      "constant": true
    },
    {
      "inputs": [],
      "name": "name",
      "outputs": [
        {
          "internalType": "string",
          "name": "",
          "type": "string"
        }
      ],
      "stateMutability": "view",
      "type": "function",
      "constant": true
    },
    {
      "inputs": [],
      "name": "owner",
      "outputs": [
        {
          "internalType": "address",
          "name": "",
          "type": "address"
        }
      ],
      "stateMutability": "view",
      "type": "function",
      "constant": true
    },
    {
      "inputs": [
        {
          "internalType": "uint256",
          "name": "",
          "type": "uint256"
        },
        {
          "internalType": "uint256",
          "name": "",
          "type": "uint256"
        }
      ],
      "name": "requiredBurnAmounts",
      "outputs": [
        {
          "internalType": "uint256",
          "name": "",
          "type": "uint256"
        }
      ],
      "stateMutability": "view",
      "type": "function",
      "constant": true
    },
    {
      "inputs": [
        {
          "internalType": "uint256",
          "name": "",
          "type": "uint256"
        },
        {
          "internalType": "uint256",
          "name": "",
          "type": "uint256"
        }
      ],
      "name": "requiredBurnIds",
      "outputs": [
        {
          "internalType": "uint256",
          "name": "",
          "type": "uint256"
        }
      ],
      "stateMutability": "view",
      "type": "function",
      "constant": true
    },
    {
      "inputs": [
        {
          "internalType": "uint256",
          "name": "",
          "type": "uint256"
        },
        {
          "internalType": "uint256",
          "name": "",
          "type": "uint256"
        }
      ],
      "name": "requiredClaimAmounts",
      "outputs": [
        {
          "internalType": "uint256",
          "name": "",
          "type": "uint256"
        }
      ],
      "stateMutability": "view",
      "type": "function",
      "constant": true
    },
    {
      "inputs": [
        {
          "internalType": "uint256",
          "name": "",
          "type": "uint256"
        },
        {
          "internalType": "uint256",
          "name": "",
          "type": "uint256"
        }
      ],
      "name": "requiredClaimIds",
      "outputs": [
        {
          "internalType": "uint256",
          "name": "",
          "type": "uint256"
        }
      ],
      "stateMutability": "view",
      "type": "function",
      "constant": true
    },
    {
      "inputs": [
        {
          "internalType": "uint256",
          "name": "_tokenId",
          "type": "uint256"
        },
        {
          "internalType": "uint256",
          "name": "_salePrice",
          "type": "uint256"
        }
      ],
      "name": "royaltyInfo",
      "outputs": [
        {
          "internalType": "address",
          "name": "",
          "type": "address"
        },
        {
          "internalType": "uint256",
          "name": "",
          "type": "uint256"
        }
      ],
      "stateMutability": "view",
      "type": "function",
      "constant": true
    },
    {
      "inputs": [],
      "name": "symbol",
      "outputs": [
        {
          "internalType": "string",
          "name": "",
          "type": "string"
        }
      ],
      "stateMutability": "view",
      "type": "function",
      "constant": true
    },
    {
      "inputs": [
        {
          "internalType": "uint256",
          "name": "",
          "type": "uint256"
        }
      ],
      "name": "tokenEditionCounts",
      "outputs": [
        {
          "internalType": "uint256",
          "name": "",
          "type": "uint256"
        }
      ],
      "stateMutability": "view",
      "type": "function",
      "constant": true
    },
    {
      "inputs": [
        {
          "internalType": "uint256",
          "name": "",
          "type": "uint256"
        }
      ],
      "name": "tokenEditionMints",
      "outputs": [
        {
          "internalType": "uint256",
          "name": "",
          "type": "uint256"
        }
      ],
      "stateMutability": "view",
      "type": "function",
      "constant": true
    },
    {
      "inputs": [
        {
          "internalType": "uint256",
          "name": "",
          "type": "uint256"
        }
      ],
      "name": "tokenPrices",
      "outputs": [
        {
          "internalType": "uint256",
          "name": "",
          "type": "uint256"
        }
      ],
      "stateMutability": "view",
      "type": "function",
      "constant": true
    },
    {
      "inputs": [
        {
          "internalType": "uint256",
          "name": "",
          "type": "uint256"
        }
      ],
      "name": "tokenSaleEnds",
      "outputs": [
        {
          "internalType": "uint256",
          "name": "",
          "type": "uint256"
        }
      ],
      "stateMutability": "view",
      "type": "function",
      "constant": true
    },
    {
      "inputs": [
        {
          "internalType": "uint256",
          "name": "",
          "type": "uint256"
        }
      ],
      "name": "tokenSaleStarts",
      "outputs": [
        {
          "internalType": "uint256",
          "name": "",
          "type": "uint256"
        }
      ],
      "stateMutability": "view",
      "type": "function",
      "constant": true
    },
    {
      "inputs": [
        {
          "internalType": "uint256",
          "name": "id",
          "type": "uint256"
        }
      ],
      "name": "uri",
      "outputs": [
        {
          "internalType": "string",
          "name": "",
          "type": "string"
        }
      ],
      "stateMutability": "view",
      "type": "function",
      "constant": true
    },
    {
      "inputs": [],
      "name": "contractURI",
      "outputs": [
        {
          "internalType": "string",
          "name": "",
          "type": "string"
        }
      ],
      "stateMutability": "view",
      "type": "function",
      "constant": true
    },
    {
      "inputs": [
        {
          "internalType": "uint256",
          "name": "_id",
          "type": "uint256"
        },
        {
          "internalType": "uint256",
          "name": "_amount",
          "type": "uint256"
        }
      ],
      "name": "mint",
      "outputs": [],
      "stateMutability": "payable",
      "type": "function",
      "payable": true
    },
    {
      "inputs": [
        {
          "internalType": "uint256[]",
          "name": "_ids",
          "type": "uint256[]"
        },
        {
          "internalType": "uint256[]",
          "name": "_amounts",
          "type": "uint256[]"
        }
      ],
      "name": "batchMint",
      "outputs": [],
      "stateMutability": "payable",
      "type": "function",
      "payable": true
    },
    {
      "inputs": [
        {
          "internalType": "uint256",
          "name": "_id",
          "type": "uint256"
        },
        {
          "internalType": "uint256",
          "name": "_amount",
          "type": "uint256"
        }
      ],
      "name": "mintAndClaim",
      "outputs": [],
      "stateMutability": "payable",
      "type": "function",
      "payable": true
    },
    {
      "inputs": [
        {
          "internalType": "string",
          "name": "_contractURI",
          "type": "string"
        }
      ],
      "name": "setContractURI",
      "outputs": [],
      "stateMutability": "nonpayable",
      "type": "function"
    },
    {
      "inputs": [
        {
          "internalType": "string",
          "name": "_name",
          "type": "string"
        },
        {
          "internalType": "string",
          "name": "_symbol",
          "type": "string"
        },
        {
          "internalType": "string",
          "name": "_contractURI",
          "type": "string"
        },
        {
          "internalType": "uint96",
          "name": "pct",
          "type": "uint96"
        },
        {
          "internalType": "address",
          "name": "royaltyReciever",
          "type": "address"
        },
        {
          "internalType": "address",
          "name": "_LayerrXYZ",
          "type": "address"
        },
        {
          "internalType": "bool",
          "name": "subscribeOpensea",
          "type": "bool"
        }
      ],
      "name": "initialize",
      "outputs": [],
      "stateMutability": "nonpayable",
      "type": "function"
    },
    {
      "inputs": [
        {
          "internalType": "uint256",
          "name": "_id",
          "type": "uint256"
        },
        {
          "internalType": "string",
          "name": "_uri",
          "type": "string"
        },
        {
          "internalType": "uint256",
          "name": "_price",
          "type": "uint256"
        },
        {
          "internalType": "uint256",
          "name": "_saleStart",
          "type": "uint256"
        },
        {
          "internalType": "uint256",
          "name": "_saleEnd",
          "type": "uint256"
        },
        {
          "internalType": "uint256",
          "name": "_editionCount",
          "type": "uint256"
        },
        {
          "internalType": "uint256",
          "name": "_maxMintsPerTx",
          "type": "uint256"
        },
        {
          "internalType": "uint256[]",
          "name": "_requiredBurnIds",
          "type": "uint256[]"
        },
        {
          "internalType": "uint256[]",
          "name": "_requiredBurnAmounts",
          "type": "uint256[]"
        },
        {
          "internalType": "bool",
          "name": "_isClaim",
          "type": "bool"
        },
        {
          "internalType": "uint256[]",
          "name": "_requiredClaimIds",
          "type": "uint256[]"
        },
        {
          "internalType": "uint256[]",
          "name": "_requiredClaimAmounts",
          "type": "uint256[]"
        }
      ],
      "name": "addToken",
      "outputs": [],
      "stateMutability": "nonpayable",
      "type": "function"
    },
    {
      "inputs": [
        {
          "internalType": "uint256",
          "name": "_id",
          "type": "uint256"
        },
        {
          "internalType": "uint256",
          "name": "_saleStart",
          "type": "uint256"
        },
        {
          "internalType": "uint256",
          "name": "_saleEnd",
          "type": "uint256"
        }
      ],
      "name": "modifySalePeriod",
      "outputs": [],
      "stateMutability": "nonpayable",
      "type": "function"
    },
    {
      "inputs": [
        {
          "internalType": "address",
          "name": "receiver",
          "type": "address"
        },
        {
          "internalType": "uint96",
          "name": "feeNumerator",
          "type": "uint96"
        },
        {
          "internalType": "string",
          "name": "_name",
          "type": "string"
        },
        {
          "internalType": "string",
          "name": "_symbol",
          "type": "string"
        }
      ],
      "name": "editContract",
      "outputs": [],
      "stateMutability": "nonpayable",
      "type": "function"
    },
    {
      "inputs": [],
      "name": "withdraw",
      "outputs": [],
      "stateMutability": "nonpayable",
      "type": "function"
    },
    {
      "inputs": [
        {
          "internalType": "address",
          "name": "operator",
          "type": "address"
        },
        {
          "internalType": "bool",
          "name": "approved",
          "type": "bool"
        }
      ],
      "name": "setApprovalForAll",
      "outputs": [],
      "stateMutability": "nonpayable",
      "type": "function"
    },
    {
      "inputs": [
        {
          "internalType": "address",
          "name": "from",
          "type": "address"
        },
        {
          "internalType": "address",
          "name": "to",
          "type": "address"
        },
        {
          "internalType": "uint256",
          "name": "tokenId",
          "type": "uint256"
        },
        {
          "internalType": "uint256",
          "name": "amount",
          "type": "uint256"
        },
        {
          "internalType": "bytes",
          "name": "data",
          "type": "bytes"
        }
      ],
      "name": "safeTransferFrom",
      "outputs": [],
      "stateMutability": "nonpayable",
      "type": "function"
    },
    {
      "inputs": [
        {
          "internalType": "address",
          "name": "from",
          "type": "address"
        },
        {
          "internalType": "address",
          "name": "to",
          "type": "address"
        },
        {
          "internalType": "uint256[]",
          "name": "ids",
          "type": "uint256[]"
        },
        {
          "internalType": "uint256[]",
          "name": "amounts",
          "type": "uint256[]"
        },
        {
          "internalType": "bytes",
          "name": "data",
          "type": "bytes"
        }
      ],
      "name": "safeBatchTransferFrom",
      "outputs": [],
      "stateMutability": "nonpayable",
      "type": "function"
    },
    {
      "inputs": [
        {
          "internalType": "bytes4",
          "name": "interfaceId",
          "type": "bytes4"
        }
      ],
      "name": "supportsInterface",
      "outputs": [
        {
          "internalType": "bool",
          "name": "",
          "type": "bool"
        }
      ],
      "stateMutability": "view",
      "type": "function",
      "constant": true
    }
  ],
  "bytecode": "0x60806040523480156200001157600080fd5b50733cc6cdda760b79bafa08df41ecfa224f810dceb660016daaeb6d7670e522a718067333cd4e3b156200016e578015620000bc57604051633e9f1edf60e11b81523060048201526001600160a01b03831660248201526daaeb6d7670e522a718067333cd4e90637d3e3dbe906044015b600060405180830381600087803b1580156200009d57600080fd5b505af1158015620000b2573d6000803e3d6000fd5b505050506200016e565b6001600160a01b038216156200010d5760405163a0af290360e01b81523060048201526001600160a01b03831660248201526daaeb6d7670e522a718067333cd4e9063a0af29039060440162000082565b604051632210724360e11b81523060048201526daaeb6d7670e522a718067333cd4e90634420e48690602401600060405180830381600087803b1580156200015457600080fd5b505af115801562000169573d6000803e3d6000fd5b505050505b5050613a6180620001806000396000f3fe6080604052600436106102695760003560e01c80636b1f61a111610153578063aafd1448116100cb578063e5afe3e61161007f578063e985e9c511610064578063e985e9c51461073e578063f1470f6f14610779578063f242432a1461079957600080fd5b8063e5afe3e6146106fc578063e8a3d4851461072957600080fd5b8063bb446b69116100b0578063bb446b69146106a9578063cdaff283146106bc578063e0efbf32146106dc57600080fd5b8063aafd144814610669578063b93272771461068957600080fd5b8063938e3d7b1161012257806395d89b411161010757806395d89b4114610614578063997b442114610629578063a22cb4651461064957600080fd5b8063938e3d7b146105d4578063953f97aa146105f457600080fd5b80636b1f61a1146105475780637d005558146105675780637d2f85d1146105875780638da5cb5b146105b457600080fd5b806332e350c7116101e657806341f43434116101b55780635710f6fa1161019a5780635710f6fa146104da5780636040241914610507578063688d22321461053457600080fd5b806341f434341461048b5780634e1273f4146104ad57600080fd5b806332e350c7146103fc57806335a6907a146104345780633adef28d146104495780633ccfd60b1461047657600080fd5b80630e89341c1161023d5780631b2ef1ca116102225780631b2ef1ca146103885780632a55205a1461039d5780632eb2c2d6146103dc57600080fd5b80630e89341c1461033b578063151eed911461035b57600080fd5b8062fdd58e1461026e57806301ffc9a7146102b957806306fdde03146102e957806307cfa41b1461030b575b600080fd5b34801561027a57600080fd5b506102a6610289366004612e37565b600160209081526000928352604080842090915290825290205481565b6040519081526020015b60405180910390f35b3480156102c557600080fd5b506102d96102d4366004612e77565b6107b9565b60405190151581526020016102b0565b3480156102f557600080fd5b506102fe6107d9565b6040516102b09190612ee8565b34801561031757600080fd5b506102d9610326366004612efb565b600e6020526000908152604090205460ff1681565b34801561034757600080fd5b506102fe610356366004612efb565b610867565b34801561036757600080fd5b506102a6610376366004612efb565b60096020526000908152604090205481565b61039b610396366004612f14565b610909565b005b3480156103a957600080fd5b506103bd6103b8366004612f14565b610d8a565b604080516001600160a01b0390931683526020830191909152016102b0565b3480156103e857600080fd5b5061039b6103f7366004612fbd565b610e47565b34801561040857600080fd5b5060125461041c906001600160a01b031681565b6040516001600160a01b0390911681526020016102b0565b34801561044057600080fd5b506102fe610e7c565b34801561045557600080fd5b506102a6610464366004612efb565b60086020526000908152604090205481565b34801561048257600080fd5b5061039b610e89565b34801561049757600080fd5b5061041c6daaeb6d7670e522a718067333cd4e81565b3480156104b957600080fd5b506104cd6104c8366004613078565b610fd1565b6040516102b0919061311f565b3480156104e657600080fd5b506102a66104f5366004612efb565b60076020526000908152604090205481565b34801561051357600080fd5b506102a6610522366004612efb565b600b6020526000908152604090205481565b61039b6105423660046131f9565b611107565b34801561055357600080fd5b506102a6610562366004612f14565b6115e4565b34801561057357600080fd5b5061039b6105823660046132e6565b611615565b34801561059357600080fd5b506102a66105a2366004612efb565b600a6020526000908152604090205481565b3480156105c057600080fd5b5060115461041c906001600160a01b031681565b3480156105e057600080fd5b5061039b6105ef36600461342c565b611762565b34801561060057600080fd5b506102fe61060f366004612efb565b6117b7565b34801561062057600080fd5b506102fe6117d0565b34801561063557600080fd5b506102a6610644366004612f14565b6117dd565b34801561065557600080fd5b5061039b610664366004613469565b6117f9565b34801561067557600080fd5b506102a6610684366004612f14565b61180d565b34801561069557600080fd5b5061039b6106a43660046134bc565b611829565b61039b6106b7366004612f14565b6118a3565b3480156106c857600080fd5b5061039b6106d7366004613541565b611c2b565b3480156106e857600080fd5b5061039b6106f7366004613610565b611e85565b34801561070857600080fd5b506102a6610717366004612efb565b60066020526000908152604090205481565b34801561073557600080fd5b506102fe611ee5565b34801561074a57600080fd5b506102d961075936600461363c565b600260209081526000928352604080842090915290825290205460ff1681565b34801561078557600080fd5b506102a6610794366004612f14565b611f77565b3480156107a557600080fd5b5061039b6107b436600461366f565b611f93565b60006107c482611fc4565b806107d357506107d382612044565b92915050565b601380546107e6906136e7565b80601f0160208091040260200160405190810160405280929190818152602001828054610812906136e7565b801561085f5780601f106108345761010080835404028352916020019161085f565b820191906000526020600020905b81548152906001019060200180831161084257829003601f168201915b505050505081565b6000818152600560205260409020805460609190610884906136e7565b80601f01602080910402602001604051908101604052809291908181526020018280546108b0906136e7565b80156108fd5780601f106108d2576101008083540402835291602001916108fd565b820191906000526020600020905b8154815290600101906020018083116108e057829003601f168201915b50505050509050919050565b6000828152600e602052604090205460ff161561096d5760405162461bcd60e51b815260206004820152601560248201527f5468697320746f6b656e206973206120636c61696d000000000000000000000060448201526064015b60405180910390fd5b6000828152600760205260409020544210156109cb5760405162461bcd60e51b815260206004820152601460248201527f53616c6520686173206e6f7420737461727465640000000000000000000000006044820152606401610964565b600082815260086020526040902054421115610a295760405162461bcd60e51b815260206004820152600e60248201527f53616c652068617320656e6465640000000000000000000000000000000000006044820152606401610964565b600082815260096020908152604080832054600a90925290912054610a4f908390613737565b1115610a9d5760405162461bcd60e51b815260206004820152601860248201527f4e6f7420656e6f7567682065646974696f6e73206c65667400000000000000006044820152606401610964565b6000828152600660205260409020543490610ab990839061374f565b1115610b075760405162461bcd60e51b815260206004820152601560248201527f496e636f727265637420616d6f756e742073656e7400000000000000000000006044820152606401610964565b6000828152600b6020526040902054811115610b655760405162461bcd60e51b815260206004820152601860248201527f45786365656473206d6178206d696e74732070657220747800000000000000006044820152606401610964565b6000828152600c602052604090205460011015610cc2576000828152600d602052604081205467ffffffffffffffff811115610ba357610ba3613132565b604051908082528060200260200182016040528015610bcc578160200160208202803683370190505b50905060005b6000848152600d6020526040902054811015610c4f576000848152600d60205260409020805484919083908110610c0b57610c0b61376e565b9060005260206000200154610c20919061374f565b828281518110610c3257610c3261376e565b602090810291909101015280610c4781613784565b915050610bd2565b50610cbc33600c6000868152602001908152602001600020805480602002602001604051908101604052809291908181526020018280548015610cb157602002820191906000526020600020905b815481526020019060010190808311610c9d575b505050505083612092565b50610d46565b6000828152600c6020526040902054600103610d46576000828152600c602052604081208054610d4692339291610cfb57610cfb61376e565b906000526020600020015483600d6000878152602001908152602001600020600081548110610d2c57610d2c61376e565b9060005260206000200154610d41919061374f565b6121c5565b6000828152600a602052604081208054839290610d64908490613737565b92505081905550610d863383836040518060200160405280600081525061224b565b5050565b60008281526004602090815260408083208151808301909252546001600160a01b038116808352600160a01b9091046bffffffffffffffffffffffff16928201929092528291610e095750604080518082019091526003546001600160a01b0381168252600160a01b90046bffffffffffffffffffffffff1660208201525b602081015160009061271090610e2d906bffffffffffffffffffffffff168761374f565b610e37919061379d565b91519350909150505b9250929050565b876001600160a01b0381163314610e6157610e61336123b8565b610e7189898989898989896124a6565b505050505050505050565b601480546107e6906136e7565b6011546001600160a01b0316331480610eac57506012546001600160a01b031633145b610ef85760405162461bcd60e51b815260206004820152601360248201527f4e6f74206f776e6572206f72204c6179657272000000000000000000000000006044820152606401610964565b333214610f475760405162461bcd60e51b815260206004820152601f60248201527f43616e6e6f742077697468647261772066726f6d206120636f6e7472616374006044820152606401610964565b60125447906001600160a01b03166108fc6064610f6584600561374f565b610f6f919061379d565b6040518115909202916000818181858888f19350505050158015610f97573d6000803e3d6000fd5b506011546040516001600160a01b03909116904780156108fc02916000818181858888f19350505050158015610d86573d6000803e3d6000fd5b60608382146110145760405162461bcd60e51b815260206004820152600f60248201526e0988a9c8ea890be9a92a69a82a8869608b1b6044820152606401610964565b8367ffffffffffffffff81111561102d5761102d613132565b604051908082528060200260200182016040528015611056578160200160208202803683370190505b50905060005b848110156110fe576001600087878481811061107a5761107a61376e565b905060200201602081019061108f91906137bf565b6001600160a01b03166001600160a01b0316815260200190815260200160002060008585848181106110c3576110c361376e565b905060200201358152602001908152602001600020548282815181106110eb576110eb61376e565b602090810291909101015260010161105c565b50949350505050565b80518251146111405760405162461bcd60e51b815260206004820152600560248201526422a92927a960d91b6044820152606401610964565b6000805b83518110156115735760008482815181106111615761116161376e565b60200260200101519050600084838151811061117f5761117f61376e565b6020908102919091018101516000848152600e90925260409091205490915060ff16156111ee5760405162461bcd60e51b815260206004820152601560248201527f5468697320746f6b656e206973206120636c61696d00000000000000000000006044820152606401610964565b60008281526007602052604090205442101561124c5760405162461bcd60e51b815260206004820152601460248201527f53616c6520686173206e6f7420737461727465640000000000000000000000006044820152606401610964565b6000828152600860205260409020544211156112aa5760405162461bcd60e51b815260206004820152600e60248201527f53616c652068617320656e6465640000000000000000000000000000000000006044820152606401610964565b600082815260096020908152604080832054600a909252909120546112d0908390613737565b111561131e5760405162461bcd60e51b815260206004820152601860248201527f4e6f7420656e6f7567682065646974696f6e73206c65667400000000000000006044820152606401610964565b6000828152600b602052604090205481111561137c5760405162461bcd60e51b815260206004820152601860248201527f45786365656473206d6178206d696e74732070657220747800000000000000006044820152606401610964565b60008281526006602052604090205461139690829061374f565b6113a09085613737565b935080600a600084815260200190815260200160002060008282546113c59190613737565b90915550506000828152600c602052604090205460011015611525576000828152600d602052604081205467ffffffffffffffff81111561140857611408613132565b604051908082528060200260200182016040528015611431578160200160208202803683370190505b50905060005b6000848152600d60205260409020548110156114b4576000848152600d602052604090208054849190839081106114705761147061376e565b9060005260206000200154611485919061374f565b8282815181106114975761149761376e565b6020908102919091010152806114ac81613784565b915050611437565b5061151f33600c6000868152602001908152602001600020805480602002602001604051908101604052809291908181526020018280548015610cb15760200282019190600052602060002090815481526020019060010190808311610c9d57505050505083612092565b5061155e565b6000828152600c602052604090205460010361155e576000828152600c60205260408120805461155e92339291610cfb57610cfb61376e565b5050808061156b90613784565b915050611144565b50348111156115c45760405162461bcd60e51b815260206004820152601560248201527f496e636f727265637420616d6f756e742073656e7400000000000000000000006044820152606401610964565b6115df3384846040518060200160405280600081525061277f565b505050565b6010602052816000526040600020818154811061160057600080fd5b90600052602060002001600091509150505481565b6011546001600160a01b031633146116575760405162461bcd60e51b815260206004820152600560248201526422a92927a960d91b6044820152606401610964565b60008c81526005602090815260409091208c51611676928e0190612d48565b5060008c81526006602090815260408083208d9055600782528083208c9055600882528083208b9055600982528083208a9055600b90915290208690558451156116fb5760008c8152600c6020908152604090912086516116d992880190612dcc565b5060008c8152600d6020908152604090912085516116f992870190612dcc565b505b82156117545760008c8152600e60209081526040808320805460ff19166001179055600f8252909120835161173292850190612dcc565b5060008c8152601060209081526040909120825161175292840190612dcc565b505b505050505050505050505050565b6011546001600160a01b031633146117a45760405162461bcd60e51b815260206004820152600560248201526422a92927a960d91b6044820152606401610964565b8051610d86906014906020840190612d48565b600560205260009081526040902080546107e6906136e7565b601580546107e6906136e7565b600f602052816000526040600020818154811061160057600080fd5b81611803816123b8565b6115df8383612992565b600c602052816000526040600020818154811061160057600080fd5b6011546001600160a01b0316331461186b5760405162461bcd60e51b815260206004820152600560248201526422a92927a960d91b6044820152606401610964565b61187584846129fe565b8151611888906013906020850190612d48565b50805161189c906015906020840190612d48565b5050505050565b6000828152600e602052604090205460ff166119015760405162461bcd60e51b815260206004820152601560248201527f4e6f74206120636c61696d61626c6520746f6b656e00000000000000000000006044820152606401610964565b60008281526007602052604090205442101561195f5760405162461bcd60e51b815260206004820152601460248201527f53616c6520686173206e6f7420737461727465640000000000000000000000006044820152606401610964565b6000828152600860205260409020544211156119bd5760405162461bcd60e51b815260206004820152600e60248201527f53616c652068617320656e6465640000000000000000000000000000000000006044820152606401610964565b600082815260096020908152604080832054600a909252909120546119e3908390613737565b1115611a315760405162461bcd60e51b815260206004820152601860248201527f4e6f7420656e6f7567682065646974696f6e73206c65667400000000000000006044820152606401610964565b6001811115611b705760008281526010602052604081205467ffffffffffffffff811115611a6157611a61613132565b604051908082528060200260200182016040528015611a8a578160200160208202803683370190505b50905060005b600084815260106020526040902054811015611b0d576000848152601060205260409020805484919083908110611ac957611ac961376e565b9060005260206000200154611ade919061374f565b828281518110611af057611af061376e565b602090810291909101015280611b0581613784565b915050611a90565b506000838152600f60209081526040918290208054835181840281018401909452808452610cbc9392830182828015611b6557602002820191906000526020600020905b815481526020019060010190808311611b51575b505050505082611107565b6000828152600f60209081526040918290208054835181840281018401909452808452610d469392830182828015611bc757602002820191906000526020600020905b815481526020019060010190808311611bb3575b50505060008681526010602090815260409182902080548351818402810184019094528084529294509250830182828015611c2157602002820191906000526020600020905b815481526020019060010190808311611c0d575b5050505050611107565b600054610100900460ff1615808015611c4b5750600054600160ff909116105b80611c655750303b158015611c65575060005460ff166001145b611cd75760405162461bcd60e51b815260206004820152602e60248201527f496e697469616c697a61626c653a20636f6e747261637420697320616c72656160448201527f647920696e697469616c697a65640000000000000000000000000000000000006064820152608401610964565b6000805460ff191660011790558015611cfa576000805461ff0019166101001790555b601180547fffffffffffffffffffffffff000000000000000000000000000000000000000016321790558751611d379060139060208b0190612d48565b508651611d4b9060159060208a0190612d48565b508551611d5f906014906020890190612d48565b50611d6a84866129fe565b601280547fffffffffffffffffffffffff0000000000000000000000000000000000000000166001600160a01b0385161790558115611e35576040517f7d3e3dbe000000000000000000000000000000000000000000000000000000008152306004820152733cc6cdda760b79bafa08df41ecfa224f810dceb660248201526daaeb6d7670e522a718067333cd4e90637d3e3dbe90604401600060405180830381600087803b158015611e1c57600080fd5b505af1158015611e30573d6000803e3d6000fd5b505050505b8015611e7b576000805461ff0019169055604051600181527f7f26b83ff96e1f2b6a682f133852f6798a09c465da95921460cefb38474024989060200160405180910390a15b5050505050505050565b6011546001600160a01b03163314611ec75760405162461bcd60e51b815260206004820152600560248201526422a92927a960d91b6044820152606401610964565b60009283526007602090815260408085209390935560089052912055565b606060148054611ef4906136e7565b80601f0160208091040260200160405190810160405280929190818152602001828054611f20906136e7565b8015611f6d5780601f10611f4257610100808354040283529160200191611f6d565b820191906000526020600020905b815481529060010190602001808311611f5057829003601f168201915b5050505050905090565b600d602052816000526040600020818154811061160057600080fd5b856001600160a01b0381163314611fad57611fad336123b8565b611fbb878787878787612b18565b50505050505050565b60006301ffc9a760e01b6001600160e01b03198316148061200e57507fd9b67a26000000000000000000000000000000000000000000000000000000006001600160e01b03198316145b806107d35750506001600160e01b0319167f0e89341c000000000000000000000000000000000000000000000000000000001490565b60006001600160e01b031982167f2a55205a0000000000000000000000000000000000000000000000000000000014806107d357506301ffc9a760e01b6001600160e01b03198316146107d3565b8151815181146120d65760405162461bcd60e51b815260206004820152600f60248201526e0988a9c8ea890be9a92a69a82a8869608b1b6044820152606401610964565b60005b81811015612166578281815181106120f3576120f361376e565b602002602001015160016000876001600160a01b03166001600160a01b0316815260200190815260200160002060008684815181106121345761213461376e565b60200260200101518152602001908152602001600020600082825461215991906137da565b90915550506001016120d9565b5060006001600160a01b0316846001600160a01b0316336001600160a01b03167f4a39dc06d4c0dbc64b70af90fd698a233a518aa5d07e595d983b8c0526c8f7fb86866040516121b79291906137f1565b60405180910390a450505050565b6001600160a01b0383166000908152600160209081526040808320858452909152812080548392906121f89084906137da565b909155505060408051838152602081018390526000916001600160a01b0386169133917fc3d58168c5ae7397731d063d5bbf3d657854427343f4c083240f7aacaa2d0f62910160405180910390a4505050565b6001600160a01b03841660009081526001602090815260408083208684529091528120805484929061227e908490613737565b909155505060408051848152602081018490526001600160a01b0386169160009133917fc3d58168c5ae7397731d063d5bbf3d657854427343f4c083240f7aacaa2d0f62910160405180910390a46001600160a01b0384163b156123665760405163f23a6e6160e01b808252906001600160a01b0386169063f23a6e619061231390339060009089908990899060040161381f565b6020604051808303816000875af1158015612332573d6000803e3d6000fd5b505050506040513d601f19601f820116820180604052508101906123569190613857565b6001600160e01b03191614612373565b6001600160a01b03841615155b6123b25760405162461bcd60e51b815260206004820152601060248201526f155394d0519157d49150d2541251539560821b6044820152606401610964565b50505050565b6daaeb6d7670e522a718067333cd4e3b156124a3576040517fc61711340000000000000000000000000000000000000000000000000000000081523060048201526001600160a01b03821660248201526daaeb6d7670e522a718067333cd4e9063c617113490604401602060405180830381865afa15801561243e573d6000803e3d6000fd5b505050506040513d601f19601f820116820180604052508101906124629190613874565b6124a3576040517fede71dcc0000000000000000000000000000000000000000000000000000000081526001600160a01b0382166004820152602401610964565b50565b8483146124e75760405162461bcd60e51b815260206004820152600f60248201526e0988a9c8ea890be9a92a69a82a8869608b1b6044820152606401610964565b336001600160a01b038916148061252157506001600160a01b038816600090815260026020908152604080832033845290915290205460ff165b61256d5760405162461bcd60e51b815260206004820152600e60248201527f4e4f545f415554484f52495a45440000000000000000000000000000000000006044820152606401610964565b60008060005b8781101561262c5788888281811061258d5761258d61376e565b9050602002013592508686828181106125a8576125a861376e565b6001600160a01b038e166000908152600160209081526040808320898452825282208054939091029490940135955085939250906125e79084906137da565b90915550506001600160a01b038a1660009081526001602090815260408083208684529091528120805484929061261f908490613737565b9091555050600101612573565b50886001600160a01b03168a6001600160a01b0316336001600160a01b03167f4a39dc06d4c0dbc64b70af90fd698a233a518aa5d07e595d983b8c0526c8f7fb8b8b8b8b60405161268094939291906138e0565b60405180910390a46001600160a01b0389163b156127275760405163bc197c8160e01b808252906001600160a01b038b169063bc197c81906126d49033908f908e908e908e908e908e908e90600401613930565b6020604051808303816000875af11580156126f3573d6000803e3d6000fd5b505050506040513d601f19601f820116820180604052508101906127179190613857565b6001600160e01b03191614612734565b6001600160a01b03891615155b6127735760405162461bcd60e51b815260206004820152601060248201526f155394d0519157d49150d2541251539560821b6044820152606401610964565b50505050505050505050565b8251825181146127c35760405162461bcd60e51b815260206004820152600f60248201526e0988a9c8ea890be9a92a69a82a8869608b1b6044820152606401610964565b60005b81811015612853578381815181106127e0576127e061376e565b602002602001015160016000886001600160a01b03166001600160a01b0316815260200190815260200160002060008784815181106128215761282161376e565b6020026020010151815260200190815260200160002060008282546128469190613737565b90915550506001016127c6565b50846001600160a01b031660006001600160a01b0316336001600160a01b03167f4a39dc06d4c0dbc64b70af90fd698a233a518aa5d07e595d983b8c0526c8f7fb87876040516128a49291906137f1565b60405180910390a46001600160a01b0385163b156129465760405163bc197c8160e01b808252906001600160a01b0387169063bc197c81906128f39033906000908a908a908a90600401613994565b6020604051808303816000875af1158015612912573d6000803e3d6000fd5b505050506040513d601f19601f820116820180604052508101906129369190613857565b6001600160e01b03191614612953565b6001600160a01b03851615155b61189c5760405162461bcd60e51b815260206004820152601060248201526f155394d0519157d49150d2541251539560821b6044820152606401610964565b3360008181526002602090815260408083206001600160a01b03871680855290835292819020805460ff191686151590811790915590519081529192917f17307eab39ab6107e8899845ad3d59bd9653f200f220920489ca2b5937696c31910160405180910390a35050565b6127106bffffffffffffffffffffffff82161115612a845760405162461bcd60e51b815260206004820152602a60248201527f455243323938313a20726f79616c7479206665652077696c6c2065786365656460448201527f2073616c655072696365000000000000000000000000000000000000000000006064820152608401610964565b6001600160a01b038216612ada5760405162461bcd60e51b815260206004820152601960248201527f455243323938313a20696e76616c6964207265636569766572000000000000006044820152606401610964565b604080518082019091526001600160a01b039092168083526bffffffffffffffffffffffff9091166020909201829052600160a01b90910217600355565b336001600160a01b0387161480612b5257506001600160a01b038616600090815260026020908152604080832033845290915290205460ff165b612b9e5760405162461bcd60e51b815260206004820152600e60248201527f4e4f545f415554484f52495a45440000000000000000000000000000000000006044820152606401610964565b6001600160a01b038616600090815260016020908152604080832087845290915281208054859290612bd19084906137da565b90915550506001600160a01b038516600090815260016020908152604080832087845290915281208054859290612c09908490613737565b909155505060408051858152602081018590526001600160a01b03808816929089169133917fc3d58168c5ae7397731d063d5bbf3d657854427343f4c083240f7aacaa2d0f62910160405180910390a46001600160a01b0385163b15612cf45760405163f23a6e6160e01b808252906001600160a01b0387169063f23a6e6190612ca19033908b908a908a908a908a906004016139f2565b6020604051808303816000875af1158015612cc0573d6000803e3d6000fd5b505050506040513d601f19601f82011682018060405250810190612ce49190613857565b6001600160e01b03191614612d01565b6001600160a01b03851615155b612d405760405162461bcd60e51b815260206004820152601060248201526f155394d0519157d49150d2541251539560821b6044820152606401610964565b505050505050565b828054612d54906136e7565b90600052602060002090601f016020900481019282612d765760008555612dbc565b82601f10612d8f57805160ff1916838001178555612dbc565b82800160010185558215612dbc579182015b82811115612dbc578251825591602001919060010190612da1565b50612dc8929150612e06565b5090565b828054828255906000526020600020908101928215612dbc5791602002820182811115612dbc578251825591602001919060010190612da1565b5b80821115612dc85760008155600101612e07565b80356001600160a01b0381168114612e3257600080fd5b919050565b60008060408385031215612e4a57600080fd5b612e5383612e1b565b946020939093013593505050565b6001600160e01b0319811681146124a357600080fd5b600060208284031215612e8957600080fd5b8135612e9481612e61565b9392505050565b6000815180845260005b81811015612ec157602081850181015186830182015201612ea5565b81811115612ed3576000602083870101525b50601f01601f19169290920160200192915050565b602081526000612e946020830184612e9b565b600060208284031215612f0d57600080fd5b5035919050565b60008060408385031215612f2757600080fd5b50508035926020909101359150565b60008083601f840112612f4857600080fd5b50813567ffffffffffffffff811115612f6057600080fd5b6020830191508360208260051b8501011115610e4057600080fd5b60008083601f840112612f8d57600080fd5b50813567ffffffffffffffff811115612fa557600080fd5b602083019150836020828501011115610e4057600080fd5b60008060008060008060008060a0898b031215612fd957600080fd5b612fe289612e1b565b9750612ff060208a01612e1b565b9650604089013567ffffffffffffffff8082111561300d57600080fd5b6130198c838d01612f36565b909850965060608b013591508082111561303257600080fd5b61303e8c838d01612f36565b909650945060808b013591508082111561305757600080fd5b506130648b828c01612f7b565b999c989b5096995094979396929594505050565b6000806000806040858703121561308e57600080fd5b843567ffffffffffffffff808211156130a657600080fd5b6130b288838901612f36565b909650945060208701359150808211156130cb57600080fd5b506130d887828801612f36565b95989497509550505050565b600081518084526020808501945080840160005b83811015613114578151875295820195908201906001016130f8565b509495945050505050565b602081526000612e9460208301846130e4565b634e487b7160e01b600052604160045260246000fd5b604051601f8201601f1916810167ffffffffffffffff8111828210171561317157613171613132565b604052919050565b600082601f83011261318a57600080fd5b8135602067ffffffffffffffff8211156131a6576131a6613132565b8160051b6131b5828201613148565b92835284810182019282810190878511156131cf57600080fd5b83870192505b848310156131ee578235825291830191908301906131d5565b979650505050505050565b6000806040838503121561320c57600080fd5b823567ffffffffffffffff8082111561322457600080fd5b61323086838701613179565b9350602085013591508082111561324657600080fd5b5061325385828601613179565b9150509250929050565b600082601f83011261326e57600080fd5b813567ffffffffffffffff81111561328857613288613132565b61329b601f8201601f1916602001613148565b8181528460208386010111156132b057600080fd5b816020850160208301376000918101602001919091529392505050565b80151581146124a357600080fd5b8035612e32816132cd565b6000806000806000806000806000806000806101808d8f03121561330957600080fd5b8c359b5067ffffffffffffffff60208e0135111561332657600080fd5b6133368e60208f01358f0161325d565b9a5060408d0135995060608d0135985060808d0135975060a08d0135965060c08d0135955067ffffffffffffffff60e08e0135111561337457600080fd5b6133848e60e08f01358f01613179565b945067ffffffffffffffff6101008e013511156133a057600080fd5b6133b18e6101008f01358f01613179565b93506133c06101208e016132db565b925067ffffffffffffffff6101408e013511156133dc57600080fd5b6133ed8e6101408f01358f01613179565b915067ffffffffffffffff6101608e0135111561340957600080fd5b61341a8e6101608f01358f01613179565b90509295989b509295989b509295989b565b60006020828403121561343e57600080fd5b813567ffffffffffffffff81111561345557600080fd5b6134618482850161325d565b949350505050565b6000806040838503121561347c57600080fd5b61348583612e1b565b91506020830135613495816132cd565b809150509250929050565b80356bffffffffffffffffffffffff81168114612e3257600080fd5b600080600080608085870312156134d257600080fd5b6134db85612e1b565b93506134e9602086016134a0565b9250604085013567ffffffffffffffff8082111561350657600080fd5b6135128883890161325d565b9350606087013591508082111561352857600080fd5b506135358782880161325d565b91505092959194509250565b600080600080600080600060e0888a03121561355c57600080fd5b873567ffffffffffffffff8082111561357457600080fd5b6135808b838c0161325d565b985060208a013591508082111561359657600080fd5b6135a28b838c0161325d565b975060408a01359150808211156135b857600080fd5b506135c58a828b0161325d565b9550506135d4606089016134a0565b93506135e260808901612e1b565b92506135f060a08901612e1b565b915060c0880135613600816132cd565b8091505092959891949750929550565b60008060006060848603121561362557600080fd5b505081359360208301359350604090920135919050565b6000806040838503121561364f57600080fd5b61365883612e1b565b915061366660208401612e1b565b90509250929050565b60008060008060008060a0878903121561368857600080fd5b61369187612e1b565b955061369f60208801612e1b565b94506040870135935060608701359250608087013567ffffffffffffffff8111156136c957600080fd5b6136d589828a01612f7b565b979a9699509497509295939492505050565b600181811c908216806136fb57607f821691505b60208210810361371b57634e487b7160e01b600052602260045260246000fd5b50919050565b634e487b7160e01b600052601160045260246000fd5b6000821982111561374a5761374a613721565b500190565b600081600019048311821515161561376957613769613721565b500290565b634e487b7160e01b600052603260045260246000fd5b60006001820161379657613796613721565b5060010190565b6000826137ba57634e487b7160e01b600052601260045260246000fd5b500490565b6000602082840312156137d157600080fd5b612e9482612e1b565b6000828210156137ec576137ec613721565b500390565b60408152600061380460408301856130e4565b828103602084015261381681856130e4565b95945050505050565b60006001600160a01b03808816835280871660208401525084604083015283606083015260a060808301526131ee60a0830184612e9b565b60006020828403121561386957600080fd5b8151612e9481612e61565b60006020828403121561388657600080fd5b8151612e94816132cd565b81835260007f07ffffffffffffffffffffffffffffffffffffffffffffffffffffffffffffff8311156138c357600080fd5b8260051b8083602087013760009401602001938452509192915050565b6040815260006138f4604083018688613891565b82810360208401526131ee818587613891565b81835281816020850137506000828201602090810191909152601f909101601f19169091010190565b60006001600160a01b03808b168352808a1660208401525060a0604083015261395d60a08301888a613891565b8281036060840152613970818789613891565b90508281036080840152613985818587613907565b9b9a5050505050505050505050565b60006001600160a01b03808816835280871660208401525060a060408301526139c060a08301866130e4565b82810360608401526139d281866130e4565b905082810360808401526139e68185612e9b565b98975050505050505050565b60006001600160a01b03808916835280881660208401525085604083015284606083015260a060808301526139e660a08301848661390756fea2646970667358221220fc200ebc7bf1e7e69e1752157faca963dc815d337ba162bf99a64e67d5365ec064736f6c634300080d0033",
  "immutableReferences": {},
  "source": "// SPDX-License-Identifier: MIT\npragma solidity >=0.8.0 <0.9.0;\n\nimport { ERC1155 } from \"./ERC1155.sol\";\nimport \"@openzeppelin/contracts/token/common/ERC2981.sol\";\nimport \"@openzeppelin/contracts/proxy/utils/Initializable.sol\";\nimport \"operator-filter-registry/src/DefaultOperatorFilterer.sol\";\n\ncontract Layerr1155 is DefaultOperatorFilterer, Initializable, ERC1155, ERC2981 {\n  mapping(uint => string) public URIs;\n  mapping(uint => uint) public tokenPrices;\n  mapping(uint => uint) public tokenSaleStarts;\n  mapping(uint => uint) public tokenSaleEnds;\n  mapping(uint => uint) public tokenEditionCounts;\n  mapping(uint => uint) public tokenEditionMints;\n  mapping(uint => uint) public maxMintsPerTx;\n  mapping(uint => uint[]) public requiredBurnIds;\n  mapping(uint => uint[]) public requiredBurnAmounts;\n  mapping(uint => bool) public isClaim;\n  mapping(uint => uint[]) public requiredClaimIds;\n  mapping(uint => uint[]) public requiredClaimAmounts;\n\n  address public owner;\n  address public LayerrXYZ;\n\n  string public name;\n  string public contractURI_;\n  string public symbol;\n\n  modifier onlyOwner() {\n    require(msg.sender == owner, \"ERROR\");\n    _;\n  }\n\n  function uri(uint256 id) public view virtual override returns (string memory) {\n    return URIs[id];\n  }\n\n  function contractURI() public view returns (string memory) {\n    return contractURI_;\n  }\n\n\n  function mint(uint _id, uint _amount) public payable {\n    require(!isClaim[_id], \"This token is a claim\");\n    require(block.timestamp >= tokenSaleStarts[_id], \"Sale has not started\");\n    require(block.timestamp <= tokenSaleEnds[_id], \"Sale has ended\");\n    require(tokenEditionMints[_id] + _amount <= tokenEditionCounts[_id], \"Not enough editions left\");\n    require(tokenPrices[_id] * _amount <= msg.value, \"Incorrect amount sent\");\n    require(_amount <= maxMintsPerTx[_id], \"Exceeds max mints per tx\");\n\n    if (requiredBurnIds[_id].length > 1) {\n      uint[] memory burnAmounts = new uint[](requiredBurnAmounts[_id].length);\n      for (uint i = 0; i < requiredBurnAmounts[_id].length; i++) {\n        burnAmounts[i] = requiredBurnAmounts[_id][i] * _amount;\n      }\n      _batchBurn(msg.sender, requiredBurnIds[_id], burnAmounts);\n    } else if (requiredBurnIds[_id].length == 1) {\n      _burn(msg.sender, requiredBurnIds[_id][0], requiredBurnAmounts[_id][0] * _amount);\n    }\n\n    tokenEditionMints[_id] += _amount;\n    _mint(msg.sender, _id, _amount, \"\");\n  }\n\n  function batchMint(uint[] memory _ids, uint[] memory _amounts) public payable {\n    require(_ids.length == _amounts.length, \"ERROR\");\n    uint totalCost;\n    for (uint i = 0; i < _ids.length; i++) {\n      uint id = _ids[i];\n      uint amount = _amounts[i];\n      require(!isClaim[id], \"This token is a claim\");\n      require(block.timestamp >= tokenSaleStarts[id], \"Sale has not started\");\n      require(block.timestamp <= tokenSaleEnds[id], \"Sale has ended\");\n      require(tokenEditionMints[id] + amount <= tokenEditionCounts[id], \"Not enough editions left\");\n      require(amount <= maxMintsPerTx[id], \"Exceeds max mints per tx\");\n      totalCost += tokenPrices[id] * amount;\n      tokenEditionMints[id] += amount;\n\n      if (requiredBurnIds[id].length > 1) {\n        uint[] memory burnAmounts = new uint[](requiredBurnAmounts[id].length);\n        for (uint j = 0; j < requiredBurnAmounts[id].length; j++) {\n          burnAmounts[j] = requiredBurnAmounts[id][j] * amount;\n        }\n        _batchBurn(msg.sender, requiredBurnIds[id], burnAmounts);\n      } else if (requiredBurnIds[id].length == 1) {\n        _burn(msg.sender, requiredBurnIds[id][0], requiredBurnAmounts[id][0] * amount);\n      }\n    }\n    require(totalCost <= msg.value, \"Incorrect amount sent\");\n    _batchMint(msg.sender, _ids, _amounts, \"\");\n  }\n\n  function mintAndClaim(uint _id, uint _amount) public payable {\n    require(isClaim[_id], \"Not a claimable token\");\n    require(block.timestamp >= tokenSaleStarts[_id], \"Sale has not started\");\n    require(block.timestamp <= tokenSaleEnds[_id], \"Sale has ended\");\n    require(tokenEditionMints[_id] + _amount <= tokenEditionCounts[_id], \"Not enough editions left\");\n\n    if (_amount > 1) {\n      uint[] memory claimAmounts = new uint[](requiredClaimAmounts[_id].length);\n      for (uint i = 0; i < requiredClaimAmounts[_id].length; i++) {\n        claimAmounts[i] = requiredClaimAmounts[_id][i] * _amount;\n      }\n      batchMint(requiredClaimIds[_id], claimAmounts);\n    } else {\n      batchMint(requiredClaimIds[_id], requiredClaimAmounts[_id]);\n    }\n\n    tokenEditionMints[_id] += _amount;\n    _mint(msg.sender, _id, _amount, \"\");\n  }\n\n  /*\n  * OWNER FUNCTIONS\n  */\n  function setContractURI(string memory _contractURI) public onlyOwner {\n    contractURI_ = _contractURI;\n  }\n\n  function initialize (\n    string memory _name,\n    string memory _symbol,\n    string memory _contractURI,\n    uint96 pct,\n    address royaltyReciever,\n    address _LayerrXYZ,\n    bool subscribeOpensea\n  ) public initializer {\n    owner = tx.origin;\n    name = _name;\n    symbol = _symbol;\n    contractURI_ = _contractURI;\n    _setDefaultRoyalty(royaltyReciever, pct);\n    LayerrXYZ = _LayerrXYZ;\n\n    if (subscribeOpensea) {\n      OperatorFilterer.OPERATOR_FILTER_REGISTRY.registerAndSubscribe(address(this), address(0x3cc6CddA760b79bAfa08dF41ECFA224f810dCeB6));\n    }\n  }\n\n  function addToken(\n    uint _id,\n    string memory _uri,\n    uint _price,\n    uint _saleStart,\n    uint _saleEnd,\n    uint _editionCount,\n    uint _maxMintsPerTx,\n    uint[] memory _requiredBurnIds,\n    uint[] memory _requiredBurnAmounts,\n    bool _isClaim,\n    uint[] memory _requiredClaimIds,\n    uint[] memory _requiredClaimAmounts\n  ) public onlyOwner {\n    URIs[_id] = _uri;\n    tokenPrices[_id] = _price;\n    tokenSaleStarts[_id] = _saleStart;\n    tokenSaleEnds[_id] = _saleEnd;\n    tokenEditionCounts[_id] = _editionCount;\n    maxMintsPerTx[_id] = _maxMintsPerTx;\n\n    if (_requiredBurnIds.length > 0) {\n      requiredBurnIds[_id] = _requiredBurnIds;\n      requiredBurnAmounts[_id] = _requiredBurnAmounts;\n    }\n\n    if (_isClaim) {\n      isClaim[_id] = true;\n      requiredClaimIds[_id] = _requiredClaimIds;\n      requiredClaimAmounts[_id] = _requiredClaimAmounts;\n    }\n  }\n\n  function modifySalePeriod(uint _id, uint _saleStart, uint _saleEnd) public onlyOwner {\n    tokenSaleStarts[_id] = _saleStart;\n    tokenSaleEnds[_id] = _saleEnd;\n  }\n\n  function editContract (address receiver, uint96 feeNumerator, string memory _name, string memory _symbol) external onlyOwner {\n    _setDefaultRoyalty(receiver, feeNumerator);\n    name = _name;\n    symbol = _symbol;\n  }\n\n  function withdraw() public {\n    require(msg.sender == owner || msg.sender == LayerrXYZ, \"Not owner or Layerr\");\n    require(msg.sender == tx.origin, \"Cannot withdraw from a contract\");\n    uint256 contractBalance = address(this).balance;\n\n    // Send 5% of the contract balance to the LayerrXYZ wallet address\n    payable(LayerrXYZ).transfer(contractBalance * 5 / 100);\n\n    // Send the remaining balance to the owner\n    payable(owner).transfer(address(this).balance);\n  }\n\n  /*\n  * OPENSEA OVERRIDES\n  */\n  function setApprovalForAll(address operator, bool approved) public override onlyAllowedOperatorApproval(operator) {\n    super.setApprovalForAll(operator, approved);\n  }\n\n  function safeTransferFrom(address from, address to, uint256 tokenId, uint256 amount, bytes calldata data)\n    public\n    override\n    onlyAllowedOperator(from)\n  {\n    super.safeTransferFrom(from, to, tokenId, amount, data);\n  }\n\n  function safeBatchTransferFrom(\n    address from,\n    address to,\n    uint256[] calldata ids,\n    uint256[] calldata amounts,\n    bytes calldata data\n  ) public virtual override onlyAllowedOperator(from) {\n    super.safeBatchTransferFrom(from, to, ids, amounts, data);\n  }\n\n  function supportsInterface(bytes4 interfaceId) public view virtual override(ERC1155, ERC2981) returns (bool) {\n    return \n      ERC1155.supportsInterface(interfaceId) ||\n      ERC2981.supportsInterface(interfaceId);\n  }\n}\n",
  "sourcePath": "/Users/jack/cryptotech/nimany-1155/contracts/Layerr1155.sol",
  "compiler": {
    "name": "solc",
    "version": "0.8.13+commit.abaa5c0e.Emscripten.clang"
  },
  "schemaVersion": "3.4.10",
  "updatedAt": "2023-02-16T21:18:27.446Z",
  "networkType": "ethereum",
  "devdoc": {
    "kind": "dev",
    "methods": {
      "royaltyInfo(uint256,uint256)": {
        "details": "Returns how much royalty is owed and to whom, based on a sale price that may be denominated in any unit of exchange. The royalty amount is denominated and should be paid in that same unit of exchange."
      }
    },
    "version": 1
  },
  "userdoc": {
    "kind": "user",
    "methods": {},
    "version": 1
  }
}