{
  "contractName": "Layerr1155Factory",
  "abi": [
    {
      "anonymous": false,
      "inputs": [
        {
          "indexed": true,
          "internalType": "address",
          "name": "previousOwner",
          "type": "address"
        },
        {
          "indexed": true,
          "internalType": "address",
          "name": "newOwner",
          "type": "address"
        }
      ],
      "name": "OwnershipTransferred",
      "type": "event"
    },
    {
      "inputs": [],
      "name": "LayerrXYZ",
      "outputs": [
        {
          "internalType": "address",
          "name": "",
          "type": "address"
        }
      ],
      "stateMutability": "view",
      "type": "function",
      "constant": true
    },
    {
      "inputs": [
        {
          "internalType": "address",
          "name": "",
          "type": "address"
        },
        {
          "internalType": "uint256",
          "name": "",
          "type": "uint256"
        }
      ],
      "name": "allClones",
      "outputs": [
        {
          "internalType": "address",
          "name": "",
          "type": "address"
        }
      ],
      "stateMutability": "view",
      "type": "function",
      "constant": true
    },
    {
      "inputs": [],
      "name": "implementation",
      "outputs": [
        {
          "internalType": "address",
          "name": "",
          "type": "address"
        }
      ],
      "stateMutability": "view",
      "type": "function",
      "constant": true
    },
    {
      "inputs": [],
      "name": "owner",
      "outputs": [
        {
          "internalType": "address",
          "name": "",
          "type": "address"
        }
      ],
      "stateMutability": "view",
      "type": "function",
      "constant": true
    },
    {
      "inputs": [
        {
          "internalType": "string",
          "name": "",
          "type": "string"
        }
      ],
      "name": "projectIdToAddress",
      "outputs": [
        {
          "internalType": "address",
          "name": "",
          "type": "address"
        }
      ],
      "stateMutability": "view",
      "type": "function",
      "constant": true
    },
    {
      "inputs": [],
      "name": "renounceOwnership",
      "outputs": [],
      "stateMutability": "nonpayable",
      "type": "function"
    },
    {
      "inputs": [
        {
          "internalType": "address",
          "name": "newOwner",
          "type": "address"
        }
      ],
      "name": "transferOwnership",
      "outputs": [],
      "stateMutability": "nonpayable",
      "type": "function"
    },
    {
      "inputs": [
        {
          "internalType": "address",
          "name": "_implementation",
          "type": "address"
        }
      ],
      "name": "setImplementation",
      "outputs": [],
      "stateMutability": "nonpayable",
      "type": "function"
    },
    {
      "inputs": [
        {
          "internalType": "string",
          "name": "_name",
          "type": "string"
        },
        {
          "internalType": "string",
          "name": "_symbol",
          "type": "string"
        },
        {
          "internalType": "string",
          "name": "_contractURI",
          "type": "string"
        },
        {
          "internalType": "uint96",
          "name": "pct",
          "type": "uint96"
        },
        {
          "internalType": "address",
          "name": "royaltyReciever",
          "type": "address"
        },
        {
          "internalType": "string",
          "name": "projectId",
          "type": "string"
        }
      ],
      "name": "_clone",
      "outputs": [],
      "stateMutability": "nonpayable",
      "type": "function"
    },
    {
      "inputs": [
        {
          "internalType": "address",
          "name": "_owner",
          "type": "address"
        }
      ],
      "name": "returnClones",
      "outputs": [
        {
          "internalType": "address[]",
          "name": "",
          "type": "address[]"
        }
      ],
      "stateMutability": "view",
      "type": "function",
      "constant": true
    }
  ],
  "bytecode": "0x608060405273f57e485905f5f7de581a1dcae0411f9b86da8f51600260006101000a81548173ffffffffffffffffffffffffffffffffffffffff021916908373ffffffffffffffffffffffffffffffffffffffff16021790555034801561006557600080fd5b5061008261007761008760201b60201c565b61008f60201b60201c565b610153565b600033905090565b60008060009054906101000a900473ffffffffffffffffffffffffffffffffffffffff169050816000806101000a81548173ffffffffffffffffffffffffffffffffffffffff021916908373ffffffffffffffffffffffffffffffffffffffff1602179055508173ffffffffffffffffffffffffffffffffffffffff168173ffffffffffffffffffffffffffffffffffffffff167f8be0079c531659141344cd1fd0a4f28419497f9722a3daafe3b4186f6b6457e060405160405180910390a35050565b611080806101626000396000f3fe608060405234801561001057600080fd5b506004361061009e5760003560e01c8063715018a611610066578063715018a61461015b5780637f3d5a34146101655780638da5cb5b14610195578063d784d426146101b3578063f2fde38b146101cf5761009e565b8063065db5b9146100a35780630eb84efd146100bf57806332e350c7146100ef5780635c60da1b1461010d578063613401ad1461012b575b600080fd5b6100bd60048036038101906100b89190610a8d565b6101eb565b005b6100d960048036038101906100d49190610b8a565b6103b7565b6040516100e69190610c75565b60405180910390f35b6100f7610484565b6040516101049190610ca6565b60405180910390f35b6101156104aa565b6040516101229190610ca6565b60405180910390f35b61014560048036038101906101409190610cc1565b6104d0565b6040516101529190610ca6565b60405180910390f35b610163610519565b005b61017f600480360381019061017a9190610d40565b61052d565b60405161018c9190610ca6565b60405180910390f35b61019d61057b565b6040516101aa9190610ca6565b60405180910390f35b6101cd60048036038101906101c89190610b8a565b6105a4565b005b6101e960048036038101906101e49190610b8a565b6105f0565b005b6000610218600160009054906101000a900473ffffffffffffffffffffffffffffffffffffffff16610673565b9050600360003373ffffffffffffffffffffffffffffffffffffffff1673ffffffffffffffffffffffffffffffffffffffff168152602001908152602001600020819080600181540180825580915050600190039060005260206000200160009091909190916101000a81548173ffffffffffffffffffffffffffffffffffffffff021916908373ffffffffffffffffffffffffffffffffffffffff160217905550806004836040516102cb9190610dfa565b908152602001604051809103902060006101000a81548173ffffffffffffffffffffffffffffffffffffffff021916908373ffffffffffffffffffffffffffffffffffffffff1602179055508073ffffffffffffffffffffffffffffffffffffffff1663482b08728888888888600260009054906101000a900473ffffffffffffffffffffffffffffffffffffffff166040518763ffffffff1660e01b815260040161037c96959493929190610e6a565b600060405180830381600087803b15801561039657600080fd5b505af11580156103aa573d6000803e3d6000fd5b5050505050505050505050565b6060600360008373ffffffffffffffffffffffffffffffffffffffff1673ffffffffffffffffffffffffffffffffffffffff16815260200190815260200160002080548060200260200160405190810160405280929190818152602001828054801561047857602002820191906000526020600020905b8160009054906101000a900473ffffffffffffffffffffffffffffffffffffffff1673ffffffffffffffffffffffffffffffffffffffff168152602001906001019080831161042e575b50505050509050919050565b600260009054906101000a900473ffffffffffffffffffffffffffffffffffffffff1681565b600160009054906101000a900473ffffffffffffffffffffffffffffffffffffffff1681565b6004818051602081018201805184825260208301602085012081835280955050505050506000915054906101000a900473ffffffffffffffffffffffffffffffffffffffff1681565b610521610747565b61052b60006107c5565b565b6003602052816000526040600020818154811061054957600080fd5b906000526020600020016000915091509054906101000a900473ffffffffffffffffffffffffffffffffffffffff1681565b60008060009054906101000a900473ffffffffffffffffffffffffffffffffffffffff16905090565b6105ac610747565b80600160006101000a81548173ffffffffffffffffffffffffffffffffffffffff021916908373ffffffffffffffffffffffffffffffffffffffff16021790555050565b6105f8610747565b600073ffffffffffffffffffffffffffffffffffffffff168173ffffffffffffffffffffffffffffffffffffffff1603610667576040517f08c379a000000000000000000000000000000000000000000000000000000000815260040161065e90610f52565b60405180910390fd5b610670816107c5565b50565b60006040517f3d602d80600a3d3981f3363d3d373d3d3d363d7300000000000000000000000081528260601b60148201527f5af43d82803e903d91602b57fd5bf3000000000000000000000000000000000060288201526037816000f0915050600073ffffffffffffffffffffffffffffffffffffffff168173ffffffffffffffffffffffffffffffffffffffff1603610742576040517f08c379a000000000000000000000000000000000000000000000000000000000815260040161073990610fbe565b60405180910390fd5b919050565b61074f610889565b73ffffffffffffffffffffffffffffffffffffffff1661076d61057b565b73ffffffffffffffffffffffffffffffffffffffff16146107c3576040517f08c379a00000000000000000000000000000000000000000000000000000000081526004016107ba9061102a565b60405180910390fd5b565b60008060009054906101000a900473ffffffffffffffffffffffffffffffffffffffff169050816000806101000a81548173ffffffffffffffffffffffffffffffffffffffff021916908373ffffffffffffffffffffffffffffffffffffffff1602179055508173ffffffffffffffffffffffffffffffffffffffff168173ffffffffffffffffffffffffffffffffffffffff167f8be0079c531659141344cd1fd0a4f28419497f9722a3daafe3b4186f6b6457e060405160405180910390a35050565b600033905090565b6000604051905090565b600080fd5b600080fd5b600080fd5b600080fd5b6000601f19601f8301169050919050565b7f4e487b7100000000000000000000000000000000000000000000000000000000600052604160045260246000fd5b6108f8826108af565b810181811067ffffffffffffffff82111715610917576109166108c0565b5b80604052505050565b600061092a610891565b905061093682826108ef565b919050565b600067ffffffffffffffff821115610956576109556108c0565b5b61095f826108af565b9050602081019050919050565b82818337600083830152505050565b600061098e6109898461093b565b610920565b9050828152602081018484840111156109aa576109a96108aa565b5b6109b584828561096c565b509392505050565b600082601f8301126109d2576109d16108a5565b5b81356109e284826020860161097b565b91505092915050565b60006bffffffffffffffffffffffff82169050919050565b610a0c816109eb565b8114610a1757600080fd5b50565b600081359050610a2981610a03565b92915050565b600073ffffffffffffffffffffffffffffffffffffffff82169050919050565b6000610a5a82610a2f565b9050919050565b610a6a81610a4f565b8114610a7557600080fd5b50565b600081359050610a8781610a61565b92915050565b60008060008060008060c08789031215610aaa57610aa961089b565b5b600087013567ffffffffffffffff811115610ac857610ac76108a0565b5b610ad489828a016109bd565b965050602087013567ffffffffffffffff811115610af557610af46108a0565b5b610b0189828a016109bd565b955050604087013567ffffffffffffffff811115610b2257610b216108a0565b5b610b2e89828a016109bd565b9450506060610b3f89828a01610a1a565b9350506080610b5089828a01610a78565b92505060a087013567ffffffffffffffff811115610b7157610b706108a0565b5b610b7d89828a016109bd565b9150509295509295509295565b600060208284031215610ba057610b9f61089b565b5b6000610bae84828501610a78565b91505092915050565b600081519050919050565b600082825260208201905092915050565b6000819050602082019050919050565b610bec81610a4f565b82525050565b6000610bfe8383610be3565b60208301905092915050565b6000602082019050919050565b6000610c2282610bb7565b610c2c8185610bc2565b9350610c3783610bd3565b8060005b83811015610c68578151610c4f8882610bf2565b9750610c5a83610c0a565b925050600181019050610c3b565b5085935050505092915050565b60006020820190508181036000830152610c8f8184610c17565b905092915050565b610ca081610a4f565b82525050565b6000602082019050610cbb6000830184610c97565b92915050565b600060208284031215610cd757610cd661089b565b5b600082013567ffffffffffffffff811115610cf557610cf46108a0565b5b610d01848285016109bd565b91505092915050565b6000819050919050565b610d1d81610d0a565b8114610d2857600080fd5b50565b600081359050610d3a81610d14565b92915050565b60008060408385031215610d5757610d5661089b565b5b6000610d6585828601610a78565b9250506020610d7685828601610d2b565b9150509250929050565b600081519050919050565b600081905092915050565b60005b83811015610db4578082015181840152602081019050610d99565b83811115610dc3576000848401525b50505050565b6000610dd482610d80565b610dde8185610d8b565b9350610dee818560208601610d96565b80840191505092915050565b6000610e068284610dc9565b915081905092915050565b600082825260208201905092915050565b6000610e2d82610d80565b610e378185610e11565b9350610e47818560208601610d96565b610e50816108af565b840191505092915050565b610e64816109eb565b82525050565b600060c0820190508181036000830152610e848189610e22565b90508181036020830152610e988188610e22565b90508181036040830152610eac8187610e22565b9050610ebb6060830186610e5b565b610ec86080830185610c97565b610ed560a0830184610c97565b979650505050505050565b7f4f776e61626c653a206e6577206f776e657220697320746865207a65726f206160008201527f6464726573730000000000000000000000000000000000000000000000000000602082015250565b6000610f3c602683610e11565b9150610f4782610ee0565b604082019050919050565b60006020820190508181036000830152610f6b81610f2f565b9050919050565b7f455243313136373a20637265617465206661696c656400000000000000000000600082015250565b6000610fa8601683610e11565b9150610fb382610f72565b602082019050919050565b60006020820190508181036000830152610fd781610f9b565b9050919050565b7f4f776e61626c653a2063616c6c6572206973206e6f7420746865206f776e6572600082015250565b6000611014602083610e11565b915061101f82610fde565b602082019050919050565b6000602082019050818103600083015261104381611007565b905091905056fea2646970667358221220ad4be1c4b68fa085f78c13d4f6bcd3dda10b2bc77a49546374e2cdecbe78158664736f6c634300080d0033",
  "immutableReferences": {},
  "source": "// SPDX-License-Identifier: MIT\npragma solidity >=0.8.0 <0.9.0;\n\nimport \"@openzeppelin/contracts/access/Ownable.sol\";\n\ninterface ILayerr1155 {\n  function initialize(\n    string memory _name,\n    string memory _symbol,\n    string memory _contractURI,\n    uint96 pct,\n    address royaltyReciever,\n    address _LayerrXYZ\n  ) external;\n}\n\ncontract Layerr1155Factory is Ownable {\n\n  address public implementation;\n\n  address public LayerrXYZ = 0xF57e485905f5F7De581A1DcAE0411F9B86da8F51;\n\n  mapping(address => address[]) public allClones;\n  mapping(string => address) public projectIdToAddress;\n\n  function setImplementation(address _implementation) external onlyOwner {\n    implementation = _implementation;\n  }\n\n  /**\n    * @dev Deploys and returns the address of a clone that mimics the behaviour of `implementation`.\n    *\n    * This function uses the create opcode, which should never revert.\n    */\n  function clone(address _implementation) internal returns (address instance) {\n    assembly {\n      let ptr := mload(0x40)\n      mstore(ptr, 0x3d602d80600a3d3981f3363d3d373d3d3d363d73000000000000000000000000)\n      mstore(add(ptr, 0x14), shl(0x60, _implementation))\n      mstore(add(ptr, 0x28), 0x5af43d82803e903d91602b57fd5bf30000000000000000000000000000000000)\n      instance := create(0, ptr, 0x37)\n    }\n    require(instance != address(0), \"ERC1167: create failed\");\n  }\n\n  function _clone(\n    string memory _name,\n    string memory _symbol,\n    string memory _contractURI,\n    uint96 pct,\n    address royaltyReciever,\n    string memory projectId\n  ) external {\n\n    address identicalChild = clone(implementation);\n    allClones[msg.sender].push(identicalChild);\n    projectIdToAddress[projectId] = identicalChild;\n    ILayerr1155(identicalChild).initialize(\n      _name,\n      _symbol,\n      _contractURI,\n      pct,\n      royaltyReciever,\n      LayerrXYZ\n    );\n  }\n\n  function returnClones(address _owner) external view returns (address[] memory){\n      return allClones[_owner];\n  }\n\n}",
  "sourcePath": "/Users/jack/cryptotech/nimany-1155/contracts/Layerr1155Factory.sol",
  "compiler": {
    "name": "solc",
    "version": "0.8.13+commit.abaa5c0e.Emscripten.clang"
  },
  "schemaVersion": "3.4.10",
  "updatedAt": "2023-01-17T21:22:39.823Z",
  "networkType": "ethereum",
  "devdoc": {
    "kind": "dev",
    "methods": {
      "owner()": {
        "details": "Returns the address of the current owner."
      },
      "renounceOwnership()": {
        "details": "Leaves the contract without owner. It will not be possible to call `onlyOwner` functions anymore. Can only be called by the current owner. NOTE: Renouncing ownership will leave the contract without an owner, thereby removing any functionality that is only available to the owner."
      },
      "transferOwnership(address)": {
        "details": "Transfers ownership of the contract to a new account (`newOwner`). Can only be called by the current owner."
      }
    },
    "version": 1
  },
  "userdoc": {
    "kind": "user",
    "methods": {},
    "version": 1
  }
}