{
  "contractName": "Layerr721",
  "abi": [
    {
      "inputs": [
        {
          "internalType": "address",
          "name": "operator",
          "type": "address"
        }
      ],
      "name": "OperatorNotAllowed",
      "type": "error"
    },
    {
      "anonymous": false,
      "inputs": [
        {
          "indexed": true,
          "internalType": "address",
          "name": "owner",
          "type": "address"
        },
        {
          "indexed": true,
          "internalType": "address",
          "name": "spender",
          "type": "address"
        },
        {
          "indexed": true,
          "internalType": "uint256",
          "name": "id",
          "type": "uint256"
        }
      ],
      "name": "Approval",
      "type": "event"
    },
    {
      "anonymous": false,
      "inputs": [
        {
          "indexed": true,
          "internalType": "address",
          "name": "owner",
          "type": "address"
        },
        {
          "indexed": true,
          "internalType": "address",
          "name": "operator",
          "type": "address"
        },
        {
          "indexed": false,
          "internalType": "bool",
          "name": "approved",
          "type": "bool"
        }
      ],
      "name": "ApprovalForAll",
      "type": "event"
    },
    {
      "anonymous": false,
      "inputs": [
        {
          "indexed": false,
          "internalType": "uint8",
          "name": "version",
          "type": "uint8"
        }
      ],
      "name": "Initialized",
      "type": "event"
    },
    {
      "anonymous": false,
      "inputs": [
        {
          "indexed": true,
          "internalType": "address",
          "name": "from",
          "type": "address"
        },
        {
          "indexed": true,
          "internalType": "address",
          "name": "to",
          "type": "address"
        },
        {
          "indexed": true,
          "internalType": "uint256",
          "name": "id",
          "type": "uint256"
        }
      ],
      "name": "Transfer",
      "type": "event"
    },
    {
      "inputs": [],
      "name": "LayerrXYZ",
      "outputs": [
        {
          "internalType": "address",
          "name": "",
          "type": "address"
        }
      ],
      "stateMutability": "view",
      "type": "function",
      "constant": true
    },
    {
      "inputs": [],
      "name": "OPERATOR_FILTER_REGISTRY",
      "outputs": [
        {
          "internalType": "contract IOperatorFilterRegistry",
          "name": "",
          "type": "address"
        }
      ],
      "stateMutability": "view",
      "type": "function",
      "constant": true
    },
    {
      "inputs": [
        {
          "internalType": "uint256",
          "name": "",
          "type": "uint256"
        }
      ],
      "name": "URIs",
      "outputs": [
        {
          "internalType": "string",
          "name": "",
          "type": "string"
        }
      ],
      "stateMutability": "view",
      "type": "function",
      "constant": true
    },
    {
      "inputs": [
        {
          "internalType": "address",
          "name": "owner",
          "type": "address"
        }
      ],
      "name": "balanceOf",
      "outputs": [
        {
          "internalType": "uint256",
          "name": "",
          "type": "uint256"
        }
      ],
      "stateMutability": "view",
      "type": "function",
      "constant": true
    },
    {
      "inputs": [],
      "name": "contractURI_",
      "outputs": [
        {
          "internalType": "string",
          "name": "",
          "type": "string"
        }
      ],
      "stateMutability": "view",
      "type": "function",
      "constant": true
    },
    {
      "inputs": [
        {
          "internalType": "uint256",
          "name": "",
          "type": "uint256"
        }
      ],
      "name": "getApproved",
      "outputs": [
        {
          "internalType": "address",
          "name": "",
          "type": "address"
        }
      ],
      "stateMutability": "view",
      "type": "function",
      "constant": true
    },
    {
      "inputs": [
        {
          "internalType": "address",
          "name": "",
          "type": "address"
        },
        {
          "internalType": "address",
          "name": "",
          "type": "address"
        }
      ],
      "name": "isApprovedForAll",
      "outputs": [
        {
          "internalType": "bool",
          "name": "",
          "type": "bool"
        }
      ],
      "stateMutability": "view",
      "type": "function",
      "constant": true
    },
    {
      "inputs": [
        {
          "internalType": "uint256",
          "name": "",
          "type": "uint256"
        }
      ],
      "name": "isAuction",
      "outputs": [
        {
          "internalType": "bool",
          "name": "",
          "type": "bool"
        }
      ],
      "stateMutability": "view",
      "type": "function",
      "constant": true
    },
    {
      "inputs": [],
      "name": "name",
      "outputs": [
        {
          "internalType": "string",
          "name": "",
          "type": "string"
        }
      ],
      "stateMutability": "view",
      "type": "function",
      "constant": true
    },
    {
      "inputs": [],
      "name": "owner",
      "outputs": [
        {
          "internalType": "address",
          "name": "",
          "type": "address"
        }
      ],
      "stateMutability": "view",
      "type": "function",
      "constant": true
    },
    {
      "inputs": [
        {
          "internalType": "uint256",
          "name": "id",
          "type": "uint256"
        }
      ],
      "name": "ownerOf",
      "outputs": [
        {
          "internalType": "address",
          "name": "owner",
          "type": "address"
        }
      ],
      "stateMutability": "view",
      "type": "function",
      "constant": true
    },
    {
      "inputs": [
        {
          "internalType": "uint256",
          "name": "_tokenId",
          "type": "uint256"
        },
        {
          "internalType": "uint256",
          "name": "_salePrice",
          "type": "uint256"
        }
      ],
      "name": "royaltyInfo",
      "outputs": [
        {
          "internalType": "address",
          "name": "",
          "type": "address"
        },
        {
          "internalType": "uint256",
          "name": "",
          "type": "uint256"
        }
      ],
      "stateMutability": "view",
      "type": "function",
      "constant": true
    },
    {
      "inputs": [],
      "name": "symbol",
      "outputs": [
        {
          "internalType": "string",
          "name": "",
          "type": "string"
        }
      ],
      "stateMutability": "view",
      "type": "function",
      "constant": true
    },
    {
      "inputs": [
        {
          "internalType": "uint256",
          "name": "",
          "type": "uint256"
        }
      ],
      "name": "tokenPrices",
      "outputs": [
        {
          "internalType": "uint256",
          "name": "",
          "type": "uint256"
        }
      ],
      "stateMutability": "view",
      "type": "function",
      "constant": true
    },
    {
      "inputs": [
        {
          "internalType": "uint256",
          "name": "",
          "type": "uint256"
        }
      ],
      "name": "tokenSaleEnds",
      "outputs": [
        {
          "internalType": "uint256",
          "name": "",
          "type": "uint256"
        }
      ],
      "stateMutability": "view",
      "type": "function",
      "constant": true
    },
    {
      "inputs": [
        {
          "internalType": "uint256",
          "name": "",
          "type": "uint256"
        }
      ],
      "name": "tokenSaleStarts",
      "outputs": [
        {
          "internalType": "uint256",
          "name": "",
          "type": "uint256"
        }
      ],
      "stateMutability": "view",
      "type": "function",
      "constant": true
    },
    {
      "inputs": [
        {
          "internalType": "uint256",
          "name": "_id",
          "type": "uint256"
        }
      ],
      "name": "mintFixedPrice",
      "outputs": [],
      "stateMutability": "payable",
      "type": "function",
      "payable": true
    },
    {
      "inputs": [
        {
          "internalType": "string",
          "name": "_contractURI",
          "type": "string"
        }
      ],
      "name": "setContractURI",
      "outputs": [],
      "stateMutability": "nonpayable",
      "type": "function"
    },
    {
      "inputs": [
        {
          "internalType": "string",
          "name": "_name",
          "type": "string"
        },
        {
          "internalType": "string",
          "name": "_symbol",
          "type": "string"
        },
        {
          "internalType": "string",
          "name": "_contractURI",
          "type": "string"
        },
        {
          "internalType": "uint96",
          "name": "pct",
          "type": "uint96"
        },
        {
          "internalType": "address",
          "name": "royaltyReciever",
          "type": "address"
        },
        {
          "internalType": "address",
          "name": "_LayerrXYZ",
          "type": "address"
        },
        {
          "internalType": "bool",
          "name": "subscribeOpensea",
          "type": "bool"
        }
      ],
      "name": "initialize",
      "outputs": [],
      "stateMutability": "nonpayable",
      "type": "function"
    },
    {
      "inputs": [
        {
          "internalType": "uint256",
          "name": "_id",
          "type": "uint256"
        },
        {
          "internalType": "string",
          "name": "_uri",
          "type": "string"
        },
        {
          "internalType": "uint256",
          "name": "_price",
          "type": "uint256"
        },
        {
          "internalType": "uint256",
          "name": "_saleStart",
          "type": "uint256"
        },
        {
          "internalType": "uint256",
          "name": "_saleEnd",
          "type": "uint256"
        }
      ],
      "name": "addToken",
      "outputs": [],
      "stateMutability": "nonpayable",
      "type": "function"
    },
    {
      "inputs": [
        {
          "internalType": "uint256",
          "name": "_id",
          "type": "uint256"
        },
        {
          "internalType": "uint256",
          "name": "_saleStart",
          "type": "uint256"
        },
        {
          "internalType": "uint256",
          "name": "_saleEnd",
          "type": "uint256"
        }
      ],
      "name": "modifySalePeriod",
      "outputs": [],
      "stateMutability": "nonpayable",
      "type": "function"
    },
    {
      "inputs": [
        {
          "internalType": "address",
          "name": "receiver",
          "type": "address"
        },
        {
          "internalType": "uint96",
          "name": "feeNumerator",
          "type": "uint96"
        },
        {
          "internalType": "string",
          "name": "_name",
          "type": "string"
        },
        {
          "internalType": "string",
          "name": "_symbol",
          "type": "string"
        }
      ],
      "name": "editContract",
      "outputs": [],
      "stateMutability": "nonpayable",
      "type": "function"
    },
    {
      "inputs": [],
      "name": "withdraw",
      "outputs": [],
      "stateMutability": "nonpayable",
      "type": "function"
    },
    {
      "inputs": [],
      "name": "contractURI",
      "outputs": [
        {
          "internalType": "string",
          "name": "",
          "type": "string"
        }
      ],
      "stateMutability": "view",
      "type": "function",
      "constant": true
    },
    {
      "inputs": [
        {
          "internalType": "uint256",
          "name": "tokenId",
          "type": "uint256"
        }
      ],
      "name": "tokenURI",
      "outputs": [
        {
          "internalType": "string",
          "name": "",
          "type": "string"
        }
      ],
      "stateMutability": "view",
      "type": "function",
      "constant": true
    },
    {
      "inputs": [
        {
          "internalType": "address",
          "name": "operator",
          "type": "address"
        },
        {
          "internalType": "bool",
          "name": "approved",
          "type": "bool"
        }
      ],
      "name": "setApprovalForAll",
      "outputs": [],
      "stateMutability": "nonpayable",
      "type": "function"
    },
    {
      "inputs": [
        {
          "internalType": "address",
          "name": "operator",
          "type": "address"
        },
        {
          "internalType": "uint256",
          "name": "tokenId",
          "type": "uint256"
        }
      ],
      "name": "approve",
      "outputs": [],
      "stateMutability": "nonpayable",
      "type": "function"
    },
    {
      "inputs": [
        {
          "internalType": "address",
          "name": "from",
          "type": "address"
        },
        {
          "internalType": "address",
          "name": "to",
          "type": "address"
        },
        {
          "internalType": "uint256",
          "name": "tokenId",
          "type": "uint256"
        }
      ],
      "name": "transferFrom",
      "outputs": [],
      "stateMutability": "nonpayable",
      "type": "function"
    },
    {
      "inputs": [
        {
          "internalType": "address",
          "name": "from",
          "type": "address"
        },
        {
          "internalType": "address",
          "name": "to",
          "type": "address"
        },
        {
          "internalType": "uint256",
          "name": "tokenId",
          "type": "uint256"
        }
      ],
      "name": "safeTransferFrom",
      "outputs": [],
      "stateMutability": "nonpayable",
      "type": "function"
    },
    {
      "inputs": [
        {
          "internalType": "address",
          "name": "from",
          "type": "address"
        },
        {
          "internalType": "address",
          "name": "to",
          "type": "address"
        },
        {
          "internalType": "uint256",
          "name": "tokenId",
          "type": "uint256"
        },
        {
          "internalType": "bytes",
          "name": "data",
          "type": "bytes"
        }
      ],
      "name": "safeTransferFrom",
      "outputs": [],
      "stateMutability": "nonpayable",
      "type": "function"
    },
    {
      "inputs": [
        {
          "internalType": "bytes4",
          "name": "interfaceId",
          "type": "bytes4"
        }
      ],
      "name": "supportsInterface",
      "outputs": [
        {
          "internalType": "bool",
          "name": "",
          "type": "bool"
        }
      ],
      "stateMutability": "view",
      "type": "function",
      "constant": true
    }
  ],
  "bytecode": "0x60806040523480156200001157600080fd5b50733cc6cdda760b79bafa08df41ecfa224f810dceb660016daaeb6d7670e522a718067333cd4e3b156200016e578015620000bc57604051633e9f1edf60e11b81523060048201526001600160a01b03831660248201526daaeb6d7670e522a718067333cd4e90637d3e3dbe906044015b600060405180830381600087803b1580156200009d57600080fd5b505af1158015620000b2573d6000803e3d6000fd5b505050506200016e565b6001600160a01b038216156200010d5760405163a0af290360e01b81523060048201526001600160a01b03831660248201526daaeb6d7670e522a718067333cd4e9063a0af29039060440162000082565b604051632210724360e11b81523060048201526daaeb6d7670e522a718067333cd4e90634420e48690602401600060405180830381600087803b1580156200015457600080fd5b505af115801562000169573d6000803e3d6000fd5b505050505b505061221f80620001806000396000f3fe6080604052600436106101d85760003560e01c806370a0823111610102578063b932727711610095578063e5afe3e611610064578063e5afe3e6146105bc578063e8a3d485146105e9578063e985e9c5146105fe578063eec65d3c1461063957600080fd5b8063b93272771461053c578063c87b56dd1461055c578063cdaff2831461057c578063e0efbf321461059c57600080fd5b8063953f97aa116100d1578063953f97aa146104c757806395d89b41146104e7578063a22cb465146104fc578063b88d4fde1461051c57600080fd5b806370a08231146104375780638704f2a3146104575780638da5cb5b14610487578063938e3d7b146104a757600080fd5b806335a6907a1161017a57806341f434341161014957806341f43434146103a857806342842e0e146103ca5780635710f6fa146103ea5780636352211e1461041757600080fd5b806335a6907a146103235780633adef28d146103385780633ca2f2a9146103735780633ccfd60b1461039357600080fd5b8063095ea7b3116101b6578063095ea7b31461028257806323b872dd146102a45780632a55205a146102c457806332e350c71461030357600080fd5b806301ffc9a7146101dd57806306fdde0314610212578063081812fc14610234575b600080fd5b3480156101e957600080fd5b506101fd6101f8366004611b95565b61064c565b60405190151581526020015b60405180910390f35b34801561021e57600080fd5b5061022761066c565b6040516102099190611bb9565b34801561024057600080fd5b5061026a61024f366004611c0e565b6003602052600090815260409020546001600160a01b031681565b6040516001600160a01b039091168152602001610209565b34801561028e57600080fd5b506102a261029d366004611c3e565b6106fa565b005b3480156102b057600080fd5b506102a26102bf366004611c68565b610713565b3480156102d057600080fd5b506102e46102df366004611ca4565b61073e565b604080516001600160a01b039093168352602083019190915201610209565b34801561030f57600080fd5b50600d5461026a906001600160a01b031681565b34801561032f57600080fd5b506102276107f9565b34801561034457600080fd5b50610365610353366004611c0e565b600a6020526000908152604090205481565b604051908152602001610209565b34801561037f57600080fd5b506102a261038e366004611d69565b610806565b34801561039f57600080fd5b506102a261089b565b3480156103b457600080fd5b5061026a6daaeb6d7670e522a718067333cd4e81565b3480156103d657600080fd5b506102a26103e5366004611c68565b6109e7565b3480156103f657600080fd5b50610365610405366004611c0e565b60096020526000908152604090205481565b34801561042357600080fd5b5061026a610432366004611c0e565b610a0c565b34801561044357600080fd5b50610365610452366004611dcb565b610a76565b34801561046357600080fd5b506101fd610472366004611c0e565b600b6020526000908152604090205460ff1681565b34801561049357600080fd5b50600c5461026a906001600160a01b031681565b3480156104b357600080fd5b506102a26104c2366004611de6565b610aea565b3480156104d357600080fd5b506102276104e2366004611c0e565b610b3f565b3480156104f357600080fd5b50610227610b58565b34801561050857600080fd5b506102a2610517366004611e31565b610b65565b34801561052857600080fd5b506102a2610537366004611e68565b610b79565b34801561054857600080fd5b506102a2610557366004611f1f565b610ba8565b34801561056857600080fd5b50610227610577366004611c0e565b610c22565b34801561058857600080fd5b506102a2610597366004611fa4565b610d27565b3480156105a857600080fd5b506102a26105b7366004612073565b610f6b565b3480156105c857600080fd5b506103656105d7366004611c0e565b60086020526000908152604090205481565b3480156105f557600080fd5b50610227610fcb565b34801561060a57600080fd5b506101fd61061936600461209f565b600460209081526000928352604080842090915290825290205460ff1681565b6102a2610647366004611c0e565b61105d565b600061065782611184565b80610666575061066682611204565b92915050565b600e8054610679906120d2565b80601f01602080910402602001604051908101604052809291908181526020018280546106a5906120d2565b80156106f25780601f106106c7576101008083540402835291602001916106f2565b820191906000526020600020905b8154815290600101906020018083116106d557829003601f168201915b505050505081565b8161070481611252565b61070e838361133d565b505050565b826001600160a01b038116331461072d5761072d33611252565b61073884848461143b565b50505050565b60008281526006602090815260408083208151808301909252546001600160a01b038116808352600160a01b9091046bffffffffffffffffffffffff169282019290925282916107bd5750604080518082019091526005546001600160a01b0381168252600160a01b90046bffffffffffffffffffffffff1660208201525b6020810151600090612710906107e1906bffffffffffffffffffffffff168761210c565b6107eb9190612139565b915196919550909350505050565b600f8054610679906120d2565b600c546001600160a01b0316331461084d5760405162461bcd60e51b815260206004820152600560248201526422a92927a960d91b60448201526064015b60405180910390fd5b6000858152600760209081526040909120855161086c92870190611ae6565b506000948552600860209081526040808720949094556009815283862092909255600a90915292209190915550565b600c546001600160a01b03163314806108be5750600d546001600160a01b031633145b61090a5760405162461bcd60e51b815260206004820152601360248201527f4e6f74206f776e6572206f72204c6179657272000000000000000000000000006044820152606401610844565b3332146109595760405162461bcd60e51b815260206004820152601f60248201527f43616e6e6f742077697468647261772066726f6d206120636f6e7472616374006044820152606401610844565b600d5447906001600160a01b03166108fc606461097784600561210c565b6109819190612139565b6040518115909202916000818181858888f193505050501580156109a9573d6000803e3d6000fd5b50600c546040516001600160a01b03909116904780156108fc02916000818181858888f193505050501580156109e3573d6000803e3d6000fd5b5050565b826001600160a01b0381163314610a0157610a0133611252565b61073884848461163e565b6000818152600160205260409020546001600160a01b031680610a715760405162461bcd60e51b815260206004820152600a60248201527f4e4f545f4d494e544544000000000000000000000000000000000000000000006044820152606401610844565b919050565b60006001600160a01b038216610ace5760405162461bcd60e51b815260206004820152600c60248201527f5a45524f5f4144445245535300000000000000000000000000000000000000006044820152606401610844565b506001600160a01b031660009081526002602052604090205490565b600c546001600160a01b03163314610b2c5760405162461bcd60e51b815260206004820152600560248201526422a92927a960d91b6044820152606401610844565b80516109e390600f906020840190611ae6565b60076020526000908152604090208054610679906120d2565b60108054610679906120d2565b81610b6f81611252565b61070e838361173e565b846001600160a01b0381163314610b9357610b9333611252565b610ba086868686866117aa565b505050505050565b600c546001600160a01b03163314610bea5760405162461bcd60e51b815260206004820152600560248201526422a92927a960d91b6044820152606401610844565b610bf48484611898565b8151610c0790600e906020850190611ae6565b508051610c1b906010906020840190611ae6565b5050505050565b6000818152600160205260409020546060906001600160a01b0316610c895760405162461bcd60e51b815260206004820152600a60248201527f4e4f545f4d494e544544000000000000000000000000000000000000000000006044820152606401610844565b60008281526007602052604090208054610ca2906120d2565b80601f0160208091040260200160405190810160405280929190818152602001828054610cce906120d2565b8015610d1b5780601f10610cf057610100808354040283529160200191610d1b565b820191906000526020600020905b815481529060010190602001808311610cfe57829003601f168201915b50505050509050919050565b600054610100900460ff1615808015610d475750600054600160ff909116105b80610d615750303b158015610d61575060005460ff166001145b610dd35760405162461bcd60e51b815260206004820152602e60248201527f496e697469616c697a61626c653a20636f6e747261637420697320616c72656160448201527f647920696e697469616c697a65640000000000000000000000000000000000006064820152608401610844565b6000805460ff191660011790558015610df6576000805461ff0019166101001790555b600c805473ffffffffffffffffffffffffffffffffffffffff1916321790558751610e2890600e9060208b0190611ae6565b508651610e3c9060109060208a0190611ae6565b508551610e5090600f906020890190611ae6565b50610e5b8486611898565b600d805473ffffffffffffffffffffffffffffffffffffffff19166001600160a01b0385161790558115610f1b576040517f7d3e3dbe000000000000000000000000000000000000000000000000000000008152306004820152733cc6cdda760b79bafa08df41ecfa224f810dceb660248201526daaeb6d7670e522a718067333cd4e90637d3e3dbe90604401600060405180830381600087803b158015610f0257600080fd5b505af1158015610f16573d6000803e3d6000fd5b505050505b8015610f61576000805461ff0019169055604051600181527f7f26b83ff96e1f2b6a682f133852f6798a09c465da95921460cefb38474024989060200160405180910390a15b5050505050505050565b600c546001600160a01b03163314610fad5760405162461bcd60e51b815260206004820152600560248201526422a92927a960d91b6044820152606401610844565b600092835260096020908152604080852093909355600a9052912055565b6060600f8054610fda906120d2565b80601f0160208091040260200160405190810160405280929190818152602001828054611006906120d2565b80156110535780601f1061102857610100808354040283529160200191611053565b820191906000526020600020905b81548152906001019060200180831161103657829003601f168201915b5050505050905090565b6000818152600960205260409020544210156110bb5760405162461bcd60e51b815260206004820152601460248201527f53616c6520686173206e6f7420737461727465640000000000000000000000006044820152606401610844565b6000818152600a60205260409020544211156111195760405162461bcd60e51b815260206004820152600e60248201527f53616c652068617320656e6465640000000000000000000000000000000000006044820152606401610844565b6000818152600860205260409020543410156111775760405162461bcd60e51b815260206004820152601560248201527f496e636f727265637420616d6f756e742073656e7400000000000000000000006044820152606401610844565b61118133826119b2565b50565b60006301ffc9a760e01b6001600160e01b0319831614806111ce57507f80ac58cd000000000000000000000000000000000000000000000000000000006001600160e01b03198316145b806106665750506001600160e01b0319167f5b5e139f000000000000000000000000000000000000000000000000000000001490565b60006001600160e01b031982167f2a55205a00000000000000000000000000000000000000000000000000000000148061066657506301ffc9a760e01b6001600160e01b0319831614610666565b6daaeb6d7670e522a718067333cd4e3b15611181576040517fc61711340000000000000000000000000000000000000000000000000000000081523060048201526001600160a01b03821660248201526daaeb6d7670e522a718067333cd4e9063c617113490604401602060405180830381865afa1580156112d8573d6000803e3d6000fd5b505050506040513d601f19601f820116820180604052508101906112fc919061215b565b611181576040517fede71dcc0000000000000000000000000000000000000000000000000000000081526001600160a01b0382166004820152602401610844565b6000818152600160205260409020546001600160a01b03163381148061138657506001600160a01b038116600090815260046020908152604080832033845290915290205460ff165b6113d25760405162461bcd60e51b815260206004820152600e60248201527f4e4f545f415554484f52495a45440000000000000000000000000000000000006044820152606401610844565b600082815260036020526040808220805473ffffffffffffffffffffffffffffffffffffffff19166001600160a01b0387811691821790925591518593918516917f8c5be1e5ebec7d5bd14f71427d1e84f3dd0314c0f7b2291e5b200ac8c7c3b92591a4505050565b6000818152600160205260409020546001600160a01b038481169116146114a45760405162461bcd60e51b815260206004820152600a60248201527f57524f4e475f46524f4d000000000000000000000000000000000000000000006044820152606401610844565b6001600160a01b0382166114fa5760405162461bcd60e51b815260206004820152601160248201527f494e56414c49445f524543495049454e540000000000000000000000000000006044820152606401610844565b336001600160a01b038416148061153457506001600160a01b038316600090815260046020908152604080832033845290915290205460ff165b8061155557506000818152600360205260409020546001600160a01b031633145b6115a15760405162461bcd60e51b815260206004820152600e60248201527f4e4f545f415554484f52495a45440000000000000000000000000000000000006044820152606401610844565b6001600160a01b0380841660008181526002602090815260408083208054600019019055938616808352848320805460019081019091558684528252848320805473ffffffffffffffffffffffffffffffffffffffff199081168317909155600390925284832080549092169091559251849392917fddf252ad1be2c89b69c2b068fc378daa952ba7f163c4a11628f55a4df523b3ef91a4505050565b611649838383610713565b6001600160a01b0382163b15806116f25750604051630a85bd0160e11b8082523360048301526001600160a01b03858116602484015260448301849052608060648401526000608484015290919084169063150b7a029060a4016020604051808303816000875af11580156116c2573d6000803e3d6000fd5b505050506040513d601f19601f820116820180604052508101906116e69190612178565b6001600160e01b031916145b61070e5760405162461bcd60e51b815260206004820152601060248201527f554e534146455f524543495049454e54000000000000000000000000000000006044820152606401610844565b3360008181526004602090815260408083206001600160a01b03871680855290835292819020805460ff191686151590811790915590519081529192917f17307eab39ab6107e8899845ad3d59bd9653f200f220920489ca2b5937696c31910160405180910390a35050565b6117b5858585610713565b6001600160a01b0384163b158061184c5750604051630a85bd0160e11b808252906001600160a01b0386169063150b7a02906117fd9033908a90899089908990600401612195565b6020604051808303816000875af115801561181c573d6000803e3d6000fd5b505050506040513d601f19601f820116820180604052508101906118409190612178565b6001600160e01b031916145b610c1b5760405162461bcd60e51b815260206004820152601060248201527f554e534146455f524543495049454e54000000000000000000000000000000006044820152606401610844565b6127106bffffffffffffffffffffffff8216111561191e5760405162461bcd60e51b815260206004820152602a60248201527f455243323938313a20726f79616c7479206665652077696c6c2065786365656460448201527f2073616c655072696365000000000000000000000000000000000000000000006064820152608401610844565b6001600160a01b0382166119745760405162461bcd60e51b815260206004820152601960248201527f455243323938313a20696e76616c6964207265636569766572000000000000006044820152606401610844565b604080518082019091526001600160a01b039092168083526bffffffffffffffffffffffff9091166020909201829052600160a01b90910217600555565b6001600160a01b038216611a085760405162461bcd60e51b815260206004820152601160248201527f494e56414c49445f524543495049454e540000000000000000000000000000006044820152606401610844565b6000818152600160205260409020546001600160a01b031615611a6d5760405162461bcd60e51b815260206004820152600e60248201527f414c52454144595f4d494e5445440000000000000000000000000000000000006044820152606401610844565b6001600160a01b038216600081815260026020908152604080832080546001908101909155858452909152808220805473ffffffffffffffffffffffffffffffffffffffff19168417905551839291907fddf252ad1be2c89b69c2b068fc378daa952ba7f163c4a11628f55a4df523b3ef908290a45050565b828054611af2906120d2565b90600052602060002090601f016020900481019282611b145760008555611b5a565b82601f10611b2d57805160ff1916838001178555611b5a565b82800160010185558215611b5a579182015b82811115611b5a578251825591602001919060010190611b3f565b50611b66929150611b6a565b5090565b5b80821115611b665760008155600101611b6b565b6001600160e01b03198116811461118157600080fd5b600060208284031215611ba757600080fd5b8135611bb281611b7f565b9392505050565b600060208083528351808285015260005b81811015611be657858101830151858201604001528201611bca565b81811115611bf8576000604083870101525b50601f01601f1916929092016040019392505050565b600060208284031215611c2057600080fd5b5035919050565b80356001600160a01b0381168114610a7157600080fd5b60008060408385031215611c5157600080fd5b611c5a83611c27565b946020939093013593505050565b600080600060608486031215611c7d57600080fd5b611c8684611c27565b9250611c9460208501611c27565b9150604084013590509250925092565b60008060408385031215611cb757600080fd5b50508035926020909101359150565b634e487b7160e01b600052604160045260246000fd5b600082601f830112611ced57600080fd5b813567ffffffffffffffff80821115611d0857611d08611cc6565b604051601f8301601f19908116603f01168101908282118183101715611d3057611d30611cc6565b81604052838152866020858801011115611d4957600080fd5b836020870160208301376000602085830101528094505050505092915050565b600080600080600060a08688031215611d8157600080fd5b85359450602086013567ffffffffffffffff811115611d9f57600080fd5b611dab88828901611cdc565b959895975050505060408401359360608101359360809091013592509050565b600060208284031215611ddd57600080fd5b611bb282611c27565b600060208284031215611df857600080fd5b813567ffffffffffffffff811115611e0f57600080fd5b611e1b84828501611cdc565b949350505050565b801515811461118157600080fd5b60008060408385031215611e4457600080fd5b611e4d83611c27565b91506020830135611e5d81611e23565b809150509250929050565b600080600080600060808688031215611e8057600080fd5b611e8986611c27565b9450611e9760208701611c27565b935060408601359250606086013567ffffffffffffffff80821115611ebb57600080fd5b818801915088601f830112611ecf57600080fd5b813581811115611ede57600080fd5b896020828501011115611ef057600080fd5b9699959850939650602001949392505050565b80356bffffffffffffffffffffffff81168114610a7157600080fd5b60008060008060808587031215611f3557600080fd5b611f3e85611c27565b9350611f4c60208601611f03565b9250604085013567ffffffffffffffff80821115611f6957600080fd5b611f7588838901611cdc565b93506060870135915080821115611f8b57600080fd5b50611f9887828801611cdc565b91505092959194509250565b600080600080600080600060e0888a031215611fbf57600080fd5b873567ffffffffffffffff80821115611fd757600080fd5b611fe38b838c01611cdc565b985060208a0135915080821115611ff957600080fd5b6120058b838c01611cdc565b975060408a013591508082111561201b57600080fd5b506120288a828b01611cdc565b95505061203760608901611f03565b935061204560808901611c27565b925061205360a08901611c27565b915060c088013561206381611e23565b8091505092959891949750929550565b60008060006060848603121561208857600080fd5b505081359360208301359350604090920135919050565b600080604083850312156120b257600080fd5b6120bb83611c27565b91506120c960208401611c27565b90509250929050565b600181811c908216806120e657607f821691505b60208210810361210657634e487b7160e01b600052602260045260246000fd5b50919050565b600081600019048311821515161561213457634e487b7160e01b600052601160045260246000fd5b500290565b60008261215657634e487b7160e01b600052601260045260246000fd5b500490565b60006020828403121561216d57600080fd5b8151611bb281611e23565b60006020828403121561218a57600080fd5b8151611bb281611b7f565b60006001600160a01b03808816835280871660208401525084604083015260806060830152826080830152828460a0840137600060a0848401015260a0601f19601f8501168301019050969550505050505056fea2646970667358221220d0f9be783987eda66f4b41a3ee5f09df65b2c2b929a10d9d9067b6a482fe64f464736f6c634300080d0033",
  "immutableReferences": {},
  "source": "// SPDX-License-Identifier: MIT\npragma solidity >=0.8.0 <0.9.0;\n\nimport \"./ERC721.sol\";\nimport \"@openzeppelin/contracts/utils/cryptography/ECDSA.sol\";\nimport \"@openzeppelin/contracts/token/common/ERC2981.sol\";\nimport \"@openzeppelin/contracts/proxy/utils/Initializable.sol\";\nimport \"operator-filter-registry/src/DefaultOperatorFilterer.sol\";\n\ncontract Layerr721 is DefaultOperatorFilterer, Initializable, ERC721, ERC2981 {\n  mapping(uint => string) public URIs;\n  mapping(uint => uint) public tokenPrices;\n  mapping(uint => uint) public tokenSaleStarts;\n  mapping(uint => uint) public tokenSaleEnds;\n  mapping(uint => bool) public isAuction;\n\n\n  address public owner;\n  address public LayerrXYZ;\n\n  string public name;\n  string public contractURI_;\n  string public symbol;\n\n  modifier onlyOwner() {\n    require(msg.sender == owner, \"ERROR\");\n    _;\n  }\n\n  function mintFixedPrice(uint _id) public payable {\n    require(block.timestamp >= tokenSaleStarts[_id], \"Sale has not started\");\n    require(block.timestamp <= tokenSaleEnds[_id], \"Sale has ended\");\n    require(tokenPrices[_id] <= msg.value, \"Incorrect amount sent\");\n\n    _mint(msg.sender, _id);\n  }\n\n  /*\n  * OWNER FUNCTIONS\n  */\n  function setContractURI(string memory _contractURI) public onlyOwner {\n    contractURI_ = _contractURI;\n  }\n\n  function initialize (\n    string memory _name,\n    string memory _symbol,\n    string memory _contractURI,\n    uint96 pct,\n    address royaltyReciever,\n    address _LayerrXYZ,\n    bool subscribeOpensea\n  ) public initializer {\n    owner = tx.origin;\n    name = _name;\n    symbol = _symbol;\n    contractURI_ = _contractURI;\n    _setDefaultRoyalty(royaltyReciever, pct);\n    LayerrXYZ = _LayerrXYZ;\n\n    if (subscribeOpensea) {\n      OperatorFilterer.OPERATOR_FILTER_REGISTRY.registerAndSubscribe(address(this), address(0x3cc6CddA760b79bAfa08dF41ECFA224f810dCeB6));\n    }\n  }\n\n  function addToken(\n    uint _id,\n    string memory _uri,\n    uint _price,\n    uint _saleStart,\n    uint _saleEnd\n  ) public onlyOwner {\n    URIs[_id] = _uri;\n    tokenPrices[_id] = _price;\n    tokenSaleStarts[_id] = _saleStart;\n    tokenSaleEnds[_id] = _saleEnd;\n  }\n\n  function modifySalePeriod(uint _id, uint _saleStart, uint _saleEnd) public onlyOwner {\n    tokenSaleStarts[_id] = _saleStart;\n    tokenSaleEnds[_id] = _saleEnd;\n  }\n\n\n  /** OWNER FUNCTIONS */\n  function editContract (address receiver, uint96 feeNumerator, string memory _name, string memory _symbol) external onlyOwner {\n    _setDefaultRoyalty(receiver, feeNumerator);\n    name = _name;\n    symbol = _symbol;\n  }\n\n  function withdraw() public {\n    require(msg.sender == owner || msg.sender == LayerrXYZ, \"Not owner or Layerr\");\n    require(msg.sender == tx.origin, \"Cannot withdraw from a contract\");\n    uint256 contractBalance = address(this).balance;\n\n    // Send 5% of the contract balance to the LayerrXYZ wallet address\n    payable(LayerrXYZ).transfer(contractBalance * 5 / 100);\n\n    // Send the remaining balance to the owner\n    payable(owner).transfer(address(this).balance);\n  }\n\n  /** METADATA FUNCTIONS */\n  function contractURI() public view returns (string memory) {\n    return contractURI_;\n  }\n\n  function tokenURI(uint256 tokenId) public view virtual override returns (string memory) {\n    require(_ownerOf[tokenId] != address(0), \"NOT_MINTED\");\n    return URIs[tokenId];\n  }\n\n  /** OPENSEA OVERRIDES */\n  function setApprovalForAll(address operator, bool approved) public override onlyAllowedOperatorApproval(operator) {\n      super.setApprovalForAll(operator, approved);\n  }\n\n  function approve(address operator, uint256 tokenId) public override onlyAllowedOperatorApproval(operator) {\n      super.approve(operator, tokenId);\n  }\n\n  function transferFrom(address from, address to, uint256 tokenId) public override onlyAllowedOperator(from) {\n      super.transferFrom(from, to, tokenId);\n  }\n\n  function safeTransferFrom(address from, address to, uint256 tokenId) public override onlyAllowedOperator(from) {\n      super.safeTransferFrom(from, to, tokenId);\n  }\n\n  function safeTransferFrom(address from, address to, uint256 tokenId, bytes calldata data) public override onlyAllowedOperator(from) {\n      super.safeTransferFrom(from, to, tokenId, data);\n  }\n\n  function supportsInterface(bytes4 interfaceId) public view virtual override(ERC721, ERC2981) returns (bool) {\n    return \n      ERC721.supportsInterface(interfaceId) ||\n      ERC2981.supportsInterface(interfaceId);\n  }\n}\n",
  "sourcePath": "/Users/jack/cryptotech/nimany-1155/contracts/Layerr721.sol",
  "compiler": {
    "name": "solc",
    "version": "0.8.13+commit.abaa5c0e.Emscripten.clang"
  },
  "schemaVersion": "3.4.10",
  "updatedAt": "2023-02-16T21:18:27.463Z",
  "networkType": "ethereum",
  "devdoc": {
    "kind": "dev",
    "methods": {
      "royaltyInfo(uint256,uint256)": {
        "details": "Returns how much royalty is owed and to whom, based on a sale price that may be denominated in any unit of exchange. The royalty amount is denominated and should be paid in that same unit of exchange."
      }
    },
    "version": 1
  },
  "userdoc": {
    "kind": "user",
    "methods": {
      "contractURI()": {
        "notice": "METADATA FUNCTIONS "
      },
      "editContract(address,uint96,string,string)": {
        "notice": "OWNER FUNCTIONS "
      },
      "setApprovalForAll(address,bool)": {
        "notice": "OPENSEA OVERRIDES "
      }
    },
    "version": 1
  }
}