{
  "contractName": "NIMANYGoldPass",
  "abi": [
    {
      "anonymous": false,
      "inputs": [
        {
          "indexed": true,
          "internalType": "address",
          "name": "owner",
          "type": "address"
        },
        {
          "indexed": true,
          "internalType": "address",
          "name": "operator",
          "type": "address"
        },
        {
          "indexed": false,
          "internalType": "bool",
          "name": "approved",
          "type": "bool"
        }
      ],
      "name": "ApprovalForAll",
      "type": "event"
    },
    {
      "anonymous": false,
      "inputs": [
        {
          "indexed": true,
          "internalType": "address",
          "name": "previousOwner",
          "type": "address"
        },
        {
          "indexed": true,
          "internalType": "address",
          "name": "newOwner",
          "type": "address"
        }
      ],
      "name": "OwnershipTransferred",
      "type": "event"
    },
    {
      "anonymous": false,
      "inputs": [
        {
          "indexed": true,
          "internalType": "address",
          "name": "operator",
          "type": "address"
        },
        {
          "indexed": true,
          "internalType": "address",
          "name": "from",
          "type": "address"
        },
        {
          "indexed": true,
          "internalType": "address",
          "name": "to",
          "type": "address"
        },
        {
          "indexed": false,
          "internalType": "uint256[]",
          "name": "ids",
          "type": "uint256[]"
        },
        {
          "indexed": false,
          "internalType": "uint256[]",
          "name": "amounts",
          "type": "uint256[]"
        }
      ],
      "name": "TransferBatch",
      "type": "event"
    },
    {
      "anonymous": false,
      "inputs": [
        {
          "indexed": true,
          "internalType": "address",
          "name": "operator",
          "type": "address"
        },
        {
          "indexed": true,
          "internalType": "address",
          "name": "from",
          "type": "address"
        },
        {
          "indexed": true,
          "internalType": "address",
          "name": "to",
          "type": "address"
        },
        {
          "indexed": false,
          "internalType": "uint256",
          "name": "id",
          "type": "uint256"
        },
        {
          "indexed": false,
          "internalType": "uint256",
          "name": "amount",
          "type": "uint256"
        }
      ],
      "name": "TransferSingle",
      "type": "event"
    },
    {
      "anonymous": false,
      "inputs": [
        {
          "indexed": false,
          "internalType": "string",
          "name": "value",
          "type": "string"
        },
        {
          "indexed": true,
          "internalType": "uint256",
          "name": "id",
          "type": "uint256"
        }
      ],
      "name": "URI",
      "type": "event"
    },
    {
      "inputs": [],
      "name": "NIMANY721Address",
      "outputs": [
        {
          "internalType": "address",
          "name": "",
          "type": "address"
        }
      ],
      "stateMutability": "view",
      "type": "function"
    },
    {
      "inputs": [
        {
          "internalType": "address",
          "name": "",
          "type": "address"
        },
        {
          "internalType": "uint256",
          "name": "",
          "type": "uint256"
        }
      ],
      "name": "balanceOf",
      "outputs": [
        {
          "internalType": "uint256",
          "name": "",
          "type": "uint256"
        }
      ],
      "stateMutability": "view",
      "type": "function"
    },
    {
      "inputs": [
        {
          "internalType": "address[]",
          "name": "owners",
          "type": "address[]"
        },
        {
          "internalType": "uint256[]",
          "name": "ids",
          "type": "uint256[]"
        }
      ],
      "name": "balanceOfBatch",
      "outputs": [
        {
          "internalType": "uint256[]",
          "name": "balances",
          "type": "uint256[]"
        }
      ],
      "stateMutability": "view",
      "type": "function"
    },
    {
      "inputs": [
        {
          "internalType": "address",
          "name": "",
          "type": "address"
        },
        {
          "internalType": "address",
          "name": "",
          "type": "address"
        }
      ],
      "name": "isApprovedForAll",
      "outputs": [
        {
          "internalType": "bool",
          "name": "",
          "type": "bool"
        }
      ],
      "stateMutability": "view",
      "type": "function"
    },
    {
      "inputs": [],
      "name": "name",
      "outputs": [
        {
          "internalType": "string",
          "name": "",
          "type": "string"
        }
      ],
      "stateMutability": "view",
      "type": "function"
    },
    {
      "inputs": [],
      "name": "owner",
      "outputs": [
        {
          "internalType": "address",
          "name": "",
          "type": "address"
        }
      ],
      "stateMutability": "view",
      "type": "function"
    },
    {
      "inputs": [],
      "name": "renounceOwnership",
      "outputs": [],
      "stateMutability": "nonpayable",
      "type": "function"
    },
    {
      "inputs": [
        {
          "internalType": "address",
          "name": "from",
          "type": "address"
        },
        {
          "internalType": "address",
          "name": "to",
          "type": "address"
        },
        {
          "internalType": "uint256[]",
          "name": "ids",
          "type": "uint256[]"
        },
        {
          "internalType": "uint256[]",
          "name": "amounts",
          "type": "uint256[]"
        },
        {
          "internalType": "bytes",
          "name": "data",
          "type": "bytes"
        }
      ],
      "name": "safeBatchTransferFrom",
      "outputs": [],
      "stateMutability": "nonpayable",
      "type": "function"
    },
    {
      "inputs": [
        {
          "internalType": "address",
          "name": "from",
          "type": "address"
        },
        {
          "internalType": "address",
          "name": "to",
          "type": "address"
        },
        {
          "internalType": "uint256",
          "name": "id",
          "type": "uint256"
        },
        {
          "internalType": "uint256",
          "name": "amount",
          "type": "uint256"
        },
        {
          "internalType": "bytes",
          "name": "data",
          "type": "bytes"
        }
      ],
      "name": "safeTransferFrom",
      "outputs": [],
      "stateMutability": "nonpayable",
      "type": "function"
    },
    {
      "inputs": [
        {
          "internalType": "address",
          "name": "operator",
          "type": "address"
        },
        {
          "internalType": "bool",
          "name": "approved",
          "type": "bool"
        }
      ],
      "name": "setApprovalForAll",
      "outputs": [],
      "stateMutability": "nonpayable",
      "type": "function"
    },
    {
      "inputs": [
        {
          "internalType": "bytes4",
          "name": "interfaceId",
          "type": "bytes4"
        }
      ],
      "name": "supportsInterface",
      "outputs": [
        {
          "internalType": "bool",
          "name": "",
          "type": "bool"
        }
      ],
      "stateMutability": "view",
      "type": "function"
    },
    {
      "inputs": [],
      "name": "symbol",
      "outputs": [
        {
          "internalType": "string",
          "name": "",
          "type": "string"
        }
      ],
      "stateMutability": "view",
      "type": "function"
    },
    {
      "inputs": [
        {
          "internalType": "address",
          "name": "newOwner",
          "type": "address"
        }
      ],
      "name": "transferOwnership",
      "outputs": [],
      "stateMutability": "nonpayable",
      "type": "function"
    },
    {
      "inputs": [
        {
          "internalType": "uint256",
          "name": "",
          "type": "uint256"
        }
      ],
      "name": "uri",
      "outputs": [
        {
          "internalType": "string",
          "name": "",
          "type": "string"
        }
      ],
      "stateMutability": "pure",
      "type": "function"
    },
    {
      "inputs": [
        {
          "internalType": "address",
          "name": "to",
          "type": "address"
        },
        {
          "internalType": "uint256",
          "name": "id",
          "type": "uint256"
        },
        {
          "internalType": "uint256",
          "name": "amount",
          "type": "uint256"
        },
        {
          "internalType": "bytes",
          "name": "data",
          "type": "bytes"
        }
      ],
      "name": "mint",
      "outputs": [],
      "stateMutability": "nonpayable",
      "type": "function"
    },
    {
      "inputs": [
        {
          "internalType": "address",
          "name": "newAddress",
          "type": "address"
        }
      ],
      "name": "setContractUri",
      "outputs": [],
      "stateMutability": "nonpayable",
      "type": "function"
    },
    {
      "inputs": [
        {
          "internalType": "address",
          "name": "to",
          "type": "address"
        },
        {
          "internalType": "uint256",
          "name": "id",
          "type": "uint256"
        },
        {
          "internalType": "uint256",
          "name": "amount",
          "type": "uint256"
        },
        {
          "internalType": "bytes",
          "name": "data",
          "type": "bytes"
        }
      ],
      "name": "realmint",
      "outputs": [],
      "stateMutability": "nonpayable",
      "type": "function"
    }
  ],
  "bytecode": "0x60806040526040518060400160405280600f81526020017f4e494d414e5920564950207061737300000000000000000000000000000000008152506004908051906020019062000051929190620001a2565b506040518060400160405280600381526020017f4e56500000000000000000000000000000000000000000000000000000000000815250600590805190602001906200009f929190620001a2565b50348015620000ad57600080fd5b50620000ce620000c2620000d460201b60201c565b620000dc60201b60201c565b620002b7565b600033905090565b6000600260009054906101000a900473ffffffffffffffffffffffffffffffffffffffff16905081600260006101000a81548173ffffffffffffffffffffffffffffffffffffffff021916908373ffffffffffffffffffffffffffffffffffffffff1602179055508173ffffffffffffffffffffffffffffffffffffffff168173ffffffffffffffffffffffffffffffffffffffff167f8be0079c531659141344cd1fd0a4f28419497f9722a3daafe3b4186f6b6457e060405160405180910390a35050565b828054620001b09062000252565b90600052602060002090601f016020900481019282620001d4576000855562000220565b82601f10620001ef57805160ff191683800117855562000220565b8280016001018555821562000220579182015b828111156200021f57825182559160200191906001019062000202565b5b5090506200022f919062000233565b5090565b5b808211156200024e57600081600090555060010162000234565b5090565b600060028204905060018216806200026b57607f821691505b6020821081141562000282576200028162000288565b5b50919050565b7f4e487b7100000000000000000000000000000000000000000000000000000000600052602260045260246000fd5b6126f980620002c76000396000f3fe608060405234801561001057600080fd5b506004361061010a5760003560e01c8063731133e9116100a2578063c22f505a11610071578063c22f505a146102a3578063e985e9c5146102c1578063f242432a146102f1578063f2fde38b1461030d578063fef79320146103295761010a565b8063731133e91461022f5780638da5cb5b1461024b57806395d89b4114610269578063a22cb465146102875761010a565b80632eb2c2d6116100de5780632eb2c2d6146101bd5780634e1273f4146101d957806360898b3414610209578063715018a6146102255761010a565b8062fdd58e1461010f57806301ffc9a71461013f57806306fdde031461016f5780630e89341c1461018d575b600080fd5b61012960048036038101906101249190611a6d565b610345565b6040516101369190612150565b60405180910390f35b61015960048036038101906101549190611bb1565b61036a565b6040516101669190612053565b60405180910390f35b6101776103fc565b604051610184919061206e565b60405180910390f35b6101a760048036038101906101a29190611c0b565b61048a565b6040516101b4919061206e565b60405180910390f35b6101d760048036038101906101d291906118b7565b6104ac565b005b6101f360048036038101906101ee9190611b30565b610917565b6040516102009190612031565b60405180910390f35b610223600480360381019061021e9190611aad565b610a80565b005b61022d610b28565b005b61024960048036038101906102449190611aad565b610bb0565b005b610253610bc2565b6040516102609190611eb7565b60405180910390f35b610271610bec565b60405161027e919061206e565b60405180910390f35b6102a1600480360381019061029c9190611a2d565b610c7a565b005b6102ab610d77565b6040516102b89190611eb7565b60405180910390f35b6102db60048036038101906102d69190611877565b610d9d565b6040516102e89190612053565b60405180910390f35b61030b60048036038101906103069190611993565b610dcc565b005b6103276004803603810190610322919061184a565b61118e565b005b610343600480360381019061033e919061184a565b611286565b005b6000602052816000526040600020602052806000526040600020600091509150505481565b60006301ffc9a760e01b827bffffffffffffffffffffffffffffffffffffffffffffffffffffffff191614806103c5575063d9b67a2660e01b827bffffffffffffffffffffffffffffffffffffffffffffffffffffffff1916145b806103f55750630e89341c60e01b827bffffffffffffffffffffffffffffffffffffffffffffffffffffffff1916145b9050919050565b600480546104099061239b565b80601f01602080910402602001604051908101604052809291908181526020018280546104359061239b565b80156104825780601f1061045757610100808354040283529160200191610482565b820191906000526020600020905b81548152906001019060200180831161046557829003601f168201915b505050505081565b606060405180606001604052806037815260200161268d603791399050919050565b8383905086869050146104f4576040517f08c379a00000000000000000000000000000000000000000000000000000000081526004016104eb90612110565b60405180910390fd5b8773ffffffffffffffffffffffffffffffffffffffff163373ffffffffffffffffffffffffffffffffffffffff1614806105b45750600160008973ffffffffffffffffffffffffffffffffffffffff1673ffffffffffffffffffffffffffffffffffffffff16815260200190815260200160002060003373ffffffffffffffffffffffffffffffffffffffff1673ffffffffffffffffffffffffffffffffffffffff16815260200190815260200160002060009054906101000a900460ff165b6105f3576040517f08c379a00000000000000000000000000000000000000000000000000000000081526004016105ea90612130565b60405180910390fd5b60008060005b88889050811015610713578888828181106106175761061661245c565b5b9050602002013592508686828181106106335761063261245c565b5b905060200201359150816000808d73ffffffffffffffffffffffffffffffffffffffff1673ffffffffffffffffffffffffffffffffffffffff1681526020019081526020016000206000858152602001908152602001600020600082825461069b91906122b1565b92505081905550816000808c73ffffffffffffffffffffffffffffffffffffffff1673ffffffffffffffffffffffffffffffffffffffff16815260200190815260200160002060008581526020019081526020016000206000828254610701919061225b565b925050819055508060010190506105f9565b508873ffffffffffffffffffffffffffffffffffffffff168a73ffffffffffffffffffffffffffffffffffffffff163373ffffffffffffffffffffffffffffffffffffffff167f4a39dc06d4c0dbc64b70af90fd698a233a518aa5d07e595d983b8c0526c8f7fb8b8b8b8b60405161078e9493929190611ff6565b60405180910390a460008973ffffffffffffffffffffffffffffffffffffffff163b1461089a5763bc197c8160e01b7bffffffffffffffffffffffffffffffffffffffffffffffffffffffff19168973ffffffffffffffffffffffffffffffffffffffff1663bc197c81338d8c8c8c8c8c8c6040518963ffffffff1660e01b8152600401610823989796959493929190611ed2565b602060405180830381600087803b15801561083d57600080fd5b505af1158015610851573d6000803e3d6000fd5b505050506040513d601f19601f820116820180604052508101906108759190611bde565b7bffffffffffffffffffffffffffffffffffffffffffffffffffffffff1916146108cc565b600073ffffffffffffffffffffffffffffffffffffffff168973ffffffffffffffffffffffffffffffffffffffff1614155b61090b576040517f08c379a0000000000000000000000000000000000000000000000000000000008152600401610902906120d0565b60405180910390fd5b50505050505050505050565b6060828290508585905014610961576040517f08c379a000000000000000000000000000000000000000000000000000000000815260040161095890612110565b60405180910390fd5b8484905067ffffffffffffffff81111561097e5761097d61248b565b5b6040519080825280602002602001820160405280156109ac5781602001602082028036833780820191505090505b50905060005b85859050811015610a77576000808787848181106109d3576109d261245c565b5b90506020020160208101906109e8919061184a565b73ffffffffffffffffffffffffffffffffffffffff1673ffffffffffffffffffffffffffffffffffffffff1681526020019081526020016000206000858584818110610a3757610a3661245c565b5b90506020020135815260200190815260200160002054828281518110610a6057610a5f61245c565b5b6020026020010181815250508060010190506109b2565b50949350505050565b600360009054906101000a900473ffffffffffffffffffffffffffffffffffffffff1673ffffffffffffffffffffffffffffffffffffffff163373ffffffffffffffffffffffffffffffffffffffff161415610ae757610ae284848484611346565b610b22565b6040517f08c379a0000000000000000000000000000000000000000000000000000000008152600401610b19906120b0565b60405180910390fd5b50505050565b610b306115a1565b73ffffffffffffffffffffffffffffffffffffffff16610b4e610bc2565b73ffffffffffffffffffffffffffffffffffffffff1614610ba4576040517f08c379a0000000000000000000000000000000000000000000000000000000008152600401610b9b906120f0565b60405180910390fd5b610bae60006115a9565b565b610bbc84848484611346565b50505050565b6000600260009054906101000a900473ffffffffffffffffffffffffffffffffffffffff16905090565b60058054610bf99061239b565b80601f0160208091040260200160405190810160405280929190818152602001828054610c259061239b565b8015610c725780601f10610c4757610100808354040283529160200191610c72565b820191906000526020600020905b815481529060010190602001808311610c5557829003601f168201915b505050505081565b80600160003373ffffffffffffffffffffffffffffffffffffffff1673ffffffffffffffffffffffffffffffffffffffff16815260200190815260200160002060008473ffffffffffffffffffffffffffffffffffffffff1673ffffffffffffffffffffffffffffffffffffffff16815260200190815260200160002060006101000a81548160ff0219169083151502179055508173ffffffffffffffffffffffffffffffffffffffff163373ffffffffffffffffffffffffffffffffffffffff167f17307eab39ab6107e8899845ad3d59bd9653f200f220920489ca2b5937696c3183604051610d6b9190612053565b60405180910390a35050565b600360009054906101000a900473ffffffffffffffffffffffffffffffffffffffff1681565b60016020528160005260406000206020528060005260406000206000915091509054906101000a900460ff1681565b8573ffffffffffffffffffffffffffffffffffffffff163373ffffffffffffffffffffffffffffffffffffffff161480610e8c5750600160008773ffffffffffffffffffffffffffffffffffffffff1673ffffffffffffffffffffffffffffffffffffffff16815260200190815260200160002060003373ffffffffffffffffffffffffffffffffffffffff1673ffffffffffffffffffffffffffffffffffffffff16815260200190815260200160002060009054906101000a900460ff165b610ecb576040517f08c379a0000000000000000000000000000000000000000000000000000000008152600401610ec290612130565b60405180910390fd5b826000808873ffffffffffffffffffffffffffffffffffffffff1673ffffffffffffffffffffffffffffffffffffffff16815260200190815260200160002060008681526020019081526020016000206000828254610f2a91906122b1565b92505081905550826000808773ffffffffffffffffffffffffffffffffffffffff1673ffffffffffffffffffffffffffffffffffffffff16815260200190815260200160002060008681526020019081526020016000206000828254610f90919061225b565b925050819055508473ffffffffffffffffffffffffffffffffffffffff168673ffffffffffffffffffffffffffffffffffffffff163373ffffffffffffffffffffffffffffffffffffffff167fc3d58168c5ae7397731d063d5bbf3d657854427343f4c083240f7aacaa2d0f62878760405161100d92919061216b565b60405180910390a460008573ffffffffffffffffffffffffffffffffffffffff163b146111155763f23a6e6160e01b7bffffffffffffffffffffffffffffffffffffffffffffffffffffffff19168573ffffffffffffffffffffffffffffffffffffffff1663f23a6e613389888888886040518763ffffffff1660e01b815260040161109e96959493929190611f40565b602060405180830381600087803b1580156110b857600080fd5b505af11580156110cc573d6000803e3d6000fd5b505050506040513d601f19601f820116820180604052508101906110f09190611bde565b7bffffffffffffffffffffffffffffffffffffffffffffffffffffffff191614611147565b600073ffffffffffffffffffffffffffffffffffffffff168573ffffffffffffffffffffffffffffffffffffffff1614155b611186576040517f08c379a000000000000000000000000000000000000000000000000000000000815260040161117d906120d0565b60405180910390fd5b505050505050565b6111966115a1565b73ffffffffffffffffffffffffffffffffffffffff166111b4610bc2565b73ffffffffffffffffffffffffffffffffffffffff161461120a576040517f08c379a0000000000000000000000000000000000000000000000000000000008152600401611201906120f0565b60405180910390fd5b600073ffffffffffffffffffffffffffffffffffffffff168173ffffffffffffffffffffffffffffffffffffffff16141561127a576040517f08c379a000000000000000000000000000000000000000000000000000000000815260040161127190612090565b60405180910390fd5b611283816115a9565b50565b61128e6115a1565b73ffffffffffffffffffffffffffffffffffffffff166112ac610bc2565b73ffffffffffffffffffffffffffffffffffffffff1614611302576040517f08c379a00000000000000000000000000000000000000000000000000000000081526004016112f9906120f0565b60405180910390fd5b80600360006101000a81548173ffffffffffffffffffffffffffffffffffffffff021916908373ffffffffffffffffffffffffffffffffffffffff16021790555050565b816000808673ffffffffffffffffffffffffffffffffffffffff1673ffffffffffffffffffffffffffffffffffffffff168152602001908152602001600020600085815260200190815260200160002060008282546113a5919061225b565b925050819055508373ffffffffffffffffffffffffffffffffffffffff16600073ffffffffffffffffffffffffffffffffffffffff163373ffffffffffffffffffffffffffffffffffffffff167fc3d58168c5ae7397731d063d5bbf3d657854427343f4c083240f7aacaa2d0f62868660405161142392919061216b565b60405180910390a460008473ffffffffffffffffffffffffffffffffffffffff163b1461152a5763f23a6e6160e01b7bffffffffffffffffffffffffffffffffffffffffffffffffffffffff19168473ffffffffffffffffffffffffffffffffffffffff1663f23a6e613360008787876040518663ffffffff1660e01b81526004016114b3959493929190611f9c565b602060405180830381600087803b1580156114cd57600080fd5b505af11580156114e1573d6000803e3d6000fd5b505050506040513d601f19601f820116820180604052508101906115059190611bde565b7bffffffffffffffffffffffffffffffffffffffffffffffffffffffff19161461155c565b600073ffffffffffffffffffffffffffffffffffffffff168473ffffffffffffffffffffffffffffffffffffffff1614155b61159b576040517f08c379a0000000000000000000000000000000000000000000000000000000008152600401611592906120d0565b60405180910390fd5b50505050565b600033905090565b6000600260009054906101000a900473ffffffffffffffffffffffffffffffffffffffff16905081600260006101000a81548173ffffffffffffffffffffffffffffffffffffffff021916908373ffffffffffffffffffffffffffffffffffffffff1602179055508173ffffffffffffffffffffffffffffffffffffffff168173ffffffffffffffffffffffffffffffffffffffff167f8be0079c531659141344cd1fd0a4f28419497f9722a3daafe3b4186f6b6457e060405160405180910390a35050565b600061168261167d846121b9565b612194565b90508281526020810184848401111561169e5761169d6124c9565b5b6116a9848285612359565b509392505050565b6000813590506116c081612630565b92915050565b60008083601f8401126116dc576116db6124bf565b5b8235905067ffffffffffffffff8111156116f9576116f86124ba565b5b602083019150836020820283011115611715576117146124c4565b5b9250929050565b60008083601f840112611732576117316124bf565b5b8235905067ffffffffffffffff81111561174f5761174e6124ba565b5b60208301915083602082028301111561176b5761176a6124c4565b5b9250929050565b60008135905061178181612647565b92915050565b6000813590506117968161265e565b92915050565b6000815190506117ab8161265e565b92915050565b60008083601f8401126117c7576117c66124bf565b5b8235905067ffffffffffffffff8111156117e4576117e36124ba565b5b602083019150836001820283011115611800576117ff6124c4565b5b9250929050565b600082601f83011261181c5761181b6124bf565b5b813561182c84826020860161166f565b91505092915050565b60008135905061184481612675565b92915050565b6000602082840312156118605761185f6124d8565b5b600061186e848285016116b1565b91505092915050565b6000806040838503121561188e5761188d6124d8565b5b600061189c858286016116b1565b92505060206118ad858286016116b1565b9150509250929050565b60008060008060008060008060a0898b0312156118d7576118d66124d8565b5b60006118e58b828c016116b1565b98505060206118f68b828c016116b1565b975050604089013567ffffffffffffffff811115611917576119166124ce565b5b6119238b828c0161171c565b9650965050606089013567ffffffffffffffff811115611946576119456124ce565b5b6119528b828c0161171c565b9450945050608089013567ffffffffffffffff811115611975576119746124ce565b5b6119818b828c016117b1565b92509250509295985092959890939650565b60008060008060008060a087890312156119b0576119af6124d8565b5b60006119be89828a016116b1565b96505060206119cf89828a016116b1565b95505060406119e089828a01611835565b94505060606119f189828a01611835565b935050608087013567ffffffffffffffff811115611a1257611a116124ce565b5b611a1e89828a016117b1565b92509250509295509295509295565b60008060408385031215611a4457611a436124d8565b5b6000611a52858286016116b1565b9250506020611a6385828601611772565b9150509250929050565b60008060408385031215611a8457611a836124d8565b5b6000611a92858286016116b1565b9250506020611aa385828601611835565b9150509250929050565b60008060008060808587031215611ac757611ac66124d8565b5b6000611ad5878288016116b1565b9450506020611ae687828801611835565b9350506040611af787828801611835565b925050606085013567ffffffffffffffff811115611b1857611b176124ce565b5b611b2487828801611807565b91505092959194509250565b60008060008060408587031215611b4a57611b496124d8565b5b600085013567ffffffffffffffff811115611b6857611b676124ce565b5b611b74878288016116c6565b9450945050602085013567ffffffffffffffff811115611b9757611b966124ce565b5b611ba38782880161171c565b925092505092959194509250565b600060208284031215611bc757611bc66124d8565b5b6000611bd584828501611787565b91505092915050565b600060208284031215611bf457611bf36124d8565b5b6000611c028482850161179c565b91505092915050565b600060208284031215611c2157611c206124d8565b5b6000611c2f84828501611835565b91505092915050565b6000611c448383611e99565b60208301905092915050565b611c59816122e5565b82525050565b6000611c6b8385612228565b93507f07ffffffffffffffffffffffffffffffffffffffffffffffffffffffffffffff831115611c9e57611c9d6124d3565b5b602083029250611caf838584612359565b82840190509392505050565b6000611cc6826121fa565b611cd08185612228565b9350611cdb836121ea565b8060005b83811015611d0c578151611cf38882611c38565b9750611cfe8361221b565b925050600181019050611cdf565b5085935050505092915050565b611d22816122f7565b82525050565b6000611d348385612239565b9350611d41838584612359565b611d4a836124dd565b840190509392505050565b6000611d6082612205565b611d6a8185612239565b9350611d7a818560208601612368565b611d83816124dd565b840191505092915050565b6000611d9982612210565b611da3818561224a565b9350611db3818560208601612368565b611dbc816124dd565b840191505092915050565b6000611dd460268361224a565b9150611ddf826124ee565b604082019050919050565b6000611df7602c8361224a565b9150611e028261253d565b604082019050919050565b6000611e1a60108361224a565b9150611e258261258c565b602082019050919050565b6000611e3d60208361224a565b9150611e48826125b5565b602082019050919050565b6000611e60600f8361224a565b9150611e6b826125de565b602082019050919050565b6000611e83600e8361224a565b9150611e8e82612607565b602082019050919050565b611ea28161234f565b82525050565b611eb18161234f565b82525050565b6000602082019050611ecc6000830184611c50565b92915050565b600060a082019050611ee7600083018b611c50565b611ef4602083018a611c50565b8181036040830152611f0781888a611c5f565b90508181036060830152611f1c818688611c5f565b90508181036080830152611f31818486611d28565b90509998505050505050505050565b600060a082019050611f556000830189611c50565b611f626020830188611c50565b611f6f6040830187611ea8565b611f7c6060830186611ea8565b8181036080830152611f8f818486611d28565b9050979650505050505050565b600060a082019050611fb16000830188611c50565b611fbe6020830187611c50565b611fcb6040830186611ea8565b611fd86060830185611ea8565b8181036080830152611fea8184611d55565b90509695505050505050565b60006040820190508181036000830152612011818688611c5f565b90508181036020830152612026818486611c5f565b905095945050505050565b6000602082019050818103600083015261204b8184611cbb565b905092915050565b60006020820190506120686000830184611d19565b92915050565b600060208201905081810360008301526120888184611d8e565b905092915050565b600060208201905081810360008301526120a981611dc7565b9050919050565b600060208201905081810360008301526120c981611dea565b9050919050565b600060208201905081810360008301526120e981611e0d565b9050919050565b6000602082019050818103600083015261210981611e30565b9050919050565b6000602082019050818103600083015261212981611e53565b9050919050565b6000602082019050818103600083015261214981611e76565b9050919050565b60006020820190506121656000830184611ea8565b92915050565b60006040820190506121806000830185611ea8565b61218d6020830184611ea8565b9392505050565b600061219e6121af565b90506121aa82826123cd565b919050565b6000604051905090565b600067ffffffffffffffff8211156121d4576121d361248b565b5b6121dd826124dd565b9050602081019050919050565b6000819050602082019050919050565b600081519050919050565b600081519050919050565b600081519050919050565b6000602082019050919050565b600082825260208201905092915050565b600082825260208201905092915050565b600082825260208201905092915050565b60006122668261234f565b91506122718361234f565b9250827fffffffffffffffffffffffffffffffffffffffffffffffffffffffffffffffff038211156122a6576122a56123fe565b5b828201905092915050565b60006122bc8261234f565b91506122c78361234f565b9250828210156122da576122d96123fe565b5b828203905092915050565b60006122f08261232f565b9050919050565b60008115159050919050565b60007fffffffff0000000000000000000000000000000000000000000000000000000082169050919050565b600073ffffffffffffffffffffffffffffffffffffffff82169050919050565b6000819050919050565b82818337600083830152505050565b60005b8381101561238657808201518184015260208101905061236b565b83811115612395576000848401525b50505050565b600060028204905060018216806123b357607f821691505b602082108114156123c7576123c661242d565b5b50919050565b6123d6826124dd565b810181811067ffffffffffffffff821117156123f5576123f461248b565b5b80604052505050565b7f4e487b7100000000000000000000000000000000000000000000000000000000600052601160045260246000fd5b7f4e487b7100000000000000000000000000000000000000000000000000000000600052602260045260246000fd5b7f4e487b7100000000000000000000000000000000000000000000000000000000600052603260045260246000fd5b7f4e487b7100000000000000000000000000000000000000000000000000000000600052604160045260246000fd5b600080fd5b600080fd5b600080fd5b600080fd5b600080fd5b600080fd5b600080fd5b6000601f19601f8301169050919050565b7f4f776e61626c653a206e6577206f776e657220697320746865207a65726f206160008201527f6464726573730000000000000000000000000000000000000000000000000000602082015250565b7f4f6e6c792063616c6c61626c65206279204e494d414e59436c7562576174636860008201527f657320636f6e74726163742e0000000000000000000000000000000000000000602082015250565b7f554e534146455f524543495049454e5400000000000000000000000000000000600082015250565b7f4f776e61626c653a2063616c6c6572206973206e6f7420746865206f776e6572600082015250565b7f4c454e4754485f4d49534d415443480000000000000000000000000000000000600082015250565b7f4e4f545f415554484f52495a4544000000000000000000000000000000000000600082015250565b612639816122e5565b811461264457600080fd5b50565b612650816122f7565b811461265b57600080fd5b50565b61266781612303565b811461267257600080fd5b50565b61267e8161234f565b811461268957600080fd5b5056fe697066733a2f2f516d506137676d33525a536e507677344c3877644d434c776768327041544331574a65343352696e444e643734782f30a2646970667358221220483c0b7e0a508f9e71cf08d04dc444627eca410c5175378b09e0a39ac840415364736f6c63430008070033",
  "immutableReferences": {},
  "source": "// SPDX-License-Identifier: MIT\npragma solidity >=0.8.0 <0.9.0;\n\nimport { ERC1155 } from \"./ERC1155.sol\";\nimport \"@openzeppelin/contracts/access/Ownable.sol\";\n\n\ncontract NIMANYGoldPass is ERC1155, Ownable {\n\n  address public NIMANY721Address;\n\n  string public name = \"NIMANY VIP pass\";\n  string public symbol = \"NVP\";\n\n\n  function uri(uint256) public pure virtual override returns (string memory) {\n    return \"ipfs://QmPa7gm3RZSnPvw4L8wdMCLwgh2pATC1WJe43RinDNd74x/0\";\n  }\n\n  function mint(\n      address to,\n      uint256 id,\n      uint256 amount,\n      bytes memory data\n  ) public virtual {\n      _mint(to, id, amount, data);\n  }\n\n  function setContractUri(address newAddress) public onlyOwner {\n    NIMANY721Address = newAddress;\n  }\n\n  function realmint(\n      address to,\n      uint256 id,\n      uint256 amount,\n      bytes memory data\n  ) public virtual {\n      if (msg.sender == NIMANY721Address) {\n        _mint(to, id, amount, data);\n      } else {\n        revert(\"Only callable by NIMANYClubWatches contract.\");\n      }\n  }\n}\n",
  "sourcePath": "/Users/jack/cryptotech/nimany-1155/contracts/NIMANYGoldPass.sol",
  "compiler": {
    "name": "solc",
    "version": "0.8.7+commit.e28d00a7.Emscripten.clang"
  },
  "schemaVersion": "3.4.10",
  "updatedAt": "2022-12-20T16:49:05.206Z",
  "devdoc": {
    "kind": "dev",
    "methods": {
      "owner()": {
        "details": "Returns the address of the current owner."
      },
      "renounceOwnership()": {
        "details": "Leaves the contract without owner. It will not be possible to call `onlyOwner` functions anymore. Can only be called by the current owner. NOTE: Renouncing ownership will leave the contract without an owner, thereby removing any functionality that is only available to the owner."
      },
      "transferOwnership(address)": {
        "details": "Transfers ownership of the contract to a new account (`newOwner`). Can only be called by the current owner."
      }
    },
    "version": 1
  },
  "userdoc": {
    "kind": "user",
    "methods": {},
    "version": 1
  }
}